:020000040800F2
:1000000068CA0020450100083D29000807220008B1
:1000100021280008E9120008A97D0008000000005E
:10002000000000000000000000000000D77200087F
:100030009117000800000000EB08000811400008BC
:100040005F0100085F0100085F0100085F01000810
:100050005F0100085F0100085F0100085F01000800
:10006000711D00085F010008AD1D00085F01000858
:100070005F0100085F0100085F0100085F010008E0
:100080005F0100085F0100084D0900085F010008DA
:100090005F0100085F0100085F010008ED1D000816
:1000A0005F010008397500085F0100085F01000862
:1000B0005F010008657500085F0100085F01000826
:1000C0005F0100085F0100085F0100085F01000890
:1000D0005F0100085F010008457900089979000870
:1000E0005F0100085F0100085F0100085F01000870
:1000F0005F0100085F0100085F0100085F01000860
:100100005F0100085F0100085F0100085F0100084F
:100110005F0100085F0100085F0100085F0100083F
:100120005F0100085F0100085F0100085F0100082F
:10013000DFF80CD000F028FB00480047C584000819
:1001400068CA00200648804706480047FEE7FEE7E9
:10015000FEE7FEE7FEE7FEE7FEE7FEE7FEE7FEE777
:10016000C17300083101000872B6704762B670476B
:10017000EFF3108072B6704780F31088704730BF7D
:10018000704720BF7047B0FA80F0704790FAA0F037
:10019000B0FA80F0704790FAA0F07047D2B201E058
:1001A00000F8012B491EFBD270470022F6E710B57C
:1001B00013460A4604461946FFF7F0FF204610BDD5
:1001C00030B505462A460B4612F8010B13F8014BD1
:1001D00008B1A042F8D01CB1002802D06D1CF1E794
:1001E000284630BD70B5064607F004FE0468054693
:1001F0000A220021304600F0FAF92C6070BDF0B4FC
:1002000080EA0102D40F4200B2EB410F02D2024653
:10021000084611464A0042D0C30DDDB2C1F3C752B1
:10022000AD1A202D35DAC1F3160141F4000204B1F4
:100230005242C5F1200602FA06F12A411044B3EBFE
:10024000D05F23D0C4B1012DA0EBC35009DCF0BCBA
:100250004FF0004202EAC352DBB200F5000000F0AA
:1002600007BA400000F1807000EBC350A0F180702D
:1002700040EAD170490009E0490841EAC071A0EBA9
:10028000C35000F50000400800EBC350F0BC00F084
:10029000E6B96142012202EB4101001BF6E7F0BC26
:1002A000704781F00041AAE780F00040A7E780EAAC
:1002B000010210B502F00043400022D04A001FD0D6
:1002C000010E01EB1261C0F35600C2F3560240F476
:1002D000000042F40002A0FB022000047F39140455
:1002E00000D0401C50EA124001D44000491EC2B266
:1002F0000C0604EBD010401C4008802A02D003E01A
:10030000002010BD20F00100002900DA0020184371
:1003100010BD30B480EA010202F0004530F0004226
:1003200021F0004013D090B1C30DD40DC2F31601DB
:10033000C0F31600E41A41F4000140F400027D34D9
:10034000914201D3641C00E04900002C02DA30BC69
:10035000002070474FF400000023914201D3891A16
:10036000034340084FEA4101F7D151B1914202D114
:100370004FF0004105E002D24FF0010101E06FF0C3
:10038000010103EBC450284430BC00F068B92DE9EA
:10039000FE4F81EA030404F0004421F00041009480
:1003A0004FF0000B23F0004350EA01045ED052EA04
:1003B00003045BD0C3F30A54C1F30A552C44A4F2DE
:1003C000F3340194A0FB0254C1F3130141F48011F2
:1003D000C3F3130343F4801301FB024400FB034EF9
:1003E000840A970A44EA815447EA8357A4FB0768C2
:1003F00002958D0A05FB07854FEA932C04FB0C54EC
:100400002705029D4FEA065847EA1637B5EB08055F
:100410006EEB070C870E920E47EA811742EA8312B1
:10042000A7FB0201B6EB0B0164EB00042B0D43EAC2
:100430000C335E1844EB1C50DA465146E7FB0201D0
:10044000C5F313044FEA0B3343EA14534FEA043263
:10045000019C43EA0603A4F10C040294009CCDE93C
:1004600000B400F042F903B0BDE8F08F002001466F
:10047000F9E796230022114600F0FAB80EB5C10F35
:1004800080EAE0700844CA07002140F233438DE857
:100490000E000A460B4600F028F903B000BD00F03C
:1004A000004220F00040C10DC0F3160040F40000EF
:1004B0007F2901DA00207047962903DCC1F19601FB
:1004C000C84001E096398840002AF4D04042704785
:1004D00070B5C1F30A5201F000450024C1F31301C5
:1004E00040F2FF3341F480119A4201DA002070BDDE
:1004F00040F233439A42A2F2334203DC524200F00C
:1005000066F800E090402C43F1D0404270BD00F00E
:10051000004230F000400AD0C10D01F56071C0F317
:10052000160042EA0151C2084007114370470020FB
:100530000146704701F0004330B421F0004150EA19
:10054000010206D00A0DA2F56072C1F31301002A60
:1005500002DC30BC00207047440F44EAC104C100F3
:10056000E01830BC00EBC25000F079B82DE9F05F24
:100570000546002092469B46884606468146402412
:100580001BE0284641464746224600F020F85346E5
:100590005A46C01A914110D311461846224600F01F
:1005A00005F92D1A67EB01084F462246012000216C
:1005B00000F0FCF817EB00094E41201EA4F10104E5
:1005C000DFDC484631462A464346BDE8F09F202AF4
:1005D00004DB203A21FA02F00021704721FA02F3ED
:1005E000D040C2F1200291400843194670472DE9DE
:1005F000F04791460F4680460446002614F8015BFA
:100600002DB100F0E3F80068405DC007F6D12B2D56
:1006100002D02D2D18D0641E4A463946204600F0DF
:10062000D9F827B13968A14201D1C7F80080710516
:100630004FF002040BD54042002803DD07F0DAFB3F
:100640000460A007BDE8F08746F48066E4E7002870
:10065000F8DA07F0CFFB04606FF00040F2E7002902
:10066000A8BF7047401C490008BF20F00100704738
:1006700010B4B0FA80FC00FA0CF050EA010404BF98
:1006800010BC704749B1CCF1200421FA04F411FAEE
:100690000CF118BF012121430843A3EB0C01CB1D32
:1006A0004FEA00614FEA102042BF002010BC7047A3
:1006B00000EBC35010440029A4BF10BC7047401C7D
:1006C000490008BF20F0010010BC704710B5141E8F
:1006D00073F1000408DA401C41F1000192185B41FB
:1006E0001A4301D120F0010010BD2DE9F04D9246D2
:1006F0009B4611B1B1FA81F202E0B0FA80F22032E9
:10070000904600F053F804460F4640EA0A0041EADA
:100710000B0153465A46084313D0114653EA0100D1
:1007200019D0C8F140025046FFF751FF05460E466A
:1007300050465946424600F039F8084305D001209A
:1007400004E020463946BDE8F08D0020054346EA26
:10075000E0762C4337430A986305E40AA0EB0800CF
:100760000022FD0A44EA47540A3002D5002001461F
:10077000E9E7010510196941DDE9084500196941FA
:10078000BDE8F04DA2E70000064C074D06E0E0682A
:1007900040F0010394E8070098471034AC42F6D3C8
:1007A000FFF7CAFC148E0008348E0008202A04DBF0
:1007B000203A00FA02F1002070479140C2F1200374
:1007C00020FA03F319439040704700000048704737
:1007D000108E00082DE9F05F82460078002715464C
:1007E0008B460AF10104B946302801D09DB113E0CF
:1007F00014F8010B0127782803D0582801D045B1FF
:100800000AE00DB1102D07D10027102514F8010BB7
:1008100002E0082500E00A250026B0460EE005FBB0
:10082000080005FB06F1012701EB10461FFA80F8CE
:10083000B6F5803F00D3B94614F8010B294600F005
:1008400018F80028EBDABBF1000F05D00FB1641ED9
:1008500000E05446CBF80040B9F1000F06D007F095
:10086000C9FA02210160C81EBDE8F09F48EA0640AF
:10087000FAE73A2800D2303820F02002412A01D38A
:10088000A2F13700884201D34FF0FF30704730B5F6
:100890008C1810F8012B12F00F0301D110F8013B56
:1008A000120906D110F8012B03E010F8015B01F8E2
:1008B000015B5B1EF9D101E001F8013B521EFBD147
:1008C000A142E6D3002030BD18484FF0FF0101706F
:1008D000002080F309881648016881F308881548CC
:1008E0004FF08051016062B6FEE772B6EFF3098007
:1008F00028B1203880E8F00F0F490968086000B57A
:100900000E4880475DF804EB0D480E490A780270E6
:1009100009480D490A680260106890E8F00F20301D
:1009200080F309884EF0040E62B6704722ED00E0B5
:100930003003002004ED00E028030020993B00086C
:10094000B6020020B70200202C03002010B54FF49F
:100950000871084800F030F8012804D1054800F07B
:1009600027F8054908804FF40871024800F006F89E
:1009700010BD000000280140B43F002000220A12F0
:10098000D3430360704721B1826842F00102826064
:1009900003E0826822F00102826070470146002075
:1009A0008A6802F004020AB1012000E000207047CA
:1009B0000146C86C80B2704770B502460020002323
:1009C00000240B125568CEB205EA060415681D40D6
:1009D00015B10CB1012000E0002070BD01460020DF
:1009E0008A6802F008020AB1012000E00020704786
:1009F00010B50023CBB21AB144681C43446002E036
:100A000044689C43446010BD30B50246002000237A
:100A100050680F4C20400D790C6844EA05242043AF
:100A2000506090680B4C2040D1E902542C434D7922
:100A300044EA450420439060D06A20F470000C7CA6
:100A4000641EE4B2234340EA0350D06230BD00008C
:100A5000FFFEF0FFFDF7F1FF08B54FF4C06001F0B5
:100A6000FDFF12208DF8000001208DF801008DF8A7
:100A700002008DF80300684601F0A2FF08BDF0B542
:100A800004460D4600200021092D11DDE068A5F186
:100A90000A0606EB4607072606FA07F18843A5F182
:100AA0000A0606EB460603FA06F10843E0600CE08E
:100AB000206905EB4507072606FA07F1884305EB91
:100AC000450603FA06F108432061072A0FDA606B36
:100AD000561E06EB86071F2606FA07F18843561EA8
:100AE00006EB860605FA06F10843606322E00D2A4C
:100AF0000FDA206BD61F06EB86071F2606FA07F1D2
:100B00008843D61F06EB860605FA06F108432063E4
:100B100010E0E06AA2F10D0606EB86071F2606FA32
:100B200007F18843A2F10D0606EB860605FA06F1E9
:100B30000843E062F0BD816841F0080181607047C0
:100B400021B1826842F4A002826003E0826822F44C
:100B5000A00282607047816841F0040181607047A3
:100B600008B50121102006F071FA0220ADF800004E
:100B700000208DF803006946014801F063FA08BDC2
:100B80000010014010B5FFF7EBFF00F003F8FFF78E
:100B900063FF10BD00B585B00121880206F056FA4A
:100BA000002000908DF8040001208DF805004FF41E
:100BB000602002900020039001208DF8100069460B
:100BC0001748FFF721FF4FF4404006F023FA0523B2
:100BD00001220B211248FFF752FF01224FF4087146
:100BE0000F48FFF705FF01210D48FFF7CCFE0C4829
:100BF000FFF7A1FF00BF0A48FFF7F0FE0028FAD177
:100C00000748FFF7A8FF00BF0548FFF7C7FE002809
:100C1000FAD101210248FFF793FF05B000BD0000A3
:100C20000028014010B500F02BF800F001F810BDCD
:100C30000EB50121C80206F009FA40F6A970ADF818
:100C400004004720ADF800000020ADF80600ADF824
:100C500002008DF808006946084806F0ADFD012144
:100C6000064806F0AFFC01221146044806F0CDFC10
:100C70000021024806F0ACFC0EBD0000002C014033
:100C800008B54FF4E06001F0E9FE19208DF800008E
:100C900000208DF8010003208DF8020001208DF85E
:100CA0000300684601F08CFE08BD000008B5012174
:100CB000102006F0CBF94020ADF8000004208DF89C
:100CC00003006946014801F0BDF908BD001001406C
:100CD00010B5FFF7EBFF00F049F800F001F810BD88
:100CE00000B587B00121480306F0B0F94FF6FE7059
:100CF000ADF808004720ADF804000020ADF80A0068
:100D0000ADF806008DF80C0001A9174806F054FD57
:100D10000020ADF81000ADF812000120ADF814006D
:100D20000020ADF81600ADF8180004A90E4806F032
:100D3000D4FC50210C4806F00EFD04210A4806F0B0
:100D40001CFD8021084806F00FFD01220221064803
:100D500006F05BFC0221044806F037FC0121024842
:100D600006F036FC07B000BD0034014008B54FF472
:100D7000E06001F073FE2E208DF8000000208DF859
:100D8000010003208DF8020001208DF80300684661
:100D900001F016FE08BD000070B58AB0064600F0EE
:100DA0003FF900F0A3FA00F032F904465148006818
:100DB000B4FBF0F5284603F04BF901F03DFD09A81E
:100DC00002F080F900F000FB09A80321002205923F
:100DD000CDE90621089005204FF400713322464BDF
:100DE000CDE90132CDE9031001200023434A44A19B
:100DF0000090464802F0F0F909A80321002205926C
:100E0000CDE90621089005204FF400713322404BB4
:100E1000CDE90132CDE90310022000233D4A3EA175
:100E20000090404802F0D8F909A803210022059259
:100E3000CDE90621089005204FF4007133223A4B8A
:100E4000CDE90132CDE9031003200023374A38A150
:100E500000903A4802F0C0F909A803210022059247
:100E6000CDE90621089005204FF400713322344B60
:100E7000CDE90132CDE9031003200023314A32A12C
:100E80000090344802F0A8F909A803210022059235
:100E9000CDE90621089005204FF4007133222E4B36
:100EA000CDE90132CDE90310032000232B4A2CA108
:100EB00000902E4802F090F909A803210022059223
:100EC000CDE90621089005204FF400713322284B0C
:100ED000CDE90132CDE9031003200023254A26A1E4
:100EE0000090284802F078F909A9274802F0CAFAC8
:100EF0000AB070BDDC8B0008B40A00208D0F00081A
:100F0000417070205461736B205F31000404002035
:100F1000B4120020B10F0008417070205461736B4F
:100F2000205F3200CC040020B41A0020C70F000854
:100F3000417070205461736B205F33009405002072
:100F4000B4220020D70F0008417070205461736BE9
:100F5000205F34005C060020B42A0020E90F00085E
:100F6000417070205461736B205F350024070020AE
:100F7000B4320020FF0F0008417070205461736B81
:100F8000205F3600EC0700203C03002008B50BE092
:100F90006A4600214FF4FA6002F050FE2021034817
:100FA00001F02DF901F0B8FAF2E70000000C014061
:100FB00008B507E06A46002141F2883002F03EFEA3
:100FC00007F060FBF6E708B504E06A460021C82098
:100FD00002F034FEF9E708B505E06A4600214FF457
:100FE000FA6002F02BFEF8E708B507E001F07AFCA2
:100FF0006A4600214FF4FA6002F020FEF6E708B5D9
:1010000004E06A460021142002F018FEF9E700B55A
:1010100085B0684606F03AF8019805B000BD0000BA
:1010200010B506F025FD06F0B7F8FFF751FE00F009
:101030001FFF00F0B3FF01F04BFA01F02DF900F0B3
:10104000A9FBFFF79FFD00F0CDFA00F0E7FC06F0EA
:101050000EFCFFF7E7FD02A006F0A8FE10BD0000A1
:10106000B3F5CABCBBAFCDEAB3C92E2E2E0A000021
:101070002DE9F04FA1B00024A1468F4800783A280E
:101080007ED18D4840783828FAD10BE08A48005D3F
:1010900001A90855601CC4B2874890F88000A0429E
:1010A00000D100E0F2E700BF84A006F07FFE15E06B
:1010B00001A810F8091086A006F078FE09F10100D9
:1010C00000F0FF097C4890F88000401E7A4981F8C2
:1010D0008000084690F8800000B900E0E8E700BF13
:1010E0007DA006F063FE80217348FFF75EF89DF84F
:1010F000590007F0C9F805039DF85A0007F0C4F835
:1011000005EB00259DF85B0007F0BEF805EB001528
:101110009DF85C0007F0B8F82844704988809DF875
:101120005D0007F0B1F805039DF85E0007F0ACF82C
:1011300005EB00259DF85F0007F0A6F805EB00150C
:101140009DF8600007F0A0F82844644908809DF8E5
:10115000610007F099F805039DF8620007F094F824
:1011600005EB00259DF8630007F08EF805EB0015F0
:101170009DF8640007F088F828445849488000E04A
:1011800097E09DF8660007F07FF805469DF865003A
:1011900007F07AF805EB00102838504988719DF85F
:1011A000680007F071F805469DF8670007F06CF8D5
:1011B00005EB001028384949C8719DF86A0007F00E
:1011C00063F805469DF8690007F05EF805EB00102E
:1011D0002838424908729DF86C0007F055F805461A
:1011E0009DF86B0007F050F805EB001028383B49DC
:1011F00048729DF86D0007F047F805039DF86E00F2
:1012000007F042F805EB00259DF86F0007F03CF869
:1012100005EB00159DF8700007F036F828442F49BB
:1012200048819DF8760007F02FF805039DF87700B8
:1012300007F02AF805EB00259DF8780007F024F860
:1012400005EB00159DF8790007F01EF828442349A6
:1012500088819DF87A0007F017F805039DF87B0058
:1012600007F012F805EB00259DF87C0007F00CF85C
:1012700005EB00159DF87D0007F006F82844174996
:10128000C8819DF87F0006F0FFFF83469DF87E0031
:1012900006F0FAFF0BEB001A5046FFF7EFF807468F
:1012A0000F4A104BFFF773F80546FFF743F90B4958
:1012B000086121B0BDE8F08F303F0020BDD3CAD512
:1012C000B5BD4D6F64627573D6B8C1EE3A000000CB
:1012D00025303258200000000A0000001C3F00208A
:1012E0009A9999999999B93F00BFFEE710B500F016
:1012F000FBF800F003F800F0F3F810BD70B500261D
:1013000000201849088018490880184908601849C1
:1013100008601849086018490860184908600024E6
:1013200000BFFEF725FF064600BF00250BE00020AA
:101330001049086000F074F800F08CF80D4800685F
:101340000444681C85B2002DF1D00C4804600020D4
:10135000084908600849086000BF3046FEF70CFFE6
:1013600000BF70BD40020020420200204402002065
:101370004802002050020020540200204C020020AD
:1013800001460846044A1268904203D9024A12688C
:10139000801A00E0002070474C02002070B5002544
:1013A00000BFFEF7E5FE054600BF0648046800BF23
:1013B0002846FEF7E1FE00BF2046FFF7E1FF0646A4
:1013C000304670BD5002002070B50025FFF7E6FFE3
:1013D000044600BFFEF7CCFE054600BF00200449CE
:1013E000086000BF2846FEF7C7FE00BF204670BD5C
:1013F0005002002070B5002500BFFEF7B9FE05467B
:1014000000BF0648046800BF2846FEF7B5FE00BFCF
:101410002046FFF7B5FF0646304670BD5402002057
:1014200010B509480088401C074908800748008813
:1014300018B900F083F80649086004480088401C89
:101440000249088010BD0000400200204202002036
:101450004402002010B50F480088401E0D49088046
:1014600008460088A0B900F069F80B4908600846F2
:1014700000680A490968441A09480068A04201D274
:101480000748046007480068A04201D2054804608C
:1014900010BD00004202002048020020440200204B
:1014A000500200205402002010B5002400BF00BFED
:1014B000FEF75EFE044600BFFFF7B2FF00BF10213B
:1014C000064801F0AFF900BFFFF7C4FF00BF204698
:1014D000FEF752FE00BF00BF10BD00000B40002011
:1014E00010B5FFF7E1FF10BD10B5002002490860FC
:1014F00000F00AF810BD00003C020020014908601D
:10150000704700003C02002010B50A48006840F017
:101510008070084908600020074948600846006854
:1015200040F001000860FFF772FD04462046FFF717
:10153000E5FF10BDFCED00E0001000E00148406850
:1015400070470000001000E008B50121402005F0C0
:101550007DFD4020ADF8000010208DF80300032031
:101560008DF802006946024800F06CFD08BD0000DD
:10157000001801402DE9F05F00F0D2F8442000F09F
:10158000D9F800F0CDF8BE2000F0D4F800F0A0F8B3
:10159000834600F09DF882464FEA0A2004B244EAEE
:1015A0000B04002C0DDAE043401CFEF767FF0746F2
:1015B00000220B4BFEF7EBFE0546FEF7BBFF814614
:1015C0000BE02046FEF75AFF07460022044BFEF7C9
:1015D000DEFE0546FEF7AEFF81464846BDE8F09FB9
:1015E0000000B03F10B5FFF7AFFF4021034800F007
:1015F00008FE00F07FF800F023F810BD001801404D
:1016000008B54020ADF8000048208DF80300694679
:10161000014800F017FD08BD0018014008B5402042
:10162000ADF8000010208DF8030003208DF80200B3
:101630006946024800F006FD08BD000000180140A0
:1016400010B50024FFF7DCFF04E0601CC4B20120E9
:1016500000F0C8F840210F4800F0C8FD08B1642C24
:10166000F3DB642C01DB012010BD002404E0601CCE
:10167000C4B2012000F0B6F84021064800F0B6FDE3
:1016800008B9F02CF3DBF02C01DB0120ECE70020A3
:10169000EAE700000018014010B5FFF7BFFF402146
:1016A0000A4800F0ACFD0A2000F09CF8FFF7A8FF04
:1016B0004021064800F09AFD012801D1012400E0F4
:1016C00000242D2000F08EF8204610BD00180140A7
:1016D00070B50026002408E0FFF7DEFF054605FA96
:1016E00004F03043C6B2601CC4B2082CF4DB3046B0
:1016F00070BD000010B5FFF791FF4021074800F0D2
:101700007EFD40F2EE2000F06DF84021034800F02D
:1017100078FD0F2000F066F810BD000000180140B1
:1017200010B5FFF7E7FFFFF78BFFCC2000F002F8C2
:1017300010BD000070B50446FFF770FF002522E0E1
:1017400004F00106641076B14021104800F057FD06
:10175000082000F047F840210C4800F052FD3A20E4
:1017600000F040F80DE04021084800F048FD462018
:1017700000F038F84021054800F043FD022000F059
:1017800031F8681CC5B2082DDADB70BD00180140C5
:10179000704700000EB50121082005F047FC68469F
:1017A00006F05CF80020ADF806001020ADF802004D
:1017B0006320ADF804004720ADF8000069460848F2
:1017C00005F0FAFF00BF06481030008800F0010065
:1017D0000028F8D04FF6FE700149103108800EBD88
:1017E000000C00400F4A10800E492439098841F04E
:1017F00001010C4A243A118000BF0A4914390988B2
:1018000001F001010029F8D04FF6FE71054A143AA3
:10181000118004492439098821F00101014A243A40
:1018200011807047240C0040F8B506460C4615465A
:101830001F462648B0F800046FF30E002349A1F8B4
:101840000004324622A1244806F02BFA14B90DB93F
:101850000120F8BD6A460021384602F0EFF9002069
:101860001A49B1F80014C1F30E01184A5054114638
:101870001AA006F09BFAB4B1ADB121461348FEF7A9
:101880009FFC08B1012000E0002040B929460F4824
:10189000FEF796FC08B1012000E0002008B101200D
:1018A000D7E70020D5E744B121460848FEF788FC79
:1018B00008B10120CDE70020CBE729460348FEF719
:1018C0007FFC08B10120C4E70020C2E7B43A002041
:1018D00025730D0A00000000004800402573000039
:1018E00010B586B004460CB1012000E0002002468D
:1018F00006A101A806F06AFA4FF4FA73002207A1C4
:1019000001A8FFF791FF06B010BD000041542B4322
:1019100049504D55583D2564000000004F4B0000D4
:101920000EB502A800214FF47A730A46CDE90010E3
:10193000084602F02BFA07A1074806F0B2F902A800
:1019400000214FF4FA730A46CDE90010084602F070
:101950001DFA0EBD2B2B2B000048004008B50121BD
:10196000082005F073FB4FF48070ADF800001020E4
:101970008DF8030003208DF802006946074800F047
:1019800061FB0121082005F061FB4FF40070ADF808
:1019900000006946014800F055FB08BD000C0140FD
:1019A00010B54FF4FA7300220DA10EA0FFF73CFF13
:1019B000A0B110A11248FEF703FC08B1022010BD2F
:1019C00010A10F48FEF7FCFB08B10320F7E710A1B8
:1019D0000B48FEF7F5FB08B10420F0E70020EEE726
:1019E0004F4B000041542B434950535441545553DD
:1019F000000000005354415455533A320D0A000080
:101A0000B43A00205354415455533A330D0A000060
:101A10005354415455533A340D0A000010B5FFF7A2
:101A20009DFF00F01DF94FF40071044800F0E9FB40
:101A30004FF48071014800F0E2FB10BD000C014042
:101A400070B59EB004460D462B46224608A1684656
:101A500006F0BCF9684606F0A9F941F28833002285
:101A600008A16846FFF7E0FE064630461EB070BD8E
:101A700041542B43574A41503D222573222C2225A5
:101A8000732200004F4B0000F0B5B9B006460F4678
:101A900014461D46642120A8FEF787FB16B1012ECF
:101AA00010D107E03B4614A214A120A8009406F030
:101AB0008DF908E03B4615A210A120A8009406F07D
:101AC00085F900E000BF00BF052D06DA20AB2A46ED
:101AD0000FA102A806F07AF904E020AA11A102A839
:101AE00006F074F94FF47A6312A216A102A8FFF768
:101AF0009BFE39B0F0BD00005443500022257322F4
:101B00002C222573222C2573000000005544500020
:101B100041542B43495053544152543D25642C2584
:101B20007300000041542B43495053544152543DDB
:101B300025730000414C5245415920434F4E4E45BC
:101B4000435400004F4B000010B5044624B1012C53
:101B50000AD0022C18D10FE040F6C4130BA20EA13C
:101B60000EA0FFF761FE10BD40F6C41307A20AA144
:101B70000DA0FFF759FEF6E740F6C41303A206A135
:101B80000CA0FFF751FEEEE70020ECE76E6F20633C
:101B900068616E67650000004F4B000041542B43A5
:101BA000574D4F44453D310041542B43574D4F4411
:101BB000453D320041542B43574D4F44453D330082
:101BC0002DE9F04186B007460C4615461E464FF0FB
:101BD00000083FB1224614A1144806F062F84FF005
:101BE00001081CE0052E06DAAB1C324610A101A844
:101BF00006F0ECF804E0AA1C12A101A806F0E6F831
:101C00004FF47A73002213A101A8FFF70DFE4FF4E1
:101C10007A73002210A12046FFF706FE8046404658
:101C200006B0BDE8F08100002573000000480040C8
:101C300041542B43495053454E443D25642C256463
:101C40000000000041542B43495053454E443D256C
:101C5000640000003E20000053454E44204F4B00DE
:101C600000B585B00121880405F0E0F901210820C4
:101C700005F0ECF94FF48060ADF8100018208DF8F5
:101C8000130003208DF8120004A91A4800F0DAF9B5
:101C90004FF40060ADF8100004208DF8130004A983
:101CA000144800F0CFF94FF4E13000900020ADF877
:101CB0000400ADF80600ADF80800ADF80C000C20EB
:101CC000ADF80A0069460C4805F076FF012240F2A3
:101CD0002551094805F04BFF012240F224410648F6
:101CE00005F045FF00F00AF80121034805F0B3FEB6
:101CF00005B000BD000C01400048004008B54FF49D
:101D0000A06000F0ABFE27208DF8000000208DF8C9
:101D100001008DF8020001208DF80300684600F0F4
:101D20004FFE08BD10B54FF4FA73002207A108A0BA
:101D3000FFF77AFD08B9002010BD4FF4FA7308A22E
:101D400002A108A0FFF770FDF6E700004F4B00006E
:101D500041542B4349504D4F44453D310000000054
:101D60003E00000041542B43495053454E4400006F
:101D700010B5042000F068F898B1012009490873F3
:101D80000948006820F0100007490860084600680C
:101D900020F004000860002002498860042000F060
:101DA0004DF810BD2C0200200004014010B5102099
:101DB00000F04AF8A0B101200A4908730A480068F7
:101DC00020F00400084908600846006820F0100070
:101DD00008604FF42A7003498860102000F02EF844
:101DE00010BD00002C0200200004014008B5202096
:101DF00000F02AF8A0B10BA005F0D8FF6A46002138
:101E00004FF47A7001F01AFF00210A4805F0E0FB58
:101E10004FF40071084800F0F4F9202000F00EF8AB
:101E200008BD0000D6D0B6CFB4A5B7A22E2E2E0A7C
:101E30000000000000040040001401400149086057
:101E40007047000014040140014600200022074BA7
:101E50001B6803EA0102054B14331B680B4013B1E6
:101E60000AB1012000E0002070470000000401409A
:101E70000EB50121212005F0E9F800F088FD0420CD
:101E8000ADF8080028208DF80B0002A91C4800F0CE
:101E9000D9F80221032000F0B5F8042000900020BA
:101EA0008DF8040008208DF8050001208DF806004B
:101EB000684600F029F80420114914310860102008
:101EC000ADF8080048208DF80B0002A90D4800F07D
:101ED000B9F80421002000F095F8102000900020AF
:101EE0008DF804000C208DF8050001208DF8060007
:101EF000684600F009F810200249103108600EBD54
:101F00000014014000080140002123498279002A81
:101F10003AD00A46126803689A430B461A600A1DB3
:101F2000126803689A430B1D1A60027911440A680B
:101F300003681A430A60184A0832126803689A4311
:101F4000154B08331A601A1D126803689A43124B26
:101F50000C331A604279102A0ED11A1F12680368D6
:101F60001A430D4B08331A601A1D126803681A438E
:101F7000094B0C331A600DE00749427911440A6895
:101F800003681A430A6005E0027911440A6803688D
:101F90009A430A6070470000000401400EB5012119
:101FA000052005F053F800F043FD2020ADF80800AF
:101FB00028208DF80B0002A90C4800F043F80521F9
:101FC000002000F01FF82020009000208DF8040071
:101FD00008208DF8050001208DF806006846FFF7FF
:101FE00093FF20200149143108600EBD0008014014
:101FF00010B50121084605F039F80021012005F04F
:1020000035F810BD30B500228B071C0F0F2303FAE3
:1020100004F20B4B8C1053F824309343084C8D1072
:1020200044F8253023468C1053F824308C07240FB5
:1020300000FA04F42343024C8D1044F8253030BDDF
:10204000080001402DE9F04102460025002600204D
:1020500000230024002791F803C00CF00F0591F82D
:1020600003C00CF0100CBCF1000F03D091F802C0BB
:102070004CEA050591F800C0BCF1000F31D014689E
:1020800000202BE04FF0010C0CFA00F3B1F800C077
:102090000CEA03069E4220D183004FF00F0C0CFA8D
:1020A00003F7BC4305FA03FC4CEA040491F803C0AF
:1020B000BCF1280F06D14FF0010C0CFA00FCC2F85D
:1020C00014C00AE091F803C0BCF1480F05D14FF0ED
:1020D000010C0CFA00FCC2F810C0401C0828D1D337
:1020E0001460B1F800C0BCF1FF0F34DD546800206B
:1020F0002EE000F1080C4FF0010808FA0CF3B1F8DB
:1021000000C00CEA03069E4221D183004FF00F0C61
:102110000CFA03F7BC4305FA03FC4CEA040491F8FB
:1021200003C0BCF1280F05D100F1080C08FA0CF827
:10213000C2F8148091F803C0BCF1480F07D100F138
:10214000080C4FF0010808FA0CF8C2F81080401C87
:102150000828CED35460BDE8F0810000F0B50A46EF
:10216000002300240021002500F00046B6F1004FB6
:1021700002D11D4EF16901E01B4E7168C0F30345A9
:1021800083B200F44016B6F5401F08D121F070610B
:10219000154E766826F07066134F7E6012E000F4EC
:1021A0008016B6F5801F06D1032606FA05F4A14372
:1021B00041F0706106E0460D360103FA06F6B143C0
:1021C00041F0706122B1460D360103FA06F6314343
:1021D00000F00046B6F1004F02D1034EF16101E07C
:1021E000014E7160F0BD0000000001400246002079
:1021F00093680B400BB1012000E000207047416163
:1022000070470161704700BFFEE72DE9F0470546C2
:102210000F461646002426E0385DC11700EB117109
:10222000091101F13009385DC11700EB1171091175
:10223000A0EB0111303101F0FF08B9F1390F03DDD6
:1022400009F1070000F0FF09B8F1390F03DD08F1CB
:10225000070000F0FF0805F81490012000EB44008F
:1022600005F80080641CB442D6DB002005F8160097
:102270007200052329460120FFF7A2FCBDE8F08784
:1022800021B1028842F00102028004E002884FF688
:10229000FE731A400280704710B500F009F800F094
:1022A000A3F8A0200149088010BD000018000020FC
:1022B00008B50121480504F0B9FE0121082004F009
:1022C000C5FE4020ADF8000003208DF802001C2060
:1022D0008DF8030069460848FFF7B4FE8020ADF88A
:1022E000000003208DF802001C208DF803006946D1
:1022F0000148FFF7A7FE08BD000C01402DE9F0439F
:1023000085B004460D460026B1460427DFF8CC8090
:10231000A6884FF6C0700640684604F0B7FEDDF8A8
:1023200008802F48B8FBF0F01FFA80F946EA09064A
:10233000A68020884FF6FE7108402080002629499B
:10234000286888420CD828684000B8FBF0F087B2B3
:10235000042F00DA04273E4309F10100208427E01E
:10236000E8884BF6FF71884206D1286800EB4000F0
:10237000B8FBF0F087B209E0286800EBC00101EB80
:102380000010B8FBF0F087B247F48047C7F30B00AA
:1023900008B947F0010747F4004006434FF4967030
:1023A00009FB00F04FF47A7190FBF1F0401C20849F
:1023B000A683208840F00100208026884FF6F53063
:1023C0000640A8886989084306432680A889298988
:1023D0000843208105B0BDE8F083000000127A00B8
:1023E00040420F00A08601001FB50020ADF8040098
:1023F0004BF6FF70ADF806000A20ADF808004FF468
:102400008060ADF80A000001ADF80C0005480090AE
:1024100069460548FFF772FF01210348FFF730FFC7
:102420001FBD0000801A06000054004008B50121BD
:10243000082004F00BFE2020ADF8000010208DF8DD
:10244000030003208DF8020069461F48FFF7FAFDDC
:102450000121082004F0FAFD0120ADF800006946D2
:102460001948FFF7EFFD0121082004F0EFFD0220DD
:10247000ADF8000069461448FFF7E4FD012108208B
:1024800004F0E4FD4FF40050ADF8000069460E483A
:10249000FFF7D8FD0121082004F0D8FD4FF480405B
:1024A000ADF8000069460848FFF7CCFD0121202067
:1024B00004F0CCFD4FF40070ADF80000694603480D
:1024C000FFF7C0FD08BD0000000C014000140140F2
:1024D00010B5FFF7ABFF4FF480410D48FFF791FEB9
:1024E00020210B48FFF78DFE01210948FFF789FEE7
:1024F00002210748FFF785FE4FF400510448FFF71B
:1025000080FE4FF400710348FFF779FE10BD000014
:10251000000C01400014014088B0002578A005F0AF
:1025200045FC4FF480717D48FFF76BFE0020FFF7FC
:102530000BFB7BA005F03AFC08E07EA005F036FC22
:1025400007AA00214FF4FA6001F078FB80A183A074
:10255000FFF776FA0028F0D00120814981F8490080
:1025600020216E48FFF74DFE02216C48FFF749FE1F
:1025700001216A48FFF743FE7AA005F017FC00200E
:10258000FFF7AEF900BF05237BA27DA10020FFF776
:102590007BFA0028F7D00120714981F84A0000BF7A
:1025A000FFF7C0FB0028FBD07AA005F0FFFB7E48B8
:1025B000B0F800046FF30E007B49A1F80004084650
:1025C000B0F8000420F40040A1F800042021534892
:1025D000FFF717FE01215148FFF713FE02214F4874
:1025E000FFF70DFE71A1684605F0F0FB0523002200
:1025F00069460120FFF7E4FA81E06B48B0F8000477
:10260000C00BF0B16BA005F0D1FB00206649B1F81A
:102610000014C1F30E01644A505415461046B0F838
:1026200000046FF30E001146A1F800040846B0F84C
:10263000000420F40040A1F80004284606F032F916
:1026400004E007AA0021142001F0F8FA444890F8A9
:102650004800002853D00020414981F84A00FFF784
:102660005FF900BFFFF79CF90446002CFAD0042C58
:102670003DD120212948FFF7C4FD01212748FFF75C
:10268000C0FD20212548FFF7BAFD50A005F08EFBC4
:1026900000BF2FA131A0FFF7D3F90028F9D02021E6
:1026A0001E48FFF7AEFD02211C48FFF7AAFD0121DD
:1026B0001A48FFF7A4FD00BF05232FA230A1002078
:1026C000FFF7E2F90028F7D00120254981F84A00F8
:1026D00020211248FFF795FD01211048FFF791FDD9
:1026E00002210E48FFF78BFD40A005F05FFB00BF05
:1026F000FFF718FB0028FBD043A005F057FB7CE751
:102700000D0AD5FDD4DAC5E4D6C32045535038327E
:102710003636202E2E2E2E2E2E0D0A00000C0140B5
:10272000D2D1BFAAC6F4535441C4A3CABD2E2E2E83
:102730002E0A0000C1ACBDD377696669CAA7B0DCB8
:102740002CD5FDD4DAD6D8CAD42E2E2E0A000000FD
:10275000525354383838383800000000525354006F
:10276000C03F0020C1ACBDD377696669B3C9B9A6C3
:102770002E2E2E2E0A0000003730303000000000D0
:102780007777772E6368656E6764757273742E77DA
:102790006F726B00C1ACBDD3B7FECEF1C6F7B3C943
:1027A000B9A62E2E2E2E0A00B43A00203031304128
:1027B00030300000BDD3CADCB5BDB7FECEF1C6F7E0
:1027C000D6B8C1EE2E2E2E0A000000000D0AD5FD4F
:1027D000D4DAD6D8C1ACC8C8B5E3BACDB7FECEF10D
:1027E000C6F7202E2E2E2E2E2E0D0A000D0AD6D81C
:1027F000C1ACC8C8B5E3BACDB7FECEF1C6F7B3C910
:10280000B9A60D0A000000000D0AC5E4D6C3204594
:1028100053503832363620CDEAB1CF0D0A000000D1
:1028200000BFFEE730B505460C462246002128468B
:1028300000F026F830BD00000D480E490160014649
:10284000416000218160C160016141618161C161BC
:1028500001620163C162416207498163C1634FF450
:10286000D841016441640146044A11607047000088
:102870001C40002048454150644000205802002080
:102880002DE9F04103460C4617460FB9BDE8F0812B
:1028900003B9FBE70025002202E02D022543521C6C
:1028A000042AFAD3384603F0030C1946BCF1000F92
:1028B00008D0624603E001F8014B401E521C08B1EB
:1028C000042AF8D30E4601E020C6001F0428FBD2DC
:1028D000314602E001F8014B401E0028FAD100BF4A
:1028E000D4E7000010B5034B9A1E511E481E05F098
:1028F00061FE10BD2802002010B5044604EBC400A0
:1029000000EB04104FF6FF7101EA800005490880D2
:1029100005490C7104EB8400410004A005F046FA5F
:1029200010BD0000380400402C020020D5BCBFD5EB
:10293000B1C8A3BA256425250A000000704708B570
:102940004FF4C06000F08AF81D208DF800000020D0
:102950008DF8010002208DF8020001208DF803009F
:10296000684600F02DF808BD08B54FF4A06000F0EF
:1029700075F825208DF8000001208DF801008DF8F4
:1029800002008DF80300684600F01AF808BD08B58B
:102990004FF4C06000F062F808208DF800000120BC
:1029A0008DF801008DF802008DF80300684600F0F4
:1029B00007F80A208DF80000684600F001F808BD0D
:1029C00070B5002100230F22C47804B3154C24688D
:1029D00004F4E064C4F5E064210AC1F10403CA40D0
:1029E000447804FA03F184781440214309010E4C21
:1029F0000678A155047804F01F050124AC40057841
:102A00006D11AD0005F1E025C5F8004109E004783D
:102A100004F01F050124AC40044D0678761145F8FA
:102A2000264070BD0CED00E000E400E080E100E035
:102A300008B54FF4C06000F011F817208DF80000C1
:102A400001208DF8010002208DF8020001208DF890
:102A500003006846FFF7B4FF08BD000002490143C8
:102A6000024A1160704700000000FA050CED00E01A
:102A70007047000010B50348006810B101480068B5
:102A8000804710BD6C02002070B5044600F0C2F80B
:102A9000002048490870484908704849087048496A
:102AA0000860484908604849087048490870484922
:102AB0000870484908604849086048490860484922
:102AC0000870484800680A21B0FBF1F046490860E8
:102AD0004648006858B14648056845B1434806680D
:102AE00003E0761E002028602D1D002EF9D1002065
:102AF0004049086040490860404908604049086012
:102B000040490860404908604049086040490870F1
:102B100002F030FA02F02EFB204601F08BFB2088F9
:102B200000B170BD204601F0A5FF208800B1F8E794
:102B3000204601F0ABFF208800B1F2E7204602F00A
:102B40008FF8208800B1ECE7204602F043FA208895
:102B500000B1E6E7204602F093FC208800B1E0E7F0
:102B6000204602F0FDFF208800B1DAE7204601F0A0
:102B7000EDFE208800B1D4E7204601F0F7FC208864
:102B800000B1CEE7204604F053F8208800B1C8E732
:102B9000204602F029FF208800B1C2E7204604F059
:102BA000A3F8208800B1BCE701F06AFAFFF760FFE4
:102BB00000BFB6E78002002088020020D00200207B
:102BC000280300202C030020B6020020B7020020BA
:102BD000B8020020C4020020C8020020CC0200205D
:102BE000D8020020DC8B0008D4020020AC8B000847
:102BF000A88B000860020020640200206802002008
:102C00006C02002070020020740200207802002074
:102C1000060300200A4A1168002002E0002204C1D5
:102C2000401C084A12689042F8D3054A1268054BC6
:102C30001B6802EB8302121F034B1A6070470000EF
:102C4000A88B0008AC8B00083003002010B50024CE
:102C50002E480078012800D010BD00BFFDF788FA8B
:102C6000044600BF2A48007828B900BF2046FDF777
:102C700083FA00BFF0E726480078401E2449087018
:102C800008460078002805DD00BF2046FDF774FAED
:102C900000BFE1E71F480078002805DD00BF20469F
:102CA000FDF76AFA00BFD7E702F050F91A49087039
:102CB0000846007800EB4000184951F820001849F8
:102CC00008600846006817490968884205D100BFB6
:102CD0002046FDF751FA00BFBEE711480068D0F862
:102CE0009000401C0E490968C1F890000E48006829
:102CF000401C0D4908604FF080500C49086000BF2F
:102D00002046FDF739FA00BF00BFA5E78802002082
:102D100080020020D0020020B702002090C20020D4
:102D20002C03002028030020FC02002004ED00E01A
:102D300010B5002420480078002800DD10BD1F4891
:102D40000078002800DDF9E700BFFDF711FA04461E
:102D500000BF02F0FBF81A4908700846007800EB43
:102D60004000184951F820001749086008460068DB
:102D700016490968884205D100BF2046FDF7FCF9D5
:102D800000BFDBE710480068D0F89000401C0E49F7
:102D90000968C1F890000E480068401C0C490860A2
:102DA0004FF080500B49086000BF2046FDF7E4F962
:102DB00000BF00BFC2E7000080020020D002002058
:102DC000B702002090C200202C030020280300201E
:102DD000FC02002004ED00E070B5044600251A480E
:102DE0000078002803DD46F66250208070BD174849
:102DF0000078012803D045F689602080F6E7144862
:102E00000078FA2803DB45F209202080EEE700BFB6
:102E100000BFFDF7ADF9054600BFFEF701FB00BF9F
:102E20000B480078401C0A49087002F087FA00BF7E
:102E3000FEF710FB00BF2846FDF79EF900BF00BF5C
:102E40000020208000BFD1E78002002088020020FF
:102E5000D002002070B504460025234800780028E1
:102E600003DD46F66550208070BD204800780128BB
:102E700003D045F689602080F6E71D48007818B930
:102E800046F664502080EFE700BF00BFFDF770F901
:102E9000054600BFFEF7C4FA00BF15480078401E83
:102EA000134908700846007800280CDD00BFFEF7C3
:102EB000D1FA00BF2846FDF75FF900BF00BF46F614
:102EC00063502080D0E702F047FA00BFFEF7C2FA55
:102ED00000BF2846FDF750F900BF00BFFFF728FFED
:102EE0000020208000BFBFE7800200208802002071
:102EF000D002002010B5044612480078E8B902F06C
:102F000025F81149087008460078104908700E48E5
:102F1000007800EB40000E4951F820000D49086090
:102F2000084600680C490860012006490870FDF752
:102F3000CBFC43F69920208002E045F68A60208091
:102F400010BD000088020020B7020020B602002059
:102F500090C200202C030020280300202DE9F0411E
:102F600007464FF0000800BF00BFFDF701F980469B
:102F700000BFFEF755FA00BF0020474908604749E7
:102F80000880474908804749086047490860474921
:102F9000086047490860474908604749088100BF01
:102FA000FEF758FA00BF4046FDF7E6F800BF00BF45
:102FB00000BF00BFFDF7DCF8804600BFFEF730FA27
:102FC00000BF3E48046800BFFEF744FA00BF404619
:102FD000FDF7D2F800BF00BF26E000BF00BFFDF73D
:102FE000C7F8804600BFFEF71BFA00BF0020783408
:102FF000E063206420602063A061A082E0826062C0
:10300000A062FEF79BFA2062783C04F1640600207F
:10301000B081D4F8C04000BFFEF71CFA00BF4046A4
:10302000FDF7AAF800BF00BF002CD6D100BF00BF3B
:10303000FDF79EF8804600BFFEF7F2F900BF20487A
:10304000056800BFFEF706FA00BF4046FDF794F89A
:1030500000BF00BF16E000BF00BFFDF789F8804643
:1030600000BFFEF7DDF900BF05F120060020B081AA
:10307000AD6900BFFEF7EEF900BF4046FDF77CF8F2
:1030800000BF00BF002DE6D103F09AFC03F028FF3B
:1030900000203880BDE8F0819C02002096020020CC
:1030A000E6020020F80200200C0300201803002094
:1030B00084020020C802002084C2002000030020F7
:1030C000BC020020F8B5044600266946364800F0E8
:1030D00033FDBDF8000018B1BDF800002080F8BD38
:1030E0006A460021022000F0A9FDBDF8000018B1D9
:1030F000BDF800002080F2E700BF00BFFDF738F800
:10310000064600BFFEF78CF900BF00202749086083
:1031100000BFFEF79FF900BF3046FDF72DF800BF56
:1031200000BF00252248006822490968884205D965
:103130001F4800681F490968B0FBF1F525B91C4814
:1031400000680A21B0FBF1F56A460021284600F02C
:1031500075FD6946144800F0A5FABDF8000018B1E5
:10316000BDF800002080BAE700BF00BFFDF700F8FF
:10317000064600BFFEF754F900BF00200E49086064
:103180000A4800680D49086001200D49087000BF19
:10319000FEF760F900BF3046FCF7EEFF00BF00BF4E
:1031A0000020208000BF9AE7A0C50020E802002090
:1031B000DC8B0008C48B0008F8020020EC02002021
:1031C000F402002010B50348006810B101480068FF
:1031D000804710BD700200202DE9FF4F87B00446E4
:1031E0009046DDE91BA5DDE91496179F00200390AA
:1031F00095480078002805DD47F24A1028800BB07A
:10320000BDE8F08F1CB947F2AD102880F7E7B8F1A0
:10321000000F03D147F24F102880F0E71EB946F6A1
:103220002F602880EBE789480068874203D246F682
:1032300030602880E3E71698B84203D346F6316041
:103240002880DCE7B9F1200F03D346F273202880F1
:10325000D5E7B9F1000F06D17D48844203D046F28C
:1032600073202880CBE7B9F11F0F06D1794884423B
:1032700003D046F273202880C1E7204602F080FC8C
:10328000002028800AF0010090B10AF0020078B115
:1032900005960020069008E0002105980160059839
:1032A000001D05900698401C06900698B842F3D37E
:1032B000169806EB80000490CDE9007A324640462D
:1032C000049B0A9900F0D8FB0590C4F828800A985E
:1032D000E0620898206284F837900598206004988E
:1032E000A06019986065199818B95B480068A065D6
:1032F00001E01998A0651A9860606662A763A4F857
:103300003CA04FF0000B08E0002104F17C0040F8E5
:103310002B100BF1010000F0FF0BBBF1000FF3D0FD
:1033200004F16400189901F011FC204600F09EF8A9
:1033300000BF00BF00BFFCF71BFF039000BFFEF7FC
:103340006FF800BF45480078401C444908700846A3
:103350000078012801D101F0F1FF00BFFEF77AF8F3
:1033600000BF0398FCF708FF00BF00BF00BF94F840
:10337000370001F00BFE204601F044FF204602F02A
:10338000B5FB37480088401C35490880354800782F
:10339000012837D000BF00BF00BFFCF7E9FE039053
:1033A00000BFFEF73DF800BF2C480078401E2B49B7
:1033B000087008460078D0B901F0CEFF2A4800888E
:1033C00000280BDD00BFFEF745F800BF0398FCF7AF
:1033D000D3FE00BF00BF01F083FF11E000BFFEF786
:1033E00039F800BF0398FCF7C7FE00BF08E000BF34
:1033F000FEF730F800BF0398FCF7BEFE00BF00BF29
:1034000000BFFCE600BF00BF00BFFCF7B1FE0390A9
:1034100000BFFEF705F800BF10480078401E0F49B6
:1034200008700846007808B901F096FF00BFFEF763
:1034300011F800BF0398FCF79FFE00BF00BF00BF5C
:10344000FFF776FC00BFDAE680020020D88B000888
:10345000BCC10020F4C00020D4020020D002002013
:1034600004030020880200209402002010B50446C6
:103470000348006818B1204601490968884710BD13
:103480006002002070B504460D460026784800789A
:10349000002803DD47F24E10288070BD7548844235
:1034A00003D147F24C102880F7E77348844203D1D8
:1034B00047F24D102880F0E79CB900BF00BFFCF731
:1034C00057FE064600BFFDF7ABFF00BF6B48046820
:1034D00000BFFDF7BFFF00BF3046FCF74DFE00BF49
:1034E00000BF00BF00BF00BFFCF742FE064600BFA2
:1034F000FDF796FF00BF62480078401C60490870E5
:1035000008460078012801D101F018FF00BFFDF73F
:10351000A1FF00BF3046FCF72FFE00BF00BF00BF79
:1035200094F8360008282DD2DFE800F004090E10C8
:10353000080A0F11204601F0A5FE5EE05DE000BF25
:10354000204603F021FA58E000BF00BF00BF20462C
:1035500003F01AFA94F83400082810D2DFE800F0DB
:1035600004070508090A0B0600BF00BF08E000BFFA
:1035700000BF00BF00BF204601F039FC00E000BFE3
:1035800000BF3AE000BF00BF00BFFCF7F1FD0646F8
:1035900000BFFDF745FF00BF39480078401E38499D
:1035A000087008460078D0B901F0D6FE354800888A
:1035B00000280BDD00BFFDF74DFF00BF3046FCF7D4
:1035C000DBFD00BF00BF01F08BFE11E000BFFDF787
:1035D00041FF00BF3046FCF7CFFD00BF08E000BF51
:1035E000FDF738FF00BF3046FCF7C6FD00BF00BF47
:1035F00000BF46F62D6028804FE700BF04F164004D
:1036000001F082FA204600F041F8204602F086FAE6
:103610001D480088401E1C490880204602F0B0FA70
:10362000FF2084F8360000BF00BF00BFFCF7A0FDFC
:10363000064600BFFDF7F4FE00BF11480078401EAB
:103640000F4908700846007808B901F085FE00BFF0
:10365000FDF700FF00BF3046FCF78EFD00BF00BF46
:1036600000BF00202880FFF763FB00BF15E70000C4
:1036700080020020F4C00020BCC1002028030020EC
:10368000D0020020940200200403002010B504465C
:103690000348006818B1204601490968884710BDF1
:1036A000640200207FB504460D46002600BF00BF1F
:1036B000FCF75EFD064600BFFDF7B2FE00BF1CB181
:1036C0001748006884420CD100BFFDF7C3FE00BF5D
:1036D0003046FCF751FD00BF00BF47F2571028806D
:1036E0007FBD00BFFDF7B6FE00BF3046FCF744FDCE
:1036F00000BF00BF0B48007800280BDD00200090C1
:103700000190034602462146CDE90205064800F035
:1037100065FFE5E72946204602F0DEFB00BFDFE754
:1037200028030020800200205452455310B504465F
:103730000348006818B1204601490968884710BD50
:10374000680200202DE9F04780460E4614461D46CB
:103750004FF000098C480078002805DD46F2AE10D5
:1037600028800020BDE8F0871EB1B6F5004F02D1D9
:1037700000E000BF04E045F6256028800020F1E766
:1037800000BF0CB10020206000BF00BFFCF7F0FCC0
:10379000814600BFFDF744FE00BF7C480068406CD6
:1037A000B8B37A480068406C401E7849096848649C
:1037B00076480068476C1CB174480068006C206053
:1037C000FDF7BCFE71490968096C401A6F49096828
:1037D000C1F8A4006D480068D0F8A8006B490968DA
:1037E000D1F8A410884207D268480068D0F8A40035
:1037F00066490968C1F8A80000BFFDF72BFE00BFAD
:103800004846FCF7B9FC00BF00BF002028803846BE
:10381000A8E7FFE706F4004068B100BFFDF71AFE15
:1038200000BF4846FCF7A8FC00BF00BF46F2B0103E
:103830002880002096E75648007800280DDD00BF5C
:10384000FDF708FE00BF4846FCF796FC00BF00BF2E
:1038500046F663502880002084E700BF4C4800787B
:10386000401C4B49087008460078012801D101F03E
:1038700065FD00BFFDF7EEFD00BF4846FCF77CFC90
:1038800000BF00BF00BF434607220021084601F0E9
:10389000F3F900BF00BF00BFFCF76AFC814600BF20
:1038A000FDF7BEFD00BF3A480078401E3849087059
:1038B0000846007808B901F04FFD00BFFDF7CAFDCA
:1038C00000BF4846FCF758FC00BF00BF00BFFFF731
:1038D0002FFA00BF00BFFCF74BFC814600BFFDF78D
:1038E0009FFD00BF2948006890F8350020B10128ED
:1038F00026D0032834D12CE0FCB124480068006CA9
:103900002060FDF71BFE21490968096C401A1F4918
:103910000968C1F8A4001D480068D0F8A8001B4938
:103920000968D1F8A410884207D218480068D0F876
:10393000A40016490968C1F8A8000020288013E0F7
:103940001CB112480068006C206046F2A910288063
:103950000AE00CB10020206047F2D920288003E063
:1039600046F62E60288000BF00BF08480068476CFC
:1039700000BFFDF76FFD00BF4846FCF7FDFB00BF31
:1039800000BF3846EEE60000800200202803002039
:10399000D00200202DE9F04705460E4617461C468A
:1039A0004FF0000A32480078002804DD47F2591031
:1039B0002080BDE8F0871EB946F2D5202080F8E7C8
:1039C0001FB946F2D5202080F3E700BF00BFFCF707
:1039D000CFFB824600BFFDF723FD00BF0DB9254890
:1039E0000568286878B900BFFDF734FD00BF504670
:1039F000FCF7C2FB00BF00BF00203060386047F218
:103A000052102080D5E795F83C0000F0010078B90D
:103A100000BFFDF71FFD00BF5046FCF7ADFB00BF28
:103A200000BF00203060386047F254102080C0E7AB
:103A300000BFFDF70FFD00BF5046FCF79DFB00BF28
:103A400000BF4FF00008D5F8249003E009F1040905
:103A500008F10108D9F800000028F7D0C6F8008066
:103A6000A86BA0EB080038600020208000BFA0E712
:103A70008002002028030020F0B50446DDE9055649
:103A800002EB85004FF0807C071F3846C7F800C066
:103A9000071F38463C60DFF89CC0071F3846C7F850
:103AA00000C04FF0123C071F3846C7F800C04FF067
:103AB000033C071F3846C7F800C04FF0023C071F01
:103AC0003846C7F800C0071F38463B60071F384616
:103AD00039604FF0113C071F3846C7F800C04FF05F
:103AE000103C071F3846C7F800C04FF0093C071FBD
:103AF0003846C7F800C04FF0083C071F3846C7F8E3
:103B000000C04FF0073C071F3846C7F800C04FF011
:103B1000063C071F3846C7F800C04FF0053C071F9A
:103B20003846C7F800C04FF0043C071F3846C7F8B6
:103B300000C0F0BD556000087FB505460C46124830
:103B4000854203D147F25B1020807FBD0F4885423C
:103B500003D147F25C102080F7E70D480078002879
:103B60000BDD002000900190034602462946CDE976
:103B70000204084800F032FDE7E72146284602F03B
:103B800049FD00BFE1E70000F4C00020BCC10020F7
:103B9000800200205453555370B52448006810B17A
:103BA000224800688047FDF7C9FC044620480068A9
:103BB00020490968884215D01D480068D0F898004F
:103BC000201A1B490968C1F8940019480068D0F808
:103BD0009C0017490968D1F89410084414490968F1
:103BE000C1F89C0013480068C0F89840FDF7ECFB52
:103BF00005460F480068D0F8B400A84203D20C482C
:103C00000068C0F8B4500A480068D0F8B8000A4903
:103C10000968884205D20848006805490968C1F862
:103C2000B80000200449086070BD00007402002044
:103C3000280300202C030020CC0200202DE9F041B5
:103C400005460E46144600274D480078002804DD3E
:103C500047F275202080BDE8F0814A4800780028AE
:103C600003DD46F663502080F5E736B1022E05D01D
:103C7000042E0AD0082E09D101E000BF00BF1DB9F3
:103C800047F27E202080E6E704E003E045F6256069
:103C90002080E0E700BF00BF00BF00BFFCF768FA6C
:103CA000074600BFFDF7BCFB00BF36480078401C4C
:103CB0003449087008460078012801D101F03EFB24
:103CC00000BFFDF7C7FB00BF3846FCF755FA00BF41
:103CD00000BF00BF01202C49096881F83600234647
:103CE000324629462848006802F070FD2088F0B16D
:103CF00000BF00BF00BFFCF73BFA074600BFFDF75F
:103D00008FFB00BF1F480078401E1E490870084600
:103D1000007808B901F020FB00BFFDF79BFB00BF56
:103D20003846FCF729FA00BF00BF00BF93E71648EA
:103D3000006801F0A7FA00BF00BF00BFFCF718FA47
:103D4000074600BFFDF76CFB00BF0E480078401E21
:103D50000C4908700846007808B901F0FDFA00BF68
:103D6000FDF778FB00BF3846FCF706FA00BF00BF3E
:103D700000BFFEF7DDFF0020208000BF6BE70000E2
:103D800080020020D0020020280300202DE9FF5FE0
:103D900005460E4617469846DDE90EA40020009021
:103DA00081480078002804DD47F275202080BDE8B6
:103DB000FF9F7E480078002803DD46F66350208090
:103DC000F5E70AF00E0BBBF1000F09D0BBF1020FB3
:103DD00007D0BBF1040F10D0BBF1080F0ED101E0EA
:103DE00000BF00BFB8F1000F06D12FB926B91DB929
:103DF00047F27E202080DAE704E003E045F6256004
:103E00002080D4E700BF2AF01E0008B1012000E0A6
:103E1000002003900398012803D145F625602080F7
:103E2000C5E7CAF3001002900298C0B9B8F57A7FCE
:103E300003D347F27B202080B9E73B2F03DD47F215
:103E40007A202080B3E73B2E03DD47F279202080E3
:103E5000ADE7632D12DD47F278202080A7E742F21C
:103E60000F70864203DD47F2792020809FE7B5F589
:103E70007A7F03DB47F27820208098E74C48D0F81F
:103E800000904FF4FA70B0FBF9F0404400FB09F0E9
:103E90004FF47A71B0FBF1F14FF461606843C6EB07
:103EA000061200EB8200384400FB091001900198D3
:103EB000002873D000BF00BF00BFFCF759F9009085
:103EC00000BFFDF7ADFA00BF38480078401C374905
:103ED000087008460078012801D101F02FFA00BFD0
:103EE000FDF7B8FA00BF0098FCF746F900BF00BF25
:103EF00000BF01202F49096881F8360023465A4641
:103F00002C480199006802F061FC2088F0B100BFE4
:103F100000BF00BFFCF72CF9009000BFFDF780FA4E
:103F200000BF22480078401E2049087008460078EB
:103F300008B901F011FA00BFFDF78CFA00BF009834
:103F4000FCF71AF900BF00BF00BF30E7194800684E
:103F500001F098F900BF00BF00BFFCF709F900901D
:103F600000BFFDF75DFA00BF10480078401E0F4902
:103F700008700846007808B901F0EEF900BFFDF7B7
:103F800069FA00BF0098FCF7F7F800BF00BF00BF58
:103F9000FEF7CEFE0020208003E0FFE747F27E2000
:103FA000208000BF03E7000080020020D002002034
:103FB000DC8B00082803002010B586B000F01EF846
:103FC000FDF7BCFA044605A800210091CDE90114D3
:103FD00003900748007800EB4000064A02EB80019E
:103FE00000231A46044800F0F9FA06B010BD00009C
:103FF000B602002090C200205449434B10B503483C
:10400000006810B101480068804710BD78020020A8
:1040100010B5002400BF00BFFCF7AAF8044600BF9B
:10402000FDF7FEF900BF09480078401C07490870F9
:1040300000BFFDF70FFA00BF2046FCF79DF800BF58
:1040400000BFFFF7B9FFFEF701FE10BD80020020A0
:1040500001464A1E4FF0E0235A61084A106820F0DA
:104060007F4000BF10601A46126942F005021A61D3
:104070001A46126942F002021A61704720ED00E010
:10408000254A2649264A274A2749284A2848294AAC
:10409000294A2A4A2A4A2B482B482C482C4A2D4880
:1040A0002D4A2E482E4A2F482F4830483048314A52
:1040B000314A324A3248334A334A34483448354820
:1040C0003548364836483748374A384A384A394AF0
:1040D00039483A483A483B4A3B4A3C4A3C483D48C2
:1040E0003D483E493E483F4A3F4A404A404A414A8D
:1040F000414A424A4248434A434A44484448454A5E
:10410000454A4648464A474A47484848484800BF03
:1041100000BF00BF70470000208C0008888D000899
:10412000218C0008228C0008248C0008288C0008B0
:104130002C8C0008298C0008548C0008558C000831
:10414000568C0008588C00085A8C00085C8C0008BB
:104150005E8C0008608C0008808C0008828C00084F
:10416000848C0008868C0008888C00088A8C0008E3
:104170008C8C0008B88C0008B98C0008BA8C000838
:10418000BC8C0008BE8C0008BF8C0008C08C0008E6
:10419000C28C0008C48C0008C68C0008C88C0008BB
:1041A000CA8C0008CC8C0008FC8C0008FD8C000830
:1041B000FE8C0008FF8C0008008D0008028D0008AE
:1041C000048D00082C8D00082D8D00082E8D000810
:1041D0002F8D0008308D0008328D0008348D0008C6
:1041E000388D0008398D00083A8D00083B8D000895
:1041F0003C8D00083D8D00083E8D00083F8D000875
:10420000408D0008428D0008438D0008448D000851
:10421000468D0008488D0008498D00084C8D000827
:10422000808D0008818D0008828D0008848D000833
:10423000868D00080021034A1160034A1180018025
:1042400070470000A0020020A40200202DE9F04FDA
:1042500085B00446894692469B46DDF838800020AA
:10426000009000BF00BFFBF783FF009000BFFDF789
:10427000D7F800BFBAF1000F0AD0BAF1010F0DD084
:10428000BAF5004F05D06FF40040504460B906E025
:1042900000BF206A40EA0900206216E000BF206AE1
:1042A00020EA0900206210E000BFFDF7D3F800BF4C
:1042B0000098FBF761FF00BF00BF45F62560A8F836
:1042C0000000002005B0BDE8F08F00BFC4F824B0A6
:1042D00004F1080001900198008968B900BFFDF75A
:1042E000B9F800BF0098FBF747FF00BF00BF0020F0
:1042F000A8F80000206AE5E700BF71480078401C7C
:104300006F49087008460078012801D101F016F8BD
:1043100000BFFDF79FF800BF0098FBF72DFF00BF1F
:1043200000BF00BF01980768BD6889E07868029007
:1043300095F8880000F00F0003900398012821D021
:1043400002282ED0042802D0082836D10EE0206A98
:10435000D5F8801000EA0106D5F88000B04204D1FB
:104360005A463146284600F0AFF863E0206AD5F897
:10437000801000EA010626B15A463146284600F070
:10438000A3F857E0D5F88000216A20EA0106D5F8A5
:104390008000B04204D15A463146284600F094F8D5
:1043A00048E0D5F88000216A20EA010626B15A4685
:1043B0003146284600F088F83CE000BF00BF00BF4F
:1043C000FBF7D6FE009000BFFDF72AF800BF3C487F
:1043D0000078401E3A49087008460078D0B900F0CD
:1043E000BBFF3848008800280BDD00BFFDF732F81E
:1043F00000BF0098FBF7C0FE00BF00BF00F070FFD9
:1044000011E000BFFDF726F800BF0098FBF7B4FEEF
:1044100000BF08E000BFFDF71DF800BF0098FBF7E4
:10442000ABFE00BF00BF00BF43F6FF20A8F80000AE
:10443000002047E700BF029F0FB1BD6800E00025E4
:10444000002D7FF473AF00BF00BF00BFFBF790FEED
:10445000009000BFFCF7E4FF00BF19480078401E41
:10446000174908700846007808B900F075FF00BFCA
:10447000FCF7F0FF00BF0098FBF77EFE00BF00BF17
:1044800000BF0AF4004008B9FEF752FC00BF00BFAD
:10449000FBF76EFE009000BFFCF7C2FF00BF206A72
:1044A000049000BFFCF7D6FF00BF0098FBF764FE46
:1044B00000BF00BF0020A8F80000049802E7000039
:1044C000D00200209402002070B504460E46154626
:1044D00034342665002060702070E560A078343C9C
:1044E000082816D2DFE800F00405080907061011B5
:1044F00000BF00BF00BF0DE000BF204601F0DEFCA2
:10450000002084F8360005E000BF042084F836005F
:1045100000E000BF00BF204600F069FC70BD000055
:10452000002400BF1DE000BF00BFFBF721FE0446D2
:1045300000BFFCF775FF00BF0A480068401C09492E
:10454000086009480068401C0749086000BFFCF784
:1045500081FF00BF2046FBF70FFE00BF00BFFEF744
:1045600089FAE0E77C020020E802002010B58AB05A
:10457000044600200E4908600B2000210591CDE97A
:104580000704069108460B4909680B4A12680B4B51
:104590001B68CDE90132CDE903101F200023084A32
:1045A00008A100900C48FEF717FE0AB010BD0000ED
:1045B0007C020020848B0008808B00087C8B000824
:1045C0002145000875432F4F532D4949492049641F
:1045D0006C65205461736B00F4C000202DE9F84F26
:1045E00004460D4616461F46DDE90BABDDF8289064
:1045F000DDF834800020009000BF00BFFBF7B8FD5D
:10460000009000BFFCF70CFF00BF2C4800882C492D
:10461000098888423EDA29480088401C27490880DA
:10462000284800880988884203DA244800882549F8
:104630000880254800680460234800688560224897
:104640000068C6602048006807821F480068C0F8FC
:1046500014901D480068A0F818A01B480068C0F816
:104660001CB01948006840681749086001201749C4
:104670000881174808604860002000F087FC154852
:10468000007818B113480078134908700020A8F882
:10469000000008E011480088401C1049088044F2DE
:1046A0005360A8F8000000BFFCF7D4FE00BF0098DC
:1046B000FBF762FD00BF00BFBDE8F88F9402002049
:1046C000908B0008960200208C02002090C20020EF
:1046D000BCC10020B6020020B802002098020020D1
:1046E0003EB5594800680068584A811A904279D00E
:1046F0000FDC5749084400283ED056490844A8B169
:1047000055490844002860D05449084400286AD11B
:104710003FE053480844002850D05249084400283C
:1047200062D0514908440028F1D110E002A8464D5A
:1047300000902D68EB69444D2D682A8B424D2D6801
:104740006969414D2D68A868FFF780FD7AE002A9EC
:104750003D480068C0693C4DCDE900012D682B8BB8
:10476000394D2D682A8A384D2D68E968364D2D68F7
:10477000A86800F03BFC65E0334B1B68DA69324BFC
:104780001B68198B304B1B68986802AB00F084FEE5
:1047900058E002A92C480068C0692B4DCDE9000102
:1047A0002D682B8B284D2D682A8A274D2D68E968A6
:1047B000254D2D68A86801F04BFA43E022490968AD
:1047C000886802A901F088FB3CE01F4B1B68DA698E
:1047D0001D4B1B68198B1C4B1B68986802AB01F0C2
:1047E00045FC2FE007E02CE017490968886802A91A
:1047F00001F010FF26E01D49097801EB41011C4A38
:1048000002EB810000F0C6FD0F48006802AB0021FA
:10481000C269184801F02AFC17480068401E164972
:1048200008600846006858B9144800680860FCF73A
:1048300085FE044602AB22460021114801F016FC19
:1048400000E000BF00BF3EBD900200205449434B32
:10485000ADBAB2BE0DF90BFAF2F8F7FF0006F6FF9B
:1048600000F7FDF700FFEFFF03FE0FFEB802002088
:1048700090C20020D8C40020240300202003002080
:10488000A0C50020002700BF56E0002652E000BF70
:1048900000BFFBF76DFC074600BFFCF7C1FD00BF82
:1048A0002648008898B9002025490881086048609A
:1048B00000F07EFB00BFFCF7CDFD00BF3846FBF7E4
:1048C0005BFC00BF00BFFEF733FA012632E000BFF9
:1048D000FCF7C0FD00BF3846FBF74EFC00BF00BF31
:1048E000FCF72CFE0546FFF7FBFEFCF727FE441BFA
:1048F00014480068A04201D21248046000BF00BF03
:10490000FBF736FC074600BFFCF78AFD00BF0E48E8
:10491000006840680C49086008480088401E074944
:10492000088000BFFCF796FD00BF3846FBF724FC6B
:1049300000BF00BF002EAAD0A7E70000940200200D
:1049400090C200209C02002090020020F0B589B0A7
:1049500005460020314908803148006820B944F2FA
:104960005260288009B0F0BD2E480088022803DA82
:1049700044F254602880F5E700202B49086028485D
:1049800004682646203600270CE0284820600020D6
:10499000A060E06020826061208366602034203661
:1049A000781C87B21F4800888742EEDB203C1C48F9
:1049B000066866601E4806601E48066000201E49A4
:1049C00008801E4908801E48006818B944F25560E6
:1049D0002880C7E71B4800681B490968884203D242
:1049E00044F256602880BDE7032000210591CDE9FF
:1049F0000705069113480068144A1268104B1B689B
:104A0000CDE90301CDE9013200910B46104A11A115
:104A10001748FEF7E1FB00BFA4E700009802002062
:104A20008C8B0008908B00089C0200204E4F4E4556
:104A30008C020020900200209402002096020020A8
:104A4000988B0008A08B0008D88B00089C8B00086E
:104A50008548000875432F4F532D49494920495334
:104A600052205175657565205461736B000000001C
:104A7000BCC100200021034A1160034A118001805B
:104A800070470000A8020020AC02002070B501466B
:104A90001A4D2D681DB945F21E750D8070BD184D5B
:104AA0002D881DB945F21D750D80F7E7134D286857
:104AB0002A681032124D2D886D1EACB2002308E01A
:104AC0000260002545600581C560103010325D1C14
:104AD000ABB2A342F4DB0025056045600581C560EB
:104AE000064D2D68074E3560054D2D88B580002593
:104AF000F58035810D8000BFD0E70000BC8B000839
:104B0000B48B000884C2002010B5014648894B8947
:104B1000002B17DD0A680C4B1B6813600A4C4B68AE
:104B200023602346DB884C891B1B074CE38023460C
:104B30009B884C892344044CA38000234B818B81A8
:104B40000B604B6010BD000084C200200181002278
:104B50004281828102604260704700002DE9F0418D
:104B60000D46DDE90674B0F80AC0B0F80880C44507
:104B700005DB46F2935CA4F800C0BDE8F081DFF8E5
:104B8000DCC0BCF804C0BCF1000F04D145F21D7CB0
:104B9000A4F800C0F1E7DFF8C4C0DCF80010DFF8CB
:104BA000BC80D1F800C0C8F800C0C446BCF804C03E
:104BB000ACF1010CA8F804C0C446BCF806C00CF166
:104BC000010CA8F806C0C446BCF808C0B8F80680B6
:104BD000C44507DADFF884C0BCF806C0DFF87C8083
:104BE000A8F808C0B0F80AC0BCF1000F0AD10160F3
:104BF00041604FF0010CA0F80AC04FF0000CC1F862
:104C000000C017E003F0100CBCF1000F07D10668DC
:104C1000316001604FF0000CC1F800C004E0D0F832
:104C200004C0C1F800C04160B0F80AC00CF1010C2A
:104C3000A0F80AC0B0F80CC0B0F80A80C44503DA86
:104C4000B0F80AC0A0F80CC04D600A81CF604FF0E8
:104C5000000CA4F800C000BF8FE7000084C2002051
:104C60000021034A1160034A11800180704700004F
:104C7000B0020020B40200202DE9F04105460C46A8
:104C800016461F461548006880F834600020134916
:104C9000096881F8350039461048006800F00AFFBD
:104CA0006CB104F10808EC60012229460B48006849
:104CB00000F016F82946404600F066F806E00020AD
:104CC00006490968C88705490968086303480168F7
:104CD000204600F019F8BDE8F0810000280300200C
:104CE00010B5C287016300230AE000244C600C6009
:104CF0000C614C610C83CC61886020315C1CA3B2D8
:104D00009342F2DB10BD000030B548B14568C1F8F0
:104D1000C45000F10804226893681D6AC56113E05D
:104D200091F83450022D02D0072D08D103E007A5D9
:104D3000C1F8C45007E007A5C1F8C45003E008A5B6
:104D4000C1F8C45000BF00BF30BD00005461736B98
:104D5000205100005461736B2053656D000000000A
:104D60002000000030B507A5C1F8C45000F10804C8
:104D700022681AB193681D6AC56101E001A5C56189
:104D800030BD000020000000F0B58E6896F8375066
:104D900007893FB90127078100274F600F60016035
:104DA000416023E007897F1C0781026806E0946860
:104DB00094F83770AF4200DD02E05268002AF6D165
:104DC00000BF32B900274F6043680B6059604160F3
:104DD0000CE017682FB9116000270F604A6001606E
:104DE00004E013680B604A6059601160F0BD2DE962
:104DF000F0410446256BE68F0AE0D5F80C8008F1F7
:104E000008072946384600F00AF82035701E86B299
:104E1000002EF2DC0020E0872063BDE8F08110B5B1
:104E20000489012C03D100240460446011E00C6863
:104E300024B94A680024146002600AE04C6824B96E
:104E40000B6800245C60436003E00B684A685A60AA
:104E500013600489641E048100244C600C6010BD42
:104E60002DE9F84306460C4617469846089D94F8E7
:104E70003600082850D2DFE800F0040508090607CC
:104E80002B2C00BF00BF00BF47E000BF94F83400E8
:104E9000032807D143463A4621463046009500F0A4
:104EA0003FF803E0E765A4F86080256436B120464A
:104EB000FFF79DFF21463046FFF754FF204600F0E4
:104EC000FDFF00203434A070607004F8340924E041
:104ED00000BF94F83400032807D143463A462146E0
:104EE0003046009500F01CF803E0E765A4F8608008
:104EF0002564204601F048FD36B12046FFF777FFD4
:104F000021463046FFF72EFF04203434A0700020E5
:104F1000607004F8340900E000BF00BFBDE8F8830A
:104F2000F0B50446059E086BCD8F0AE0C768A7421E
:104F300004D1046142610383C66104E020306F1E26
:104F4000BDB2002DF2DC00BFF0BD000070B5002541
:104F5000074C03E005F12000C5B2241D206800289D
:104F6000F8D02068FBF70FF92844C5B2284670BD79
:104F70005C020020002004E00021034A42F82010D7
:104F8000401C0028F8D070475C02002030B5420970
:104F900000F01F030121C3F11F04A140034C54F88A
:104FA00022400C43014D45F8224030BD5C020020F8
:104FB00030B5420900F01F030121C3F11F04A140D5
:104FC000034C54F822408C43014D45F8224030BD3B
:104FD0005C0200200021034A1160034A1180018015
:104FE00070470000BC020020C00200202DE9F04FF5
:104FF00085B007468A4693461C460020029000BFB3
:1050000000BF00BFFBF7B4F8029000BFFCF708FA3E
:1050100000BF56480078401C544908700846007884
:10502000012801D100F08AF900BFFCF713FA00BF94
:105030000298FBF7A1F800BF00BF00BF07F1080608
:10504000308900284CD104F0100010B94FF000084E
:1050500001E04FF01008DDE90E0143465A46CDE964
:105060000001514607F12000FFF778FD00BF00BFA7
:1050700000BFFBF77DF8029000BFFCF7D1F900BF3D
:105080003A480078401E3949087008460078D0B97F
:1050900000F062F93648008800280BDD00BFFCF7FD
:1050A000D9F900BF0298FBF767F800BF00BF00F016
:1050B00017F911E000BFFCF7CDF900BF0298FBF72C
:1050C0005BF800BF08E000BFFCF7C4F900BF02981E
:1050D000FBF752F800BF00BF00BF05B0BDE8F08F7E
:1050E00004F4007008B1358900E00125D6F800907D
:1050F00011E0D9F808000390D9F8040004900E9844
:105100005B465246009038460399FFF7A9FEDDF84A
:105110001090681E85B2002DEBD100BF00BF00BF0C
:10512000FBF726F8029000BFFCF77AF900BF0F48A2
:105130000078401E0D4908700846007808B900F054
:105140000BF900BFFCF786F900BF0298FBF714F8D3
:1051500000BF00BF00BF04F4004008B9FDF7E8FD40
:1051600000210F98018000BFB7E70000D0020020A7
:105170009402002000210AE001EB4102054B03EB01
:10518000820000220281026042604A1CD1B22029C2
:10519000F2D3704790C2002010B5044694F837004F
:1051A000FFF7F4FE94F8370005490978884203D1E7
:1051B000204600F027F802E0204600F003F810BD7A
:1051C000B602002010B590F8373003EB43030C4CC7
:1051D00004EB83010B893BB901230B810023C360DE
:1051E00003610860486009E00B895B1C0B810B6858
:1051F000C360002303610A681061086010BD0000ED
:1052000090C2002010B590F8373003EB43030B4CED
:1052100004EB83010B893BB901230B810023C3609D
:1052200003610860486008E00B895B1C0B81002368
:10523000C3604A680261D060486010BD90C200201F
:1052400010B501460C8924B1012C03D0022C0CD1DD
:1052500001E000BF14E008684A6802610024C460ED
:105260001461D0600A6048600AE008684A68C36850
:1052700000241C61C4600261D0600B60486000BF04
:1052800000BF10BD2DE9F041054695F8370000EB51
:105290004000124901EB80042F69EE6887B946B9D6
:1052A000002020812060606095F83700FFF780FEC5
:1052B0000EE02089401E208100203061266007E03A
:1052C0002089401E2081FE600EB9676000E03761D2
:1052D00000202861E860BDE8F081000090C2002055
:1052E00010B5002400BFFAF743FF044600BF0020BA
:1052F0000D4908700D480E49086008460068D0F84E
:105300009000401C0968C1F890000A480068401CE1
:10531000084908604FF080500749086000BF2046E8
:10532000FAF72AFF00BF10BDB7020020BCC1002061
:105330002C030020FC02002004ED00E010B504481E
:105340000078012803D1FCF7F9F80249086010BD84
:10535000D0020020C402002010B50A48007880B9AD
:10536000FCF7ECF808490968441A08480068A042AC
:1053700001D20648046006480068A04201D20448F1
:10538000046010BDD0020020C4020020C80200202A
:10539000CC02002070B5054600263548007801286B
:1053A00000D070BD00BF00BFFAF7E2FE064600BFA6
:1053B000FCF736F800BF2C684CB900BFFCF74AF880
:1053C00000BF3046FAF7D8FE00BF00BFE9E7294822
:1053D000844209D100BFFCF73DF800BF3046FAF720
:1053E000CBFE00BF00BFDCE7A06D10B1A06D401E7A
:1053F000A065A06D48B100BFFCF72CF800BF304697
:10540000FAF7BAFE00BF00BFCBE72889022809DA05
:1054100000BFFCF71FF800BF3046FAF7ADFE00BF33
:1054200000BFBEE714480078002809DD00BFFCF784
:1054300011F800BF3046FAF79FFE00BF00BFB0E78B
:105440002846FFF7FDFE2C68606D18B90B48006810
:10545000A06501E0606DA06500BFFBF7FBFF00BF2A
:105460003046FAF789FE00BF00BF00BF99E7000091
:10547000D8020020F4C00020D0020020D402002076
:105480000021034A1160034A118001807047000027
:10549000DC020020E00200202DE9FF5F0446884680
:1054A00091461D460020019000BF00BFFAF760FE44
:1054B000019000BFFBF7B4FF00BF04F10807388973
:1054C000002857D10420012804D0022816D004282F
:1054D0003AD127E0206AFF280FD100BFFBF7BAFFBF
:1054E00000BF0198FAF748FE00BF00BF46F6C5505E
:1054F0002880002004B0BDE8F09F26E04FF6FF7141
:10550000206A88420DD100BFFBF7A4FF00BF0198BD
:10551000FAF732FE00BF00BF46F6C55028800020D3
:10552000E8E712E0206A401C68B900BFFBF792FF71
:1055300000BF0198FAF720FE00BF00BF46F6C55035
:1055400028800020D6E700E000BF00BF206A401C92
:105550002062D4F820A0C4F8249000BFFBF77AFFA3
:1055600000BF0198FAF708FE00BF00BF00202880A6
:105570005046BFE700BF2D480078401C2B490870FB
:1055800008460078012801D1FFF7D8FE00BFFBF7DD
:1055900061FF00BF0198FAF7EFFD00BF00BF00BF39
:1055A00008F4007008B13E8900E00126D7F800B089
:1055B00011E0DBF808000290DBF804000390002300
:1055C0001A46CDF8009020460299FFF749FCDDF815
:1055D0000CB0701E86B2002EEBD1D4F820A000BF14
:1055E00000BF00BFFAF7C4FD019000BFFBF718FF32
:1055F00000BF0E480078401E0C490870084600782D
:1056000008B9FFF7A9FE00BFFBF724FF00BF019810
:10561000FAF7B2FD00BF00BF00BF08F4004008B9B0
:10562000FDF786FB00202880504663E7D00200206B
:1056300086B00020009000BF06E0D9490968480004
:1056400001AA0021FEF7FAFAD64800780128F4D121
:1056500001A8FDF783FC0027D3480068D0490968FA
:10566000884205D9D0480068CD490968B0FBF1F7F8
:1056700027B9CD4800680A21B0FBF1F78EE1FBF7AE
:105680005DFF8246FBF7B6FEC849086000BF00BF59
:10569000FAF76EFD009000BFFBF7C2FE00BFC448E2
:1056A0000068C44908600020C149086000BFFBF7DA
:1056B000D1FE00BF0098FAF75FFD00BF00BFBE48F3
:1056C0000068BC490968884248D9BB480068BB49A2
:1056D000884205D242F2107003900120029023E02C
:1056E000B5480068B649884205D24FF47A700390F5
:1056F0000A20029018E0B0480068B249884203D2FC
:105700006420039002900FE0AB480068AE498842E5
:1057100005D20A2003904FF47A70029004E0012031
:10572000039042F210700290A34801680298B1FB06
:10573000F0F9A049039809684843B0FBF9F042F238
:105740001071081AA1490880A14800880988884278
:1057500008DA9E4800889E49088003E042F21070F3
:105760009A490880FDF72EFD002500BF00BFFAF71B
:10577000FFFC009000BFFBF753FE00BF9548046894
:1057800000BFFBF767FE00BF0098FAF7F5FC00BF0B
:1057900000BF72E000BF00BF00BFFAF7E9FC009055
:1057A00000BFFBF73DFE00BF8B480078401C8A49D4
:1057B000087008460078012801D1FFF7BFFD00BF3F
:1057C000FBF748FE00BF0098FAF7D6FC00BF00BF09
:1057D00000BF54F89C0F6060002044F89C0900BF93
:1057E00000BF00BFFAF7C4FC009000BFFBF718FE33
:1057F00000BF79480078401E774908700846007855
:10580000D0B9FFF7A9FD7548008800280BDD00BF5F
:10581000FBF720FE00BF0098FAF7AEFC00BF00BF08
:10582000FFF75EFD11E000BFFBF714FE00BF00981C
:10583000FAF7A2FC00BF08E000BFFBF70BFE00BFB9
:105840000098FAF799FC00BF00BF00BFD4F8A00091
:10585000054400BF00BFFAF78BFC009000BFFBF7C8
:10586000DFFD00BFD4F8C04000BFFBF7F3FD00BF71
:105870000098FAF781FC00BF00BF002C8AD145B325
:105880004E48854205D242F2107005904FF0010B50
:105890001BE04B48854205D24FF47A7005904FF0DB
:1058A0000A0B12E04748854203D2642005908346E4
:1058B0000BE04548854204D20A2005904FF47A7BDC
:1058C00003E00120059042F2107BB5FBFBF0049051
:1058D00003E0002005900120049000BF00BFFAF70C
:1058E00047FC009000BFFBF79BFD00BF39480468F0
:1058F00000BFFBF7AFFD00BF0098FAF73DFC00BF0B
:1059000000BF2FE0D4F8A000059948430499B0FBEC
:10591000F1F086B242F21070864200D90646A4F831
:105920008C60B4F88E00B04201DAA4F88E6001AB4E
:1059300004F1AC02111D2046FEF72CF800BF00BF99
:10594000FAF716FC009000BFFBF76AFD00BFD4F821
:10595000C04000BFFBF77EFD00BF0098FAF70CFCCB
:1059600000BF00BF002CCDD11D480078012805D113
:1059700000201B49087001A8FDF7F0FAFBF7DEFDD7
:10598000A0EB0A0817480068404502D21548C0F845
:10599000008001AA00213846FEF750F96FE60000AA
:1059A000C48B0008F4020020DC8B00088402002075
:1059B000E8020020F0020020EC020020801A06001D
:1059C00000093D00005A62020084D717E40200205B
:1059D000E602002000030020D002002094020020F4
:1059E000E2020020F802002010B58AB00446002030
:1059F0001F4908601F4908601F4908601F49087057
:105A00001F4908701F48006820B946F62B602080A7
:105A10000AB010BD1C4800681C490968884203D2BE
:105A200046F62C602080F3E7194800781F2803D33E
:105A300046F62A602080EBE7032000210591CDE99E
:105A400007040691084610490968124A12680D4B6E
:105A50001B68CDE90132CDE903100D480078002321
:105A60000D4A0EA100901248FDF7B6FB00BFCFE72C
:105A7000E8020020F0020020EC020020F4020020E6
:105A8000E2020020C88B0008D08B0008D88B0008E9
:105A9000C08B0008CC8B00083156000875432F4F8F
:105AA000532D4949492053746174205461736B002C
:105AB00010C4002038B504460D4685B16B4602225D
:105AC0002946204600F082FEBDF8000018B90320E8
:105AD00084F8360006E0022084F8360002E0022056
