:020000040800F2
:1000000070CA002045010008512900080B22000891
:1000100021280008E5120008D17D0008000000003A
:10002000000000000000000000000000EB7200086B
:100030008D17000800000000EB08000825400008AC
:100040005F0100085F0100085F0100085F01000810
:100050005F0100085F0100085F0100085F01000800
:100060006D1D00085F010008AD1D00085F0100085C
:100070005F0100085F0100085F0100085F010008E0
:100080005F0100085F0100084D0900085F010008DA
:100090005F0100085F0100085F010008F11D000812
:1000A0005F0100084D7500085F0100085F0100084E
:1000B0005F010008797500085F0100085F01000812
:1000C0005F0100085F0100085F0100085F01000890
:1000D0005F0100085F0100086D790008C179000820
:1000E0005F0100085F0100085F0100085F01000870
:1000F0005F0100085F0100085F0100085F01000860
:100100005F0100085F0100085F0100085F0100084F
:100110005F0100085F0100085F0100085F0100083F
:100120005F0100085F0100085F0100085F0100082F
:10013000DFF80CD000F028FB00480047ED840008F1
:1001400070CA00200648804706480047FEE7FEE7E1
:10015000FEE7FEE7FEE7FEE7FEE7FEE7FEE7FEE777
:10016000D57300083101000872B6704762B6704757
:10017000EFF3108072B6704780F31088704730BF7D
:10018000704720BF7047B0FA80F0704790FAA0F037
:10019000B0FA80F0704790FAA0F07047D2B201E058
:1001A00000F8012B491EFBD270470022F6E710B57C
:1001B00013460A4604461946FFF7F0FF204610BDD5
:1001C00030B505462A460B4612F8010B13F8014BD1
:1001D00008B1A042F8D01CB1002802D06D1CF1E794
:1001E000284630BD70B5064607F018FE046805467F
:1001F0000A220021304600F0FAF92C6070BDF0B4FC
:1002000080EA0102D40F4200B2EB410F02D2024653
:10021000084611464A0042D0C30DDDB2C1F3C752B1
:10022000AD1A202D35DAC1F3160141F4000204B1F4
:100230005242C5F1200602FA06F12A411044B3EBFE
:10024000D05F23D0C4B1012DA0EBC35009DCF0BCBA
:100250004FF0004202EAC352DBB200F5000000F0AA
:1002600007BA400000F1807000EBC350A0F180702D
:1002700040EAD170490009E0490841EAC071A0EBA9
:10028000C35000F50000400800EBC350F0BC00F084
:10029000E6B96142012202EB4101001BF6E7F0BC26
:1002A000704781F00041AAE780F00040A7E780EAAC
:1002B000010210B502F00043400022D04A001FD0D6
:1002C000010E01EB1261C0F35600C2F3560240F476
:1002D000000042F40002A0FB022000047F39140455
:1002E00000D0401C50EA124001D44000491EC2B266
:1002F0000C0604EBD010401C4008802A02D003E01A
:10030000002010BD20F00100002900DA0020184371
:1003100010BD30B480EA010202F0004530F0004226
:1003200021F0004013D090B1C30DD40DC2F31601DB
:10033000C0F31600E41A41F4000140F400027D34D9
:10034000914201D3641C00E04900002C02DA30BC69
:10035000002070474FF400000023914201D3891A16
:10036000034340084FEA4101F7D151B1914202D114
:100370004FF0004105E002D24FF0010101E06FF0C3
:10038000010103EBC450284430BC00F068B92DE9EA
:10039000FE4F81EA030404F0004421F00041009480
:1003A0004FF0000B23F0004350EA01045ED052EA04
:1003B00003045BD0C3F30A54C1F30A552C44A4F2DE
:1003C000F3340194A0FB0254C1F3130141F48011F2
:1003D000C3F3130343F4801301FB024400FB034EF9
:1003E000840A970A44EA815447EA8357A4FB0768C2
:1003F00002958D0A05FB07854FEA932C04FB0C54EC
:100400002705029D4FEA065847EA1637B5EB08055F
:100410006EEB070C870E920E47EA811742EA8312B1
:10042000A7FB0201B6EB0B0164EB00042B0D43EAC2
:100430000C335E1844EB1C50DA465146E7FB0201D0
:10044000C5F313044FEA0B3343EA14534FEA043263
:10045000019C43EA0603A4F10C040294009CCDE93C
:1004600000B400F042F903B0BDE8F08F002001466F
:10047000F9E796230022114600F0FAB80EB5C10F35
:1004800080EAE0700844CA07002140F233438DE857
:100490000E000A460B4600F028F903B000BD00F03C
:1004A000004220F00040C10DC0F3160040F40000EF
:1004B0007F2901DA00207047962903DCC1F19601FB
:1004C000C84001E096398840002AF4D04042704785
:1004D00070B5C1F30A5201F000450024C1F31301C5
:1004E00040F2FF3341F480119A4201DA002070BDDE
:1004F00040F233439A42A2F2334203DC524200F00C
:1005000066F800E090402C43F1D0404270BD00F00E
:10051000004230F000400AD0C10D01F56071C0F317
:10052000160042EA0151C2084007114370470020FB
:100530000146704701F0004330B421F0004150EA19
:10054000010206D00A0DA2F56072C1F31301002A60
:1005500002DC30BC00207047440F44EAC104C100F3
:10056000E01830BC00EBC25000F079B82DE9F05F24
:100570000546002092469B46884606468146402412
:100580001BE0284641464746224600F020F85346E5
:100590005A46C01A914110D311461846224600F01F
:1005A00005F92D1A67EB01084F462246012000216C
:1005B00000F0FCF817EB00094E41201EA4F10104E5
:1005C000DFDC484631462A464346BDE8F09F202AF4
:1005D00004DB203A21FA02F00021704721FA02F3ED
:1005E000D040C2F1200291400843194670472DE9DE
:1005F000F04791460F4680460446002614F8015BFA
:100600002DB100F0E3F80068405DC007F6D12B2D56
:1006100002D02D2D18D0641E4A463946204600F0DF
:10062000D9F827B13968A14201D1C7F80080710516
:100630004FF002040BD54042002803DD07F0EEFB2B
:100640000460A007BDE8F08746F48066E4E7002870
:10065000F8DA07F0E3FB04606FF00040F2E70029EE
:10066000A8BF7047401C490008BF20F00100704738
:1006700010B4B0FA80FC00FA0CF050EA010404BF98
:1006800010BC704749B1CCF1200421FA04F411FAEE
:100690000CF118BF012121430843A3EB0C01CB1D32
:1006A0004FEA00614FEA102042BF002010BC7047A3
:1006B00000EBC35010440029A4BF10BC7047401C7D
:1006C000490008BF20F0010010BC704710B5141E8F
:1006D00073F1000408DA401C41F1000192185B41FB
:1006E0001A4301D120F0010010BD2DE9F04D9246D2
:1006F0009B4611B1B1FA81F202E0B0FA80F22032E9
:10070000904600F053F804460F4640EA0A0041EADA
:100710000B0153465A46084313D0114653EA0100D1
:1007200019D0C8F140025046FFF751FF05460E466A
:1007300050465946424600F039F8084305D001209A
:1007400004E020463946BDE8F08D0020054346EA26
:10075000E0762C4337430A986305E40AA0EB0800CF
:100760000022FD0A44EA47540A3002D5002001461F
:10077000E9E7010510196941DDE9084500196941FA
:10078000BDE8F04DA2E70000064C074D06E0E0682A
:1007900040F0010394E8070098471034AC42F6D3C8
:1007A000FFF7CAFC688E0008888E0008202A04DB48
:1007B000203A00FA02F1002070479140C2F1200374
:1007C00020FA03F319439040704700000048704737
:1007D000648E00082DE9F05F8246007800271546F8
:1007E0008B460AF10104B946302801D09DB113E0CF
:1007F00014F8010B0127782803D0582801D045B1FF
:100800000AE00DB1102D07D10027102514F8010BB7
:1008100002E0082500E00A250026B0460EE005FBB0
:10082000080005FB06F1012701EB10461FFA80F8CE
:10083000B6F5803F00D3B94614F8010B294600F005
:1008400018F80028EBDABBF1000F05D00FB1641ED9
:1008500000E05446CBF80040B9F1000F06D007F095
:10086000DDFA02210160C81EBDE8F09F48EA06409B
:10087000FAE73A2800D2303820F02002412A01D38A
:10088000A2F13700884201D34FF0FF30704730B5F6
:100890008C1810F8012B12F00F0301D110F8013B56
:1008A000120906D110F8012B03E010F8015B01F8E2
:1008B000015B5B1EF9D101E001F8013B521EFBD147
:1008C000A142E6D3002030BD18484FF0FF0101706F
:1008D000002080F309881648016881F308881548CC
:1008E0004FF08051016062B6FEE772B6EFF3098007
:1008F00028B1203880E8F00F0F490968086000B57A
:100900000E4880475DF804EB0D480E490A780270E6
:1009100009480D490A680260106890E8F00F20301D
:1009200080F309884EF0040E62B6704722ED00E0B5
:100930004803002004ED00E040030020AD3B000828
:10094000CE020020CF0200204403002010B54FF457
:100950000871084800F030F8012804D1054800F07B
:1009600027F8054908804FF40871024800F006F89E
:1009700010BD0000002801402800002000220A12BB
:10098000D3430360704721B1826842F00102826064
:1009900003E0826822F00102826070470146002075
:1009A0008A6802F004020AB1012000E000207047CA
:1009B0000146C86C80B2704770B502460020002323
:1009C00000240B125568CEB205EA060415681D40D6
:1009D00015B10CB1012000E0002070BD01460020DF
:1009E0008A6802F008020AB1012000E00020704786
:1009F00010B50023CBB21AB144681C43446002E036
:100A000044689C43446010BD30B50246002000237A
:100A100050680F4C20400D790C6844EA05242043AF
:100A2000506090680B4C2040D1E902542C434D7922
:100A300044EA450420439060D06A20F470000C7CA6
:100A4000641EE4B2234340EA0350D06230BD00008C
:100A5000FFFEF0FFFDF7F1FF08B54FF4C06002F0B4
:100A600007F812208DF8000001208DF801008DF8A4
:100A700002008DF80300684601F0ACFF08BDF0B538
:100A800004460D4600200021092D11DDE068A5F186
:100A90000A0606EB4607072606FA07F18843A5F182
:100AA0000A0606EB460603FA06F10843E0600CE08E
:100AB000206905EB4507072606FA07F1884305EB91
:100AC000450603FA06F108432061072A0FDA606B36
:100AD000561E06EB86071F2606FA07F18843561EA8
:100AE00006EB860605FA06F10843606322E00D2A4C
:100AF0000FDA206BD61F06EB86071F2606FA07F1D2
:100B00008843D61F06EB860605FA06F108432063E4
:100B100010E0E06AA2F10D0606EB86071F2606FA32
:100B200007F18843A2F10D0606EB860605FA06F1E9
:100B30000843E062F0BD816841F0080181607047C0
:100B400021B1826842F4A002826003E0826822F44C
:100B5000A00282607047816841F0040181607047A3
:100B600008B50121102006F07BFA0220ADF8000044
:100B700000208DF803006946014801F065FA08BDC0
:100B80000010014010B5FFF7EBFF00F003F8FFF78E
:100B900063FF10BD00B585B00121880206F060FA40
:100BA000002000908DF8040001208DF805004FF41E
:100BB000602002900020039001208DF8100069460B
:100BC0001748FFF721FF4FF4404006F02DFA0523A8
:100BD00001220B211248FFF752FF01224FF4087146
:100BE0000F48FFF705FF01210D48FFF7CCFE0C4829
:100BF000FFF7A1FF00BF0A48FFF7F0FE0028FAD177
:100C00000748FFF7A8FF00BF0548FFF7C7FE002809
:100C1000FAD101210248FFF793FF05B000BD0000A3
:100C20000028014010B500F02BF800F001F810BDCD
:100C30000EB50121C80206F013FA40F6A970ADF80E
:100C400004004720ADF800000020ADF80600ADF824
:100C500002008DF808006946084806F0C1FD012130
:100C6000064806F0C3FC01221146044806F0E1FCE8
:100C70000021024806F0C0FC0EBD0000002C01401F
:100C800008B54FF4E06001F0F3FE19208DF8000084
:100C900000208DF8010003208DF8020001208DF85E
:100CA0000300684601F096FE08BD000008B501216A
:100CB000102006F0D5F94020ADF8000004208DF892
:100CC00003006946014801F0BFF908BD001001406A
:100CD00010B5FFF7EBFF00F049F800F001F810BD88
:100CE00000B587B00121480306F0BAF94FF6FE704F
:100CF000ADF808004720ADF804000020ADF80A0068
:100D0000ADF806008DF80C0001A9174806F068FD43
:100D10000020ADF81000ADF812000120ADF814006D
:100D20000020ADF81600ADF8180004A90E4806F032
:100D3000E8FC50210C4806F022FD04210A4806F088
:100D400030FD8021084806F023FD012202210648DB
:100D500006F06FFC0221044806F04BFC012102481A
:100D600006F04AFC07B000BD0034014008B54FF45E
:100D7000E06001F07DFE2E208DF8000000208DF84F
:100D8000010003208DF8020001208DF80300684661
:100D900001F020FE08BD000070B58AB0064600F0E4
:100DA0003FF900F0A1FA00F032F90446514800681A
:100DB000B4FBF0F5284603F055F901F03DFD09A814
:100DC00002F08AF900F0FEFA09A803210022059238
:100DD000CDE90621089005204FF400713322464BDF
:100DE000CDE90132CDE9031001200023434A44A19B
:100DF0000090464802F0FAF909A803210022059262
:100E0000CDE90621089005204FF400713322404BB4
:100E1000CDE90132CDE90310022000233D4A3EA175
:100E20000090404802F0E2F909A80321002205924F
:100E3000CDE90621089005204FF4007133223A4B8A
:100E4000CDE90132CDE9031003200023374A38A150
:100E500000903A4802F0CAF909A80321002205923D
:100E6000CDE90621089005204FF400713322344B60
:100E7000CDE90132CDE9031003200023314A32A12C
:100E80000090344802F0B2F909A80321002205922B
:100E9000CDE90621089005204FF4007133222E4B36
:100EA000CDE90132CDE90310032000232B4A2CA108
:100EB00000902E4802F09AF909A803210022059219
:100EC000CDE90621089005204FF400713322284B0C
:100ED000CDE90132CDE9031003200023254A26A1E4
:100EE0000090284802F082F909A9274802F0D4FAB4
:100EF0000AB070BD308C0008CC0A00208D0F0008AD
:100F0000417070205461736B205F31001C0400201D
:100F1000CC120020B10F0008417070205461736B37
:100F2000205F3200E4040020CC1A0020C70F000824
:100F3000417070205461736B205F3300AC0500205A
:100F4000CC220020D70F0008417070205461736BD1
:100F5000205F340074060020CC2A0020E90F00082E
:100F6000417070205461736B205F35003C07002096
:100F7000CC320020FF0F0008417070205461736B69
:100F8000205F3600040800205403002008B50BE061
:100F90006A4600214FF4FA6002F05AFE202103480D
:100FA00001F02FF901F0BAFAF2E70000000C01405D
:100FB00008B507E06A46002141F2883002F048FE99
:100FC00007F072FBF6E708B504E06A460021C82086
:100FD00002F03EFEF9E708B505E06A4600214FF44D
:100FE000FA6002F035FEF8E708B507E001F07AFC98
:100FF0006A4600214FF4FA6002F02AFEF6E708B5CF
:1010000004E06A460021142002F022FEF9E700B550
:1010100085B0684606F044F8019805B000BD0000B0
:1010200010B506F039FD06F0C1F8FFF751FE00F0EB
:1010300021FF00F0B5FF01F04DFA01F02FF900F0AB
:10104000A7FBFFF79FFD00F0CBFA00F0E5FC06F0F0
:1010500022FCFFF7E7FD02A006F0BCFE10BD000079
:10106000B3F5CABCBBAFCDEAB3C92E2E2E0A000021
:101070002DE9F04FA1B00024A1468D4800783A2810
:101080007ED18B4840783828FAD10AE08848005D44
:1010900001A90855601CC4B286480078A04200D15E
:1010A00000E0F3E700BF84A006F094FE12E001A880
:1010B00010F8091085A006F08DFE09F1010000F07E
:1010C000FF097C480078401E7A490870084600787D
:1010D00000B900E0EBE700BF7EA006F07BFE8021B8
:1010E0007348FFF762F89DF8590007F0E1F805032F
:1010F0009DF85A0007F0DCF805EB00259DF85B0031
:1011000007F0D6F805EB00159DF85C0007F0D0F865
:101110002844714988809DF85D0007F0C9F80503EF
:101120009DF85E0007F0C4F805EB00259DF85F0010
:1011300007F0BEF805EB00159DF8600007F0B8F861
:101140002844654908809DF8610007F0B1F805035F
:101150009DF8620007F0ACF805EB00259DF86300F0
:1011600007F0A6F805EB00159DF8640007F0A0F85D
:101170002844594948809DF8660007F099F800E036
:1011800093E005469DF8650007F092F805EB001026
:101190002838514988719DF8680007F089F805469C
:1011A0009DF8670007F084F805EB001028384A49DD
:1011B000C8719DF86A0007F07BF805469DF8690044
:1011C00007F076F805EB00102838434908729DF8BF
:1011D0006C0007F06DF805469DF86B0007F068F8A5
:1011E00005EB001028383C4948729DF86D0007F067
:1011F0005FF805039DF86E0007F05AF805EB00252F
:101200009DF86F0007F054F805EB00159DF870008D
:1012100007F04EF82844304948819DF8760007F0E1
:1012200047F805039DF8770007F042F805EB002525
:101230009DF8780007F03CF805EB00159DF8790063
:1012400007F036F82844244988819DF87A0007F091
:101250002FF805039DF87B0007F02AF805EB002521
:101260009DF87C0007F024F805EB00159DF87D0043
:1012700007F01EF828441849C8819DF87F0007F040
:1012800017F883469DF87E0007F012F80BEB001A62
:101290005046FFF7F3F80746104A114BFFF777F86F
:1012A0000546FFF747F90C49086121B0BDE8F08F0A
:1012B000343F002015000020BDD3CAD5B5BD4D6F09
:1012C00064627573D6B8C1EE3A000000253032581A
:1012D000200000000A000000B43F00209A9999996C
:1012E0009999B93F00BFFEE710B500F0FBF800F098
:1012F00003F800F0F3F810BD70B50026002018497F
:101300000880184908801849086018490860184979
:1013100008601849086018490860002400BFFEF7FB
:1013200027FF064600BF00250BE00020104908609B
:1013300000F074F800F08CF80D4800680444681C54
:1013400085B2002DF1D00C480460002008490860E7
:101350000849086000BF3046FEF70EFF00BF70BDB1
:10136000580200205A0200205C0200206002002087
:10137000680200206C02002064020020014608463A
:10138000044A1268904203D9024A1268801A00E0A7
:10139000002070476402002070B5002500BFFEF7F2
:1013A000E7FE054600BF0648046800BF2846FEF772
:1013B000E3FE00BF2046FFF7E1FF0646304670BD62
:1013C0006802002070B50025FFF7E6FF044600BF65
:1013D000FEF7CEFE054600BF00200449086000BFAE
:1013E0002846FEF7C9FE00BF204670BD68020020F7
:1013F00070B5002500BFFEF7BBFE054600BF0648DE
:10140000046800BF2846FEF7B7FE00BF2046FFF77E
:10141000B5FF0646304670BD6C02002010B5094885
:101420000088401C074908800748008818B900F068
:1014300083F80649086004480088401C0249088077
:1014400010BD0000580200205A0200205C0200205B
:1014500010B50F480088401E0D49088008460088D6
:10146000A0B900F069F80B490860084600680A490D
:101470000968441A09480068A04201D2074804607C
:1014800007480068A04201D20548046010BD000072
:101490005A020020600200205C0200206802002046
:1014A0006C02002010B5002400BF00BFFEF760FEF4
:1014B000044600BFFFF7B2FF00BF1021064801F04D
:1014C000B1F900BFFFF7C4FF00BF2046FEF754FE8E
:1014D00000BF00BF10BD00001040002010B5FFF796
:1014E000E1FF10BD10B500200249086000F00AF8C5
:1014F00010BD000054020020014908607047000040
:101500005402002010B50A48006840F08070084975
:1015100008600020074948600846006840F0010064
:101520000860FFF774FD04462046FFF7E5FF10BD95
:10153000FCED00E0001000E001484068704700004A
:10154000001000E008B50121402005F089FD402091
:10155000ADF8000010208DF8030003208DF8020084
:101560006946024800F070FD08BD00000018014007
:101570002DE9F05F00F0D2F8442000F0D9F800F037
:10158000CDF8BE2000F0D4F800F0A0F8834600F0BB
:101590009DF882464FEA0A2004B244EA0B04002C6C
:1015A0000DDAE043401CFEF769FF074600220B4BB3
:1015B000FEF7EDFE0546FEF7BDFF81460BE0204637
:1015C000FEF75CFF07460022044BFEF7E0FE0546EF
:1015D000FEF7B0FF81464846BDE8F09F0000B03FEF
:1015E00010B5FFF7AFFF4021034800F00CFE00F0FC
:1015F0007FF800F023F810BD0018014008B5402026
:10160000ADF8000048208DF803006946014800F05D
:101610001BFD08BD0018014008B54020ADF80000D2
:1016200010208DF8030003208DF80200694602485F
:1016300000F00AFD08BD00000018014010B50024AC
:10164000FFF7DCFF04E0601CC4B2012000F0C8F822
:1016500040210F4800F0CCFD08B1642CF3DB642C72
:1016600001DB012010BD002404E0601CC4B2012095
:1016700000F0B6F84021064800F0BAFD08B9F02C99
:10168000F3DBF02C01DB0120ECE70020EAE70000AF
:101690000018014010B5FFF7BFFF40210A4800F0D5
:1016A000B0FD0A2000F09CF8FFF7A8FF4021064893
:1016B00000F09EFD012801D1012400E000242D202E
:1016C00000F08EF8204610BD0018014070B50026CD
:1016D000002408E0FFF7DEFF054605FA04F030437A
:1016E000C6B2601CC4B2082CF4DB304670BD0000EA
:1016F00010B5FFF791FF4021074800F082FD40F24E
:10170000EE2000F06DF84021034800F07CFD0F2032
:1017100000F066F810BD00000018014010B5FFF79A
:10172000E7FFFFF78BFFCC2000F002F810BD0000B0
:1017300070B50446FFF770FF002522E004F00106B3
:10174000641076B14021104800F05BFD082000F0E5
:1017500047F840210C4800F056FD3A2000F040F8D0
:101760000DE04021084800F04CFD462000F038F81C
:101770004021054800F047FD022000F031F8681CC8
:10178000C5B2082DDADB70BD0018014070470000BB
:101790000EB50121082005F053FC684606F072F8EA
:1017A0000020ADF806001020ADF802006320ADF86F
:1017B00004004720ADF800006946084806F010F81C
:1017C00000BF06481030008800F001000028F8D063
:1017D0004FF6FE700149103108800EBD000C00402C
:1017E0000F4A10800E492439098841F001010C4A42
:1017F000243A118000BF0A491439098801F0010117
:101800000029F8D04FF6FE71054A143A11800449B8
:101810002439098821F00101014A243A11807047D6
:10182000240C0040F8B506460C4615461F462648CF
:10183000B0F800046FF30E002349A1F8000432460B
:1018400022A1244806F041FA14B90DB90120F8BDCF
:101850006A460021384602F0FBF900201A49B1F827
:101860000014C1F30E01184A505411461AA006F094
:10187000B1FAB4B1ADB121461348FEF7A1FC08B1ED
:10188000012000E0002040B929460F48FEF798FCEF
:1018900008B1012000E0002008B10120D7E70020B6
:1018A000D5E744B121460848FEF78AFC08B101207B
:1018B000CDE70020CBE729460348FEF781FC08B1BD
:1018C0000120C4E70020C2E7CC3A002025730D0AAE
:1018D00000000000004800402573000010B586B0ED
:1018E00004460CB1012000E00020024606A101A838
:1018F00006F080FA4FF4FA73002207A101A8FFF75F
:1019000091FF06B010BD000041542B4349504D5586
:10191000583D2564000000004F4B00000EB502A8A2
:1019200000214FF47A730A46CDE90010084602F010
:1019300037FA07A1074806F0C8F902A800214FF4BA
:10194000FA730A46CDE90010084602F029FA0EBDE6
:101950002B2B2B000048004008B50121082005F082
:101960007FFB4FF48070ADF8000010208DF803006D
:1019700003208DF802006946074800F065FB01214D
:10198000082005F06DFB4FF40070ADF800006946CB
:10199000014800F059FB08BD000C014010B54FF4A0
:1019A000FA7300220DA10EA0FFF73CFFA0B110A119
:1019B0001248FEF705FC08B1022010BD10A10F4827
:1019C000FEF7FEFB08B10320F7E710A10B48FEF776
:1019D000F7FB08B10420F0E70020EEE74F4B0000D2
:1019E00041542B4349505354415455530000000077
:1019F0005354415455533A320D0A0000CC3A00205A
:101A00005354415455533A330D0A00005354415432
:101A100055533A340D0A000010B5FFF79DFF00F052
:101A20001DF94FF40071044800F0EDFB4FF4807194
:101A3000014800F0E6FB10BD000C014070B59EB0FF
:101A400004460D462B46224608A1684606F0D2F908
:101A5000684606F0BFF941F28833002208A16846C3
:101A6000FFF7E0FE064630461EB070BD41542B43E2
:101A7000574A41503D222573222C22257322000013
:101A80004F4B0000F0B5B9B006460F4614461D4650
:101A9000642120A8FEF789FB16B1012E10D107E0C2
:101AA0003B4614A214A120A8009406F0A3F908E074
:101AB0003B4615A210A120A8009406F09BF900E077
:101AC00000BF00BF052D06DA20AB2A460FA102A8F1
:101AD00006F090F904E020AA11A102A806F08AF904
:101AE0004FF47A6312A216A102A8FFF79BFE39B049
:101AF000F0BD000054435000222573222C22257390
:101B0000222C2573000000005544500041542B4303
:101B1000495053544152543D25642C257300000014
:101B200041542B43495053544152543D25730000B6
:101B3000414C5245415920434F4E4E4543540000BD
:101B40004F4B000010B5044624B1012C0AD0022CE2
:101B500018D10FE040F6C4130BA20EA10EA0FFF7A0
:101B600061FE10BD40F6C41307A20AA10DA0FFF745
:101B700059FEF6E740F6C41303A206A10CA0FFF736
:101B800051FEEEE70020ECE76E6F206368616E6740
:101B9000650000004F4B000041542B43574D4F440C
:101BA000453D310041542B43574D4F44453D320094
:101BB00041542B43574D4F44453D33002DE9F041EF
:101BC00086B007460C4615461E464FF000083FB14A
:101BD000224614A1144806F078F84FF001081CE0E2
:101BE000052E06DAAB1C324610A101A806F002F958
:101BF00004E0AA1C12A101A806F0FCF84FF47A73C5
:101C0000002213A101A8FFF70DFE4FF47A73002202
:101C100010A12046FFF706FE8046404606B0BDE80C
:101C2000F0810000257300000048004041542B4320
:101C3000495053454E443D25642C25640000000066
:101C400041542B43495053454E443D256400000008
:101C50003E20000053454E44204F4B0000B585B058
:101C60000121880405F0ECF90121082005F0F8F9BC
:101C70004FF48060ADF8100018208DF81300032099
:101C80008DF8120004A91A4800F0DEF94FF4006044
:101C9000ADF8100004208DF8130004A9144800F0DA
:101CA000D3F94FF4E13000900020ADF80400ADF816
:101CB0000600ADF80800ADF80C000C20ADF80A00E5
:101CC00069460C4805F08CFF012240F22551094875
:101CD00005F061FF012240F22441064805F05BFF58
:101CE00000F00AF80121034805F0C9FE05B000BD67
:101CF000000C01400048004008B54FF4A06000F01F
:101D0000B7FE27208DF8000000208DF801008DF827
:101D1000020001208DF80300684600F05BFE08BD5C
:101D200010B54FF4FA73002207A108A0FFF77AFD5F
:101D300008B9002010BD4FF4FA7308A202A108A050
:101D4000FFF770FDF6E700004F4B000041542B43B6
:101D500049504D4F44453D31000000003E00000019
:101D600041542B43495053454E44000010B50420C4
:101D700000F06CF898B10120094908700948006822
:101D800020F01000074908600846006820F00400B1
:101D90000860002004490860042000F051F810BDDC
:101DA00014000020000401403800002010B510206D
:101DB00000F04CF8A0B101200A4908700A480068F8
:101DC00020F00400084908600846006820F0100070
:101DD00008604FF42A7005490860102000F030F8C0
:101DE00010BD000014000020000401403800002055
:101DF00008B5202000F02AF8A0B10BA005F0EAFFFA
:101E00006A4600214FF47A7001F022FF00210A484F
:101E100005F0F2FB4FF40071084800F0F4F92020BF
:101E200000F00EF808BD0000D6D0B6CFB4A5B7A21A
:101E30002E2E2E0A00000000000400400014014075
:101E40000149086070470000140401400146002069
:101E50000022074B1B6803EA0102054B14331B6881
:101E60000B4013B10AB1012000E0002070470000D0
:101E7000000401400EB50121212005F0F1F800F029
:101E800090FD0420ADF8080028208DF80B0002A971
:101E90001C4800F0D9F80221032000F0B5F8042016
:101EA000009000208DF8040008208DF80500012026
:101EB0008DF80600684600F029F804201149143115
:101EC00008601020ADF8080048208DF80B0002A92A
:101ED0000D4800F0B9F80421002000F095F810201A
:101EE000009000208DF804000C208DF805000120E2
:101EF0008DF80600684600F009F8102002491031FC
:101F000008600EBD00140140000801400021234973
:101F10008279002A3AD00A46126803689A430B462F
:101F20001A600A1D126803689A430B1D1A60027931
:101F300011440A6803681A430A60184A0832126892
:101F400003689A43154B08331A601A1D1268036818
:101F50009A43124B0C331A604279102A0ED11A1F81
:101F6000126803681A430D4B08331A601A1D126871
:101F700003681A43094B0C331A600DE00749427994
:101F800011440A6803681A430A6005E002791144A3
:101F90000A6803689A430A60704700000004014021
:101FA0000EB50121052005F05BF800F04BFD202067
:101FB000ADF8080028208DF80B0002A90C4800F0AD
:101FC00043F80521002000F01FF820200090002099
:101FD0008DF8040008208DF8050001208DF806001A
:101FE0006846FFF793FF20200149143108600EBDB9
:101FF0000008014010B50121084605F041F8002114
:10200000012005F03DF810BD30B500228B071C0FF4
:102010000F2303FA04F20B4B8C1053F82430934334
:10202000084C8D1044F8253023468C1053F824308A
:102030008C07240F00FA04F42343024C8D1044F85B
:10204000253030BD080001402DE9F0410246002551
:102050000026002000230024002791F803C00CF084
:102060000F0591F803C00CF0100CBCF1000F03D069
:1020700091F802C04CEA050591F800C0BCF1000FD0
:1020800031D0146800202BE04FF0010C0CFA00F363
:10209000B1F800C00CEA03069E4220D183004FF045
:1020A0000F0C0CFA03F7BC4305FA03FC4CEA0404DA
:1020B00091F803C0BCF1280F06D14FF0010C0CFAC7
:1020C00000FCC2F814C00AE091F803C0BCF1480F4C
:1020D00005D14FF0010C0CFA00FCC2F810C0401CF6
:1020E0000828D1D31460B1F800C0BCF1FF0F34DD73
:1020F000546800202EE000F1080C4FF0010808FAA7
:102100000CF3B1F800C00CEA03069E4221D1830013
:102110004FF00F0C0CFA03F7BC4305FA03FC4CEA32
:10212000040491F803C0BCF1280F05D100F1080C9C
:1021300008FA0CF8C2F8148091F803C0BCF1480FFB
:1021400007D100F1080C4FF0010808FA0CF8C2F8AA
:102150001080401C0828CED35460BDE8F0810000F8
:10216000F0B50A46002300240021002500F00046B7
:10217000B6F1004F02D11D4EF16901E01B4E7168AE
:10218000C0F3034583B200F44016B6F5401F08D1F2
:1021900021F07061154E766826F07066134F7E60F0
:1021A00012E000F48016B6F5801F06D1032606FA69
:1021B00005F4A14341F0706106E0460D360103FAD3
:1021C00006F6B14341F0706122B1460D360103FAC3
:1021D00006F6314300F00046B6F1004F02D1034E3F
:1021E000F16101E0014E7160F0BD000000000140AE
:1021F0000246002093680B400BB1012000E0002054
:102200007047416170470161704700BFFEE72DE9EB
:10221000F04705460F461646002426E0385DC117F4
:1022200000EB1171091101F13009385DC11700EBA4
:1022300011710911A0EB0111303101F0FF08B9F162
:10224000390F03DD09F1070000F0FF09B8F1390F7C
:1022500003DD08F1070000F0FF0805F814900120E5
:1022600000EB440005F80080641CB442D6DB00207B
:1022700005F816007200052329460120FFF79EFC91
:10228000BDE8F08721B1028842F00102028004E03B
:1022900002884FF6FE731A400280704710B500F0B6
:1022A00009F800F0A3F8A0200149088010BD000043
:1022B0004400002008B50121480504F0C1FE0121B9
:1022C000082004F0CDFE4020ADF8000003208DF87A
:1022D00002001C208DF8030069460848FFF7B4FE91
:1022E0008020ADF8000003208DF802001C208DF83E
:1022F000030069460148FFF7A7FE08BD000C014036
:102300002DE9F04385B004460D460026B14604276A
:10231000DFF8CC80A6884FF6C0700640684604F00F
:10232000BFFEDDF808802F48B8FBF0F01FFA80F9F7
:1023300046EA0906A68020884FF6FE7108402080F4
:1023400000262949286888420CD828684000B8FB34
:10235000F0F087B2042F00DA04273E4309F10100B0
:10236000208427E0E8884BF6FF71884206D1286870
:1023700000EB4000B8FBF0F087B209E0286800EB02
:10238000C00101EB0010B8FBF0F087B247F48047C2
:10239000C7F30B0008B947F0010747F400400643B4
:1023A0004FF4967009FB00F04FF47A7190FBF1F056
:1023B000401C2084A683208840F0010020802688CD
:1023C0004FF6F5300640A888698908430643268001
:1023D000A88929890843208105B0BDE8F083000061
:1023E00000127A0040420F00A08601001FB50020B5
:1023F000ADF804004BF6FF70ADF806000A20ADF80A
:1024000008004FF48060ADF80A000001ADF80C0040
:102410000548009069460548FFF772FF012103480F
:10242000FFF730FF1FBD0000801A06000054004077
:1024300008B50121082004F013FE2020ADF80000AB
:1024400010208DF8030003208DF8020069461F4814
:10245000FFF7FAFD0121082004F002FE0120ADF88B
:10246000000069461948FFF7EFFD0121082004F03C
:10247000F7FD0220ADF8000069461448FFF7E4FDBF
:102480000121082004F0ECFD4FF40050ADF80000ED
:1024900069460E48FFF7D8FD0121082004F0E0FD51
:1024A0004FF48040ADF8000069460848FFF7CCFDC6
:1024B0000121202004F0D4FD4FF40070ADF800009D
:1024C00069460348FFF7C0FD08BD0000000C01404D
:1024D0000014014010B5FFF7ABFF4FF480410D48E9
:1024E000FFF791FE20210B48FFF78DFE01210948DF
:1024F000FFF789FE02210748FFF785FE4FF40051E0
:102500000448FFF780FE4FF400710348FFF779FE9F
:1025100010BD0000000C01400014014088B00025EF
:1025200076A005F057FC4FF480717B48FFF76BFEF7
:102530000020FFF707FB79A005F04CFC08E07CA029
:1025400005F048FC07AA00214FF4FA6001F080FB77
:102550007EA181A0FFF772FA0028F0D001207F4908
:10256000087020216C48FFF74EFE02216A48FFF7F1
:102570004AFE01216848FFF744FE79A005F02AFCD5
:102580000020FFF7ABF900BF05237AA27BA1002052
:10259000FFF778FA0028F7D001207C49087000BFC7
:1025A000FFF7BEFB0028FBD079A005F013FC7D48A7
:1025B000B0F800046FF30E007A49A1F80004084651
:1025C000B0F8000420F40040A1F800042021524893
:1025D000FFF719FE01215048FFF715FE02214E4872
:1025E000FFF70FFE70A1684605F004FC05230022EA
:1025F00069460120FFF7E2FA7EE06A48B0F800047D
:10260000C00BF0B16AA005F0E5FB00206549B1F808
:102610000014C1F30E01634A505415461046B0F839
:1026200000046FF30E001146A1F800040846B0F84C
:10263000000420F40040A1F80004284606F052F9F6
:1026400004E007AA0021142001F002FB5E48007894
:10265000002851D000204D490870FFF75FF900BFF6
:10266000FFF79CF90446002CFAD0042C3CD1202121
:102670002948FFF7C8FD01212748FFF7C4FD2021A5
:102680002548FFF7BEFD51A005F0A4FB00BF2FA118
:1026900031A0FFF7D3F90028F9D020211E48FFF719
:1026A000B2FD02211C48FFF7AEFD01211A48FFF7D9
:1026B000A8FD00BF05232FA230A10020FFF7E2F9FB
:1026C0000028F7D001203149087020211248FFF777
:1026D0009AFD01211048FFF796FD02210E48FFF7F1
:1026E00090FD42A005F076FB00BFFFF719FB002824
:1026F000FBD045A005F06EFB7FE700000D0AD5FD7D
:10270000D4DAC5E4D6C32045535038323636202EAD
:102710002E2E2E2E2E0D0A00000C0140D2D1BFAA63
:10272000C6F4535441C4A3CABD2E2E2E2E0A000057
:10273000C1ACBDD377696669CAA7B0DC2CD5FDD41E
:10274000DAD6D8CAD42E2E2E0A000000525354389E
:10275000383838380000000052535400420000203E
:10276000C1ACBDD377696669B3C9B9A62E2E2E2E2A
:102770000A00000037303030000000003139322EBE
:102780003136382E312E3130300000004300002029
:10279000C1ACBDD3B7FECEF1C6F7B3C9B9A62E2ED4
:1027A0002E2E0A00CC3A002030313041303000006B
:1027B000BDD3CADCB5BDB7FECEF1C6F7D6B8C1EE03
:1027C0002E2E2E0A00000000410000200D0AD5FD2B
:1027D000D4DAD6D8C1ACC8C8B5E3BACDB7FECEF10D
:1027E000C6F7202E2E2E2E2E2E0D0A000D0AD6D81C
:1027F000C1ACC8C8B5E3BACDB7FECEF1C6F7B3C910
:10280000B9A60D0A000000000D0AC5E4D6C3204594
:1028100053503832363620CDEAB1CF0D0A000000D1
:1028200000BFFEE730B505460C462246002128468B
:1028300000F026F830BD00000D480E490160014649
:10284000416000218160C160016141618161C161BC
:1028500001620163C162416207498163C1634FF450
:10286000D841016441640146044A11607047000088
:102870002040002048454150684000207002002060
:102880002DE9F04103460C4617460FB9BDE8F0812B
:1028900003B9FBE70025002202E02D022543521C6C
:1028A000042AFAD3384603F0030C1946BCF1000F92
:1028B00008D0624603E001F8014B401E521C08B1EB
:1028C000042AF8D30E4601E020C6001F0428FBD2DC
:1028D000314602E001F8014B401E0028FAD100BF4A
:1028E000D4E7000010B501200749087003204870A4
:1028F0000E204880012088800B1D8A1C491C481E20
:1029000005F06AFE10BD00004E02002010B504461E
:1029100004EBC40000EB04104FF6FF7101EA8000E5
:102920000549088005490C7004EB8400410004A0AF
:1029300005F050FA10BD00003804004024000020CB
:10294000D5BCBFD5B1C8A3BA256425250A000000AF
:10295000704708B54FF4C06000F08AF81D208DF86C
:10296000000000208DF8010002208DF802000120F7
:102970008DF80300684600F02DF808BD08B54FF447
:10298000A06000F075F825208DF8000001208DF87A
:1029900001008DF802008DF80300684600F01AF877
:1029A00008BD08B54FF4C06000F062F808208DF84B
:1029B000000001208DF801008DF802008DF8030061
:1029C000684600F007F80A208DF80000684600F01D
:1029D00001F808BD70B5002100230F22C47804B3AC
:1029E000154C246804F4E064C4F5E064210AC1F1E4
:1029F0000403CA40447804FA03F184781440214364
:102A000009010E4C0678A155047804F01F05012435
:102A1000AC4005786D11AD0005F1E025C5F8004129
:102A200009E0047804F01F050124AC40044D067849
:102A3000761145F8264070BD0CED00E000E400E0A2
:102A400080E100E008B54FF4C06000F011F81720F5
:102A50008DF8000001208DF8010002208DF80200A1
:102A600001208DF803006846FFF7B4FF08BD0000A1
:102A700002490143024A1160704700000000FA0554
:102A80000CED00E07047000010B50348006810B17D
:102A900001480068804710BD8402002070B50446DC
:102AA00000F0C2F8002048490870484908704849B9
:102AB0000870484908604849086048490870484912
:102AC0000870484908704849086048490860484902
:102AD000086048490870484800680A21B0FBF1F0D6
:102AE000464908604648006858B14648056845B1FF
:102AF0004348066803E0761E002028602D1D002E46
:102B0000F9D1002040490860404908604049086008
:102B100040490860404908604049086040490860F1
:102B20004049087002F030FA02F02EFB204601F016
:102B30008BFB208800B170BD204601F0A5FF2088E6
:102B400000B1F8E7204601F0ABFF208800B1F2E7C2
:102B5000204602F08FF8208800B1ECE7204602F012
:102B600043FA208800B1E6E7204602F093FC208873
:102B700000B1E0E7204602F0FDFF208800B1DAE76F
:102B8000204601F0EDFE208800B1D4E7204601F098
:102B9000F7FC208800B1CEE7204604F053F82088E7
:102BA00000B1C8E7204602F029FF208800B1C2E743
:102BB000204604F0A3F8208800B1BCE701F06AFACF
:102BC000FFF760FF00BFB6E798020020A0020020D8
:102BD000E80200204003002044030020CE02002031
:102BE000CF020020D0020020DC020020E002002002
:102BF000E4020020F0020020308C0008EC020020EB
:102C0000008C0008FC8B0008780200207C02002069
:102C10008002002084020020880200208C02002014
:102C2000900200201E0300200A4A1168002002E0E2
:102C3000002204C1401C084A12689042F8D3054A99
:102C40001268054B1B6802EB8302121F034B1A60CC
:102C500070470000FC8B0008008C0008480300202F
:102C600010B500242E480078012800D010BD00BF08
:102C7000FDF77EFA044600BF2A48007828B900BF55
:102C80002046FDF779FA00BFF0E726480078401E9D
:102C90002449087008460078002805DD00BF20465A
:102CA000FDF76AFA00BFE1E71F480078002805DD5C
:102CB00000BF2046FDF760FA00BFD7E702F050F9E9
:102CC0001A4908700846007800EB4000184951F88E
:102CD00020001849086008460068174909688842BA
:102CE00005D100BF2046FDF747FA00BFBEE71148F7
:102CF0000068D0F89000401C0E490968C1F89000A7
:102D00000E480068401C0D4908604FF080500C4987
:102D1000086000BF2046FDF72FFA00BF00BFA5E7FF
:102D2000A002002098020020E8020020CF0200202C
:102D300094C200204403002040030020140300201C
:102D400004ED00E010B5002420480078002800DDE4
:102D500010BD1F480078002800DDF9E700BFFDF72F
:102D600007FA044600BF02F0FBF81A49087008464B
:102D7000007800EB4000184951F82000174908601E
:102D80000846006816490968884205D100BF2046F8
:102D9000FDF7F2F900BFDBE710480068D0F89000BB
:102DA000401C0E490968C1F890000E480068401C9C
:102DB0000C4908604FF080500B49086000BF204666
:102DC000FDF7DAF900BF00BFC2E70000980200205B
:102DD000E8020020CF02002094C20020440300201B
:102DE000400300201403002004ED00E070B5044609
:102DF00000251A480078002803DD46F6625020803E
:102E000070BD17480078012803D045F689602080FE
:102E1000F6E714480078FA2803DB45F20920208001
:102E2000EEE700BF00BFFDF7A3F9054600BFFEF7C0
:102E3000F5FA00BF0B480078401C0A49087002F000
:102E400087FA00BFFEF704FB00BF2846FDF794F9A0
:102E500000BF00BF0020208000BFD1E79802002003
:102E6000A0020020E802002070B504460025234897
:102E70000078002803DD46F66550208070BD2048AC
:102E80000078012803D045F689602080F6E71D48C8
:102E9000007818B946F664502080EFE700BF00BF05
:102EA000FDF766F9054600BFFEF7B8FA00BF154802
:102EB0000078401E134908700846007800280CDD91
:102EC00000BFFEF7C5FA00BF2846FDF755F900BF61
:102ED00000BF46F663502080D0E702F047FA00BFFB
:102EE000FEF7B6FA00BF2846FDF746F900BF00BF5F
:102EF000FFF728FF0020208000BFBFE798020020D6
:102F0000A0020020E802002010B504461248007814
:102F1000E8B902F025F81149087008460078104910
:102F200008700E48007800EB40000E4951F8200070
:102F30000D490860084600680C49086001200649F0
:102F40000870FDF7C1FC43F69920208002E045F6A9
:102F50008A60208010BD0000A0020020CF02002067
:102F6000CE02002094C20020440300204003002031
:102F70002DE9F04107464FF0000800BF00BFFDF704
:102F8000F7F8804600BFFEF749FA00BF0020474926
:102F90000860474908804749088047490860474911
:102FA0000860474908604749086047490860474941
:102FB000088100BFFEF74CFA00BF4046FDF7DCF881
:102FC00000BF00BF00BF00BFFDF7D2F8804600BFC2
:102FD000FEF724FA00BF3E48046800BFFEF738FA47
:102FE00000BF4046FDF7C8F800BF00BF26E000BFA5
:102FF00000BFFDF7BDF8804600BFFEF70FFA00BF27
:1030000000207834E063206420602063A061A08207
:10301000E0826062A062FEF78FFA2062783C04F1E1
:1030200064060020B081D4F8C04000BFFEF710FA5B
:1030300000BF4046FDF7A0F800BF00BF002CD6D16E
:1030400000BF00BFFDF794F8804600BFFEF7E6F929
:1030500000BF2048056800BFFEF7FAF900BF4046F0
:10306000FDF78AF800BF00BF16E000BF00BFFDF704
:103070007FF8804600BFFEF7D1F900BF05F12006BA
:103080000020B081AD6900BFFEF7E2F900BF404605
:10309000FDF772F800BF00BF002DE6D103F09AFCE7
:1030A00003F028FF00203880BDE8F081B402002042
:1030B000AE020020FE0200201003002024030020A6
:1030C000300300209C020020E002002088C2002083
:1030D00018030020D4020020F8B5044600266946F3
:1030E000364800F033FDBDF8000018B1BDF800000F
:1030F0002080F8BD6A460021022000F0A9FDBDF83D
:10310000000018B1BDF800002080F2E700BF00BF4A
:10311000FDF72EF8064600BFFEF780F900BF00203D
:103120002749086000BFFEF793F900BF3046FDF75E
:1031300023F800BF00BF0025224800682249096823
:10314000884205D91F4800681F490968B0FBF1F59E
:1031500025B91C4800680A21B0FBF1F56A46002138
:10316000284600F075FD6946144800F0A5FABDF840
:10317000000018B1BDF800002080BAE700BF00BF12
:10318000FCF7F6FF064600BFFEF748F900BF002037
:103190000E4908600A4800680D49086001200D4981
:1031A000087000BFFEF754F900BF3046FCF7E4FF9B
:1031B00000BF00BF0020208000BF9AE7A4C5002008
:1031C00000030020308C0008188C00081003002039
:1031D000040300200C03002010B50348006810B160
:1031E00001480068804710BD880200202DE9FF4F8C
:1031F00087B004469046DDE91BA5DDE91496179FCC
:103200000020039095480078002805DD47F24A1019
:1032100028800BB0BDE8F08F1CB947F2AD102880B4
:10322000F7E7B8F1000F03D147F24F102880F0E71D
:103230001EB946F62F602880EBE789480068874270
:1032400003D246F630602880E3E71698B84203D3ED
:1032500046F631602880DCE7B9F1200F03D346F24F
:1032600073202880D5E7B9F1000F06D17D4884424C
:1032700003D046F273202880CBE7B9F11F0F06D1A7
:103280007948844203D046F273202880C1E7204663
:1032900002F080FC002028800AF0010090B10AF0C2
:1032A000020078B105960020069008E000210598FC
:1032B00001600598001D05900698401C0690069830
:1032C000B842F3D3169806EB80000490CDE9007A5B
:1032D00032464046049B0A9900F0D8FB0590C4F89A
:1032E00028800A98E0620898206284F83790059850
:1032F00020600498A06019986065199818B95B4817
:103300000068A06501E01998A0651A98606066627F
:10331000A763A4F83CA04FF0000B08E0002104F1E3
:103320007C0040F82B100BF1010000F0FF0BBBF10B
:10333000000FF3D004F16400189901F011FC20464D
:1033400000F09EF800BF00BF00BFFCF711FF039024
:1033500000BFFEF763F800BF45480078401C4449B1
:10336000087008460078012801D101F0F1FF00BF84
:10337000FEF76EF800BF0398FCF7FEFE00BF00BF2B
:1033800000BF94F8370001F00BFE204601F044FF27
:10339000204602F0B5FB37480088401C35490880BC
:1033A00035480078012837D000BF00BF00BFFCF7C8
:1033B000DFFE039000BFFEF731F800BF2C48007815
:1033C000401E2B49087008460078D0B901F0CEFFA6
:1033D0002A48008800280BDD00BFFEF739F800BF3F
:1033E0000398FCF7C9FE00BF00BF01F083FF11E0A6
:1033F00000BFFEF72DF800BF0398FCF7BDFE00BF2D
:1034000008E000BFFEF724F800BF0398FCF7B4FE05
:1034100000BF00BF00BFFCE600BF00BF00BFFCF75D
:10342000A7FE039000BFFDF7F9FF00BF104800782A
:10343000401E0F4908700846007808B901F096FF51
:1034400000BFFEF705F800BF0398FCF795FE00BF2C
:1034500000BF00BFFFF776FC00BFDAE6980200204D
:103460002C8C0008C0C10020F8C00020EC02002015
:10347000E80200201C030020A0020020AC02002073
:1034800010B504460348006818B120460149096890
:10349000884710BD7802002070B504460D4600260E
:1034A00078480078002803DD47F24E10288070BD70
:1034B0007548844203D147F24C102880F7E77348DF
:1034C000844203D147F24D102880F0E79CB900BF39
:1034D00000BFFCF74DFE064600BFFDF79FFF00BF93
:1034E0006B48046800BFFDF7B3FF00BF3046FCF730
:1034F00043FE00BF00BF00BF00BF00BFFCF738FEA7
:10350000064600BFFDF78AFF00BF62480078401CF6
:103510006049087008460078012801D101F018FFC1
:1035200000BFFDF795FF00BF3046FCF725FE00BF4A
:1035300000BF00BF94F8360008282DD2DFE800F065
:1035400004090E10080A0F11204601F0A5FE5EE0E6
:103550005DE000BF204603F021FA58E000BF00BF45
:1035600000BF204603F01AFA94F83400082810D25D
:10357000DFE800F004070508090A0B0600BF00BFDA
:1035800008E000BF00BF00BF00BF204601F039FCCB
:1035900000E000BF00BF3AE000BF00BF00BFFCF783
:1035A000E7FD064600BFFDF739FF00BF3948007848
:1035B000401E3849087008460078D0B901F0D6FEA0
:1035C0003548008800280BDD00BFFDF741FF00BF34
:1035D0003046FCF7D1FD00BF00BF01F08BFE11E0CB
:1035E00000BFFDF735FF00BF3046FCF7C5FD00BF4B
:1035F00008E000BFFDF72CFF00BF3046FCF7BCFD24
:1036000000BF00BF00BF46F62D6028804FE700BF17
:1036100004F1640001F082FA204600F041F82046EF
:1036200002F086FA1D480088401E1C49088020468A
:1036300002F0B0FAFF2084F8360000BF00BF00BFE0
:10364000FCF796FD064600BFFDF7E8FE00BF1148F7
:103650000078401E0F4908700846007808B901F04C
:1036600085FE00BFFDF7F4FE00BF3046FCF784FD89
:1036700000BF00BF00BF00202880FFF763FB00BF32
:1036800015E7000098020020F8C00020C0C100200B
:1036900040030020E8020020AC0200201C030020B0
:1036A00010B504460348006818B12046014909686E
:1036B000884710BD7C0200207FB504460D460026D9
:1036C00000BF00BFFCF754FD064600BFFDF7A6FE95
:1036D00000BF1CB11748006884420CD100BFFDF741
:1036E000B7FE00BF3046FCF747FD00BF00BF47F202
:1036F000571028807FBD00BFFDF7AAFE00BF3046EF
:10370000FCF73AFD00BF00BF0B48007800280BDD36
:10371000002000900190034602462146CDE90205B3
:10372000064800F065FFE5E72946204602F0DEFB8B
:1037300000BFDFE7400300209802002054524553A9
:1037400010B504460348006818B1204601490968CD
:10375000884710BD800200202DE9F04780460E46C4
:1037600014461D464FF000098C480078002805DDFE
:1037700046F2AE1028800020BDE8F0871EB1B6F5F5
:10378000004F02D100E000BF04E045F6256028802C
:103790000020F1E700BF0CB10020206000BF00BF97
:1037A000FCF7E6FC814600BFFDF738FE00BF7C4811
:1037B0000068406CB8B37A480068406C401E784995
:1037C0000968486476480068476C1CB17448006812
:1037D000006C2060FDF7B0FE71490968096C401A61
:1037E0006F490968C1F8A4006D480068D0F8A800C6
:1037F0006B490968D1F8A410884207D2684800686C
:10380000D0F8A40066490968C1F8A80000BFFDF718
:103810001FFE00BF4846FCF7AFFC00BF00BF002002
:1038200028803846A8E7FFE706F4004068B100BFEB
:10383000FDF70EFE00BF4846FCF79EFC00BF00BF30
:1038400046F2B0102880002096E7564800780028FD
:103850000DDD00BFFDF7FCFD00BF4846FCF78CFC0A
:1038600000BF00BF46F663502880002084E700BFF9
:103870004C480078401C4B490870084600780128E5
:1038800001D101F065FD00BFFDF7E2FD00BF484634
:10389000FCF772FC00BF00BF00BF434607220021B7
:1038A000084601F0F3F900BF00BF00BFFCF760FC61
:1038B000814600BFFDF7B2FD00BF3A480078401EC8
:1038C000384908700846007808B901F04FFD00BF7C
:1038D000FDF7BEFD00BF4846FCF74EFC00BF00BF31
:1038E00000BFFFF72FFA00BF00BFFCF741FC814685
:1038F00000BFFDF793FD00BF2948006890F8350030
:1039000020B1012826D0032834D12CE0FCB1244872
:103910000068006C2060FDF70FFE21490968096C02
:10392000401A1F490968C1F8A4001D480068D0F872
:10393000A8001B490968D1F8A410884207D218488A
:103940000068D0F8A40016490968C1F8A800002052
:10395000288013E01CB112480068006C206046F219
:10396000A91028800AE00CB10020206047F2D9207D
:10397000288003E046F62E60288000BF00BF08487C
:103980000068476C00BFFDF763FD00BF4846FCF7C9
:10399000F3FB00BF00BF3846EEE6000098020020AF
:1039A00040030020E80200202DE9F04705460E46BE
:1039B00017461C464FF0000A32480078002804DD04
:1039C00047F259102080BDE8F0871EB946F2D52095
:1039D0002080F8E71FB946F2D5202080F3E700BF2A
:1039E00000BFFCF7C5FB824600BFFDF717FD00BF17
:1039F0000DB925480568286878B900BFFDF728FD8E
:103A000000BF5046FCF7B8FB00BF00BF002030608D
:103A1000386047F252102080D5E795F83C0000F05E
:103A2000010078B900BFFDF713FD00BF5046FCF759
:103A3000A3FB00BF00BF00203060386047F2541085
:103A40002080C0E700BFFDF703FD00BF5046FCF734
:103A500093FB00BF00BF4FF00008D5F8249003E0AF
:103A600009F1040908F10108D9F800000028F7D08D
:103A7000C6F80080A86BA0EB08003860002020800A
:103A800000BFA0E79802002040030020F0B50446E4
:103A9000DDE9055602EB85004FF0807C071F3846B4
:103AA000C7F800C0071F38463C60DFF89CC0071FFE
:103AB0003846C7F800C04FF0123C071F3846C7F819
:103AC00000C04FF0033C071F3846C7F800C04FF056
:103AD000023C071F3846C7F800C0071F38463B6046
:103AE000071F384639604FF0113C071F3846C7F8AA
:103AF00000C04FF0103C071F3846C7F800C04FF019
:103B0000093C071F3846C7F800C04FF0083C071FA4
:103B10003846C7F800C04FF0073C071F3846C7F8C3
:103B200000C04FF0063C071F3846C7F800C04FF0F2
:103B3000053C071F3846C7F800C04FF0043C071F7C
:103B40003846C7F800C0F0BD696000087FB505467B
:103B50000C461248854203D147F25B1020807FBD9E
:103B60000F48854203D147F25C102080F7E70D48EB
:103B7000007800280BDD00200090019003460246EB
:103B80002946CDE90204084800F032FDE7E7214666
:103B9000284602F049FD00BFE1E70000F8C0002020
:103BA000C0C10020980200205453555370B52448DA
:103BB000006810B1224800688047FDF7BDFC04464C
:103BC0002048006820490968884215D01D480068CF
:103BD000D0F89800201A1B490968C1F894001948C8
:103BE0000068D0F89C0017490968D1F8941008447F
:103BF00014490968C1F89C0013480068C0F898404F
:103C0000FDF7E0FB05460F480068D0F8B400A84275
:103C100003D20C480068C0F8B4500A480068D0F8D5
:103C2000B8000A490968884205D208480068054971
:103C30000968C1F8B80000200449086070BD0000A0
:103C40008C0200204003002044030020E4020020F6
:103C50002DE9F04105460E46144600274D480078F0
:103C6000002804DD47F275202080BDE8F0814A4835
:103C70000078002803DD46F663502080F5E736B172
:103C8000022E05D0042E0AD0082E09D101E000BF73
:103C900000BF1DB947F27E202080E6E704E003E084
:103CA00045F625602080E0E700BF00BF00BF00BFF1
:103CB000FCF75EFA074600BFFDF7B0FB00BF3648D1
:103CC0000078401C3449087008460078012801D16A
:103CD00001F03EFB00BFFDF7BBFB00BF3846FCF721
:103CE0004BFA00BF00BF00BF01202C49096881F8D2
:103CF00036002346324629462848006802F070FD07
:103D00002088F0B100BF00BF00BFFCF731FA0746C2
:103D100000BFFDF783FB00BF1F480078401E1E490F
:103D200008700846007808B901F020FB00BFFDF7D5
:103D30008FFB00BF3846FCF71FFA00BF00BF00BF73
:103D400093E71648006801F0A7FA00BF00BF00BF64
:103D5000FCF70EFA074600BFFDF760FB00BF0E48F8
:103D60000078401E0C4908700846007808B901F038
:103D7000FDFA00BFFDF76CFB00BF3846FCF7FCF90D
:103D800000BF00BF00BFFEF7DDFF0020208000BFA6
:103D90006BE7000098020020E802002040030020AA
:103DA0002DE9FF5F05460E4617469846DDE90EA44D
:103DB0000020009081480078002804DD47F275203B
:103DC0002080BDE8FF9F7E480078002803DD46F68E
:103DD00063502080F5E70AF00E0BBBF1000F09D00D
:103DE000BBF1020F07D0BBF1040F10D0BBF1080FDD
:103DF0000ED101E000BF00BFB8F1000F06D12FB90E
:103E000026B91DB947F27E202080DAE704E003E0FE
:103E100045F625602080D4E700BF2AF01E0008B1D7
:103E2000012000E0002003900398012803D145F60B
:103E300025602080C5E7CAF3001002900298C0B93F
:103E4000B8F57A7F03D347F27B202080B9E73B2F78
:103E500003DD47F27A202080B3E73B2E03DD47F2F3
:103E600079202080ADE7632D12DD47F27820208095
:103E7000A7E742F20F70864203DD47F279202080E7
:103E80009FE7B5F57A7F03DB47F27820208098E73B
:103E90004C48D0F800904FF4FA70B0FBF9F0404471
:103EA00000FB09F04FF47A71B0FBF1F14FF461605F
:103EB0006843C6EB061200EB8200384400FB091091
:103EC00001900198002873D000BF00BF00BFFCF72D
:103ED0004FF9009000BFFDF7A1FA00BF3848007805
:103EE000401C3749087008460078012801D101F0CC
:103EF0002FFA00BFFDF7ACFA00BF0098FCF73CF9C1
:103F000000BF00BF00BF01202F49096881F83600BB
:103F100023465A462C480199006802F061FC20882B
:103F2000F0B100BF00BF00BFFCF722F9009000BF56
:103F3000FDF774FA00BF22480078401E204908703F
:103F40000846007808B901F011FA00BFFDF780FAC1
:103F500000BF0098FCF710F900BF00BF00BF30E7BA
:103F60001948006801F098F900BF00BF00BFFCF7D6
:103F7000FFF8009000BFFDF751FA00BF104800782D
:103F8000401E0F4908700846007808B901F0EEF9A4
:103F900000BFFDF75DFA00BF0098FCF7EDF800BF29
:103FA00000BF00BFFEF7CEFE0020208003E0FFE749
:103FB00047F27E20208000BF03E700009802002027
:103FC000E8020020308C00084003002010B586B0C5
:103FD00000F01EF8FDF7B0FA044605A80021009194
:103FE000CDE9011403900748007800EB4000064A31
:103FF00002EB800100231A46044800F0F9FA06B0EB
:1040000010BD0000CE02002094C200205449434B52
:1040100010B50348006810B101480068804710BD22
:104020009002002010B5002400BF00BFFCF7A0F8EC
:10403000044600BFFDF7F2F900BF09480078401CB4
:104040000749087000BFFDF703FA00BF2046FCF7E0
:1040500093F800BF00BFFFF7B9FFFEF701FE10BDE8
:104060009802002001464A1E4FF0E0235A61084A98
:10407000106820F07F4000BF10601A46126942F0BD
:1040800005021A611A46126942F002021A6170476B
:1040900020ED00E0254A2649264A274A2749284A92
:1040A0002848294A294A2A4A2A4A2B482B482C4878
:1040B0002C4A2D482D4A2E482E4A2F482F4830484A
:1040C0003048314A314A324A3248334A334A344816
:1040D000344835483548364836483748374A384AEC
:1040E000384A394A39483A483A483B4A3B4A3C4AB6
:1040F0003C483D483D483E493E483F4A3F4A404A89
:10410000404A414A414A424A4248434A434A444853
:104110004448454A454A4648464A474A4748484827
:10412000484800BF00BF00BF70470000748C000803
:10413000DC8D0008758C0008768C0008788C0008EF
:104140007C8C0008808C00087D8C0008A88C0008FE
:10415000A98C0008AA8C0008AC8C0008AE8C000862
:10416000B08C0008B28C0008B48C0008D48C000815
:10417000D68C0008D88C0008DA8C0008DC8C00088B
:10418000DE8C0008E08C00080C8D00080D8D000806
:104190000E8D0008108D0008128D0008138D000888
:1041A000148D0008168D0008188D00081A8D00085F
:1041B0001C8D00081E8D0008208D0008508D000801
:1041C000518D0008528D0008538D0008548D000851
:1041D000568D0008588D0008808D0008818D0008DC
:1041E000828D0008838D0008848D0008868D00086C
:1041F000888D00088C8D00088D8D00088E8D00083C
:104200008F8D0008908D0008918D0008928D000818
:10421000938D0008948D0008968D0008978D0008F6
:10422000988D00089A8D00089C8D00089D8D0008CF
:10423000A08D0008D48D0008D58D0008D68D00080B
:10424000D88D0008DA8D00080021034A1160034A66
:104250001180018070470000B8020020BC020020DD
:104260002DE9F04F85B00446894692469B46DDF81D
:1042700038800020009000BF00BFFBF779FF00905E
:1042800000BFFDF7CBF800BFBAF1000F0AD0BAF1BA
:10429000010F0DD0BAF5004F05D06FF40040504427
:1042A00060B906E000BF206A40EA0900206216E01B
:1042B00000BF206A20EA0900206210E000BFFDF77D
:1042C000C7F800BF0098FBF757FF00BF00BF45F6D7
:1042D0002560A8F80000002005B0BDE8F08F00BF01
:1042E000C4F824B004F1080001900198008968B96D
:1042F00000BFFDF7ADF800BF0098FBF73DFF00BF22
:1043000000BF0020A8F80000206AE5E700BF714860
:104310000078401C6F49087008460078012801D1D8
:1043200001F016F800BFFDF793F800BF0098FBF707
:1043300023FF00BF00BF00BF01980768BD6889E088
:104340007868029095F8880000F00F0003900398B9
:10435000012821D002282ED0042802D0082836D1E6
:104360000EE0206AD5F8801000EA0106D5F880003A
:10437000B04204D15A463146284600F0AFF863E017
:10438000206AD5F8801000EA010626B15A46314667
:10439000284600F0A3F857E0D5F88000216A20EA0B
:1043A0000106D5F88000B04204D15A46314628466D
:1043B00000F094F848E0D5F88000216A20EA010670
:1043C00026B15A463146284600F088F83CE000BF46
:1043D00000BF00BFFBF7CCFE009000BFFDF71EF84A
:1043E00000BF3C480078401E3A49087008460078F3
:1043F000D0B900F0BBFF3848008800280BDD00BFB3
:10440000FDF726F800BF0098FBF7B6FE00BF00BF1F
:1044100000F070FF11E000BFFDF71AF800BF009830
:10442000FBF7AAFE00BF08E000BFFDF711F800BFD0
:104430000098FBF7A1FE00BF00BF00BF43F6FF20BE
:10444000A8F80000002047E700BF029F0FB1BD6839
:1044500000E00025002D7FF473AF00BF00BF00BF58
:10446000FBF786FE009000BFFCF7D8FF00BF19489D
:104470000078401E174908700846007808B900F017
:1044800075FF00BFFCF7E4FF00BF0098FBF774FE68
:1044900000BF00BF00BF0AF4004008B9FEF752FC9D
:1044A00000BF00BFFBF764FE009000BFFCF7B6FF43
:1044B00000BF206A049000BFFCF7CAFF00BF00984D
:1044C000FBF75AFE00BF00BF0020A8F800000498C8
:1044D00002E70000E8020020AC02002070B50446AC
:1044E0000E46154634342665002060702070E56065
:1044F000A078343C082816D2DFE800F0040508094B
:104500000706101100BF00BF00BF0DE000BF20462E
:1045100001F0DEFC002084F8360005E000BF042036
:1045200084F8360000E000BF00BF204600F069FCC0
:1045300070BD0000002400BF1DE000BF00BFFBF7FE
:1045400017FE044600BFFCF769FF00BF0A48006879
:10455000401C0949086009480068401C0749086078
:1045600000BFFCF775FF00BF2046FBF705FE00BF4C
:1045700000BFFEF789FAE0E7940200200003002064
:1045800010B58AB0044600200E4908600B200021B7
:104590000591CDE90704069108460B4909680B4AC5
:1045A00012680B4B1B68CDE90132CDE903101F20C7
:1045B0000023084A08A100900C48FEF717FE0AB035
:1045C00010BD000094020020D88B0008D48B000896
:1045D000D08B00083545000875432F4F532D4949AE
:1045E000492049646C65205461736B00F8C0002059
:1045F0002DE9F84F04460D4616461F46DDE90BAB84
:10460000DDF82890DDF834800020009000BF00BF66
:10461000FBF7AEFD009000BFFCF700FF00BF2C4889
:1046200000882C49098888423EDA29480088401CC5
:1046300027490880284800880988884203DA2448E6
:1046400000882549088025480068046023480068E0
:10465000856022480068C6602048006807821F48BD
:104660000068C0F814901D480068A0F818A01B4806
:104670000068C0F81CB01948006840681749086015
:10468000012017490881174808604860002000F0A1
:1046900087FC1548007818B1134800781349087052
:1046A0000020A8F8000008E011480088401C1049CC
:1046B000088044F25360A8F8000000BFFCF7C8FE71
:1046C00000BF0098FBF758FD00BF00BFBDE8F88FA2
:1046D000AC020020E48B0008AE020020A4020020FF
:1046E00094C20020C0C10020CE020020D0020020D1
:1046F000B00200203EB5594800680068584A811A47
:10470000904279D00FDC5749084400283ED05649E2
:104710000844A8B155490844002860D054490844C9
:1047200000286AD13FE053480844002850D052493D
:104730000844002862D0514908440028F1D110E013
:1047400002A8464D00902D68EB69444D2D682A8BD8
:10475000424D2D686969414D2D68A868FFF780FDBD
:104760007AE002A93D480068C0693C4DCDE90001EE
:104770002D682B8B394D2D682A8A384D2D68E968B4
:10478000364D2D68A86800F03BFC65E0334B1B6894
:10479000DA69324B1B68198B304B1B68986802AB87
:1047A00000F084FE58E002A92C480068C0692B4D37
:1047B000CDE900012D682B8B284D2D682A8A274DC5
:1047C0002D68E968254D2D68A86801F04BFA43E093
:1047D00022490968886802A901F088FB3CE01F4B68
:1047E0001B68DA691D4B1B68198B1C4B1B6898688A
:1047F00002AB01F045FC2FE007E02CE01749096807
:10480000886802A901F010FF26E01D49097801EB34
:1048100041011C4A02EB810000F0C6FD0F48006810
:1048200002AB0021C269184801F02AFC1748006851
:10483000401E164908600846006858B914480068C8
:104840000860FCF779FE044602AB224600211148BD
:1048500001F016FC00E000BF00BF3EBDA802002032
:104860005449434BADBAB2BE0DF90BFAF2F8F7FF5B
:104870000006F6FF00F7FDF700FFEFFF03FE0FFE57
:10488000D002002094C20020DCC400203C030020A1
:1048900038030020A4C50020002700BF56E00026F2
:1048A00052E000BF00BFFBF763FC074600BFFCF708
:1048B000B5FD00BF2648008898B900202549088129
:1048C0000860486000F07EFB00BFFCF7C1FD00BF40
:1048D0003846FBF751FC00BF00BFFEF733FA012654
:1048E00032E000BFFCF7B4FD00BF3846FBF744FCE4
:1048F00000BF00BFFCF720FE0546FFF7FBFEFCF7FC
:104900001BFE441B14480068A04201D212480460F8
:1049100000BF00BFFBF72CFC074600BFFCF77EFD85
:1049200000BF0E48006840680C49086008480088CD
:10493000401E0749088000BFFCF78AFD00BF3846CB
:10494000FBF71AFC00BF00BF002EAAD0A7E70000AB
:10495000AC02002094C20020B4020020A802002073
:10496000F0B589B00546002031490880314800681B
:1049700020B944F25260288009B0F0BD2E4800886A
:10498000022803DA44F254602880F5E700202B491E
:104990000860284804682646203600270CE028488E
:1049A00020600020A060E06020826061208366605B
:1049B00020342036781C87B21F4800888742EEDBFF
:1049C000203C1C48066866601E4806601E4806605B
:1049D00000201E4908801E4908801E48006818B93A
:1049E00044F255602880C7E71B4800681B490968E6
:1049F000884203D244F256602880BDE7032000219C
:104A00000591CDE90705069113480068144A12681C
:104A1000104B1B68CDE90301CDE9013200910B4633
:104A2000104A11A11748FEF7E1FB00BFA4E7000000
:104A3000B0020020E08B0008E48B0008B4020020E4
:104A40004E4F4E45A4020020A8020020AC020020D8
:104A5000AE020020EC8B0008F48B00082C8C0008C0
:104A6000F08B00089948000875432F4F532D494992
:104A70004920495352205175657565205461736B07
:104A800000000000C0C100200021034A1160034A59
:104A90001180018070470000C0020020C402002085
:104AA00070B501461A4D2D681DB945F21E750D8071
:104AB00070BD184D2D881DB945F21D750D80F7E7A5
:104AC000134D28682A681032124D2D886D1EACB225
:104AD000002308E00260002545600581C5601030B4
:104AE00010325D1CABB2A342F4DB002505604560CB
:104AF0000581C560064D2D68074E3560054D2D8832
:104B0000B5800025F58035810D8000BFD0E700001D
:104B1000108C0008088C000888C2002010B50146DF
:104B200048894B89002B17DD0A680C4B1B68136002
:104B30000A4C4B6823602346DB884C891B1B074CBF
:104B4000E38023469B884C892344044CA3800023A4
:104B50004B818B810B604B6010BD000088C2002030
:104B60000181002242818281026042607047000020
:104B70002DE9F0410D46DDE90674B0F80AC0B0F841
:104B80000880C44505DB46F2935CA4F800C0BDE88C
:104B9000F081DFF8DCC0BCF804C0BCF1000F04D128
:104BA00045F21D7CA4F800C0F1E7DFF8C4C0DCF8D2
:104BB0000010DFF8BC80D1F800C0C8F800C0C446BF
:104BC000BCF804C0ACF1010CA8F804C0C446BCF8A1
:104BD00006C00CF1010CA8F806C0C446BCF808C019
:104BE000B8F80680C44507DADFF884C0BCF806C010
:104BF000DFF87C80A8F808C0B0F80AC0BCF1000F4C
:104C00000AD1016041604FF0010CA0F80AC04FF0DA
:104C1000000CC1F800C017E003F0100CBCF1000F4D
:104C200007D10668316001604FF0000CC1F800C088
:104C300004E0D0F804C0C1F800C04160B0F80AC078
:104C40000CF1010CA0F80AC0B0F80CC0B0F80A8052
:104C5000C44503DAB0F80AC0A0F80CC04D600A8160
:104C6000CF604FF0000CA4F800C000BF8FE7000039
:104C700088C200200021034A1160034A118001808C
:104C800070470000C8020020CC0200202DE9F0414E
:104C900005460C4616461F461548006880F83460E5
:104CA00000201349096881F835003946104800682A
:104CB00000F00AFF6CB104F10808EC6001222946FB
:104CC0000B48006800F016F82946404600F066F8E8
:104CD00006E0002006490968C88705490968086395
:104CE00003480168204600F019F8BDE8F081000093
:104CF0004003002010B5C287016300230AE00024AE
:104D00004C600C600C614C610C83CC61886020317C
:104D10005C1CA3B29342F2DB10BD000030B548B179
:104D20004568C1F8C45000F10804226893681D6A00
:104D3000C56113E091F83450022D02D0072D08D13F
:104D400003E007A5C1F8C45007E007A5C1F8C450A7
:104D500003E008A5C1F8C45000BF00BF30BD00008B
:104D60005461736B205100005461736B2053656D67
:104D7000000000002000000030B507A5C1F8C450B5
:104D800000F1080422681AB193681D6AC56101E048
:104D900001A5C56130BD000020000000F0B58E689F
:104DA00096F8375007893FB90127078100274F60E0
:104DB0000F600160416023E007897F1C0781026862
:104DC00006E0946894F83770AF4200DD02E0526864
:104DD000002AF6D100BF32B900274F6043680B604C
:104DE000596041600CE017682FB9116000270F600F
:104DF0004A60016004E013680B604A60596011600A
:104E0000F0BD2DE9F0410446256BE68F0AE0D5F8A8
:104E10000C8008F108072946384600F00AF82035CA
:104E2000701E86B2002EF2DC0020E0872063BDE811
:104E3000F08110B50489012C03D100240460446082
:104E400011E00C6824B94A680024146002600AE08A
:104E50004C6824B90B6800245C60436003E00B6875
:104E60004A685A6013600489641E048100244C60FF
:104E70000C6010BD2DE9F84306460C4617469846CF
:104E8000089D94F83600082850D2DFE800F00405A9
:104E9000080906072B2C00BF00BF00BF47E000BF7A
:104EA00094F83400032807D143463A462146304659
:104EB000009500F03FF803E0E765A4F86080256402
:104EC00036B12046FFF79DFF21463046FFF754FFDD
:104ED000204600F0FDFF00203434A070607004F81C
:104EE000340924E000BF94F83400032807D1434676
:104EF0003A4621463046009500F01CF803E0E7658D
:104F0000A4F860802564204601F048FD36B12046B3
:104F1000FFF777FF21463046FFF72EFF0420343499
:104F2000A0700020607004F8340900E000BF00BFEA
:104F3000BDE8F883F0B50446059E086BCD8F0AE006
:104F4000C768A74204D1046142610383C66104E0DB
:104F500020306F1EBDB2002DF2DC00BFF0BD00009E
:104F600070B50025074C03E005F12000C5B2241DF3
:104F700020680028F8D02068FBF705F92844C5B25E
:104F8000284670BD74020020002004E00021034A7E
:104F900042F82010401C0028F8D07047740200200E
:104FA00030B5420900F01F030121C3F11F04A140E5
:104FB000034C54F822400C43014D45F8224030BDCB
:104FC0007402002030B5420900F01F030121C3F133
:104FD0001F04A140034C54F822408C43014D45F876
:104FE000224030BD740200200021034A1160034AB0
:104FF0001180018070470000D4020020D8020020F8
:105000002DE9F04F85B007468A4693461C4600209E
:10501000029000BF00BF00BFFBF7AAF8029000BFDC
:10502000FCF7FCF900BF56480078401C5449087052
:1050300008460078012801D100F08AF900BFFCF78A
:1050400007FA00BF0298FBF797F800BF00BF00BF48
:1050500007F10806308900284CD104F0100010B97F
:105060004FF0000801E04FF01008DDE90E01434663
:105070005A46CDE90001514607F12000FFF778FDBF
:1050800000BF00BF00BFFBF773F8029000BFFCF742
:10509000C5F900BF3A480078401E394908700846F3
:1050A0000078D0B900F062F93648008800280BDD9E
:1050B00000BFFCF7CDF900BF0298FBF75DF800BF19
:1050C00000BF00F017F911E000BFFCF7C1F900BF05
:1050D0000298FBF751F800BF08E000BFFCF7B8F9F1
:1050E00000BF0298FBF748F800BF00BF00BF05B043
:1050F000BDE8F08F04F4007008B1358900E00125A7
:10510000D6F8009011E0D9F808000390D9F804000F
:1051100004900E985B465246009038460399FFF77C
:10512000A9FEDDF81090681E85B2002DEBD100BFFE
:1051300000BF00BFFBF71CF8029000BFFCF76EF940
:1051400000BF0F480078401E0D49087008460078DF
:1051500008B900F00BF900BFFCF77AF900BF02981C
:10516000FBF70AF800BF00BF00BF04F4004008B915
:10517000FDF7E8FD00210F98018000BFB7E70000B0
:10518000E8020020AC02002000210AE001EB41020D
:10519000054B03EB820000220281026042604A1C40
:1051A000D1B22029F2D3704794C2002010B5044632
:1051B00094F83700FFF7F4FE94F8370005490978B2
:1051C000884203D1204600F027F802E0204600F094
:1051D00003F810BDCE02002010B590F8373003EB75
:1051E00043030C4C04EB83010B893BB901230B8176
:1051F0000023C36003610860486009E00B895B1C01
:105200000B810B68C360002303610A6810610860AA
:1052100010BD000094C2002010B590F8373003EBA9
:1052200043030B4C04EB83010B893BB901230B8136
:105230000023C36003610860486008E00B895B1CC1
:105240000B810023C3604A680261D060486010BDD2
:1052500094C2002010B501460C8924B1012C03D062
:10526000022C0CD101E000BF14E008684A6802611A
:105270000024C4601461D0600A6048600AE00868D5
:105280004A68C36800241C61C4600261D0600B607E
:10529000486000BF00BF10BD2DE9F041054695F8FC
:1052A000370000EB4000124901EB80042F69EE68E3
:1052B00087B946B9002020812060606095F83700EA
:1052C000FFF780FE0EE02089401E20810020306123
:1052D000266007E02089401E2081FE600EB96760CD
:1052E00000E0376100202861E860BDE8F08100003F
:1052F00094C2002010B5002400BFFAF739FF04461D
:1053000000BF00200D4908700D480E49086008468E
:105310000068D0F89000401C0968C1F890000A4865
:105320000068401C084908604FF080500749086039
:1053300000BF2046FAF720FF00BF10BDCF020020BB
:10534000C0C10020440300201403002004ED00E04D
:1053500010B504480078012803D1FCF7EDF80249A4
:10536000086010BDE8020020DC02002010B50A48E9
:10537000007880B9FCF7E0F808490968441A084841
:105380000068A04201D20648046006480068A042B6
:1053900001D20448046010BDE8020020DC020020B5
:1053A000E0020020E402002070B5054600263548E2
:1053B0000078012800D070BD00BF00BFFAF7D8FE0A
:1053C000064600BFFCF72AF800BF2C684CB900BFA6
:1053D000FCF73EF800BF3046FAF7CEFE00BF00BF34
:1053E000E9E72948844209D100BFFCF731F800BF42
:1053F0003046FAF7C1FE00BF00BFDCE7A06D10B178
:10540000A06D401EA065A06D48B100BFFCF720F85C
:1054100000BF3046FAF7B0FE00BF00BFCBE72889D7
:10542000022809DA00BFFCF713F800BF3046FAF78C
:10543000A3FE00BF00BFBEE714480078002809DDC6
:1054400000BFFCF705F800BF3046FAF795FE00BF35
:1054500000BFB0E72846FFF7FDFE2C68606D18B965
:105460000B480068A06501E0606DA06500BFFBF718
:10547000EFFF00BF3046FAF77FFE00BF00BF00BF5E
:1054800099E70000F0020020F8C00020E8020020A8
:10549000EC0200200021034A1160034A11800180C0
:1054A00070470000F4020020F80200202DE9FF5FA1
:1054B0000446884691461D460020019000BF00BF6B
:1054C000FAF756FE019000BFFBF7A8FF00BF04F1FA
:1054D00008073889002857D10420012804D0022861
:1054E00016D004283AD127E0206AFF280FD100BF48
:1054F000FBF7AEFF00BF0198FAF73EFE00BF00BF0A
:1055000046F6C5502880002004B0BDE8F09F26E094
:105510004FF6FF71206A88420DD100BFFBF798FF5C
:1055200000BF0198FAF728FE00BF00BF46F6C5503D
:1055300028800020E8E712E0206A401C68B900BF1C
:10554000FBF786FF00BF0198FAF716FE00BF00BF09
:1055500046F6C55028800020D6E700E000BF00BF17
:10556000206A401C2062D4F820A0C4F8249000BF18
:10557000FBF76EFF00BF0198FAF7FEFD00BF00BF0A
:10558000002028805046BFE700BF2D480078401C0F
:105590002B49087008460078012801D1FFF7D8FE92
:1055A00000BFFBF755FF00BF0198FAF7E5FD00BF0C
:1055B00000BF00BF08F4007008B13E8900E001267A
:1055C000D7F800B011E0DBF808000290DBF8040027
:1055D000039000231A46CDF8009020460299FFF769
:1055E00049FCDDF80CB0701E86B2002EEBD1D4F869
:1055F00020A000BF00BF00BFFAF7BAFD019000BFB6
:10560000FBF70CFF00BF0E480078401E0C490870E5
:105610000846007808B9FFF7A9FE00BFFBF718FF9E
:1056200000BF0198FAF7A8FD00BF00BF00BF08F453
:10563000004008B9FDF786FB00202880504663E74C
:10564000E802002086B00020009000BF06E0D949A3
:105650000968480001AA0021FEF7FAFAD648007846
:105660000128F4D101A8FDF783FC0027D348006886
:10567000D0490968884205D9D0480068CD490968F1
:10568000B0FBF1F727B9CD4800680A21B0FBF1F76C
:105690008EE1FBF751FF8246FBF7AAFEC84908607E
:1056A00000BF00BFFAF764FD009000BFFBF7B6FE35
:1056B00000BFC4480068C44908600020C1490860B0
:1056C00000BFFBF7C5FE00BF0098FAF755FD00BF0D
:1056D00000BFBE480068BC490968884248D9BB4839
:1056E0000068BB49884205D242F210700390012045
:1056F000029023E0B5480068B649884205D24FF4CD
:105700007A7003900A20029018E0B0480068B2490D
:10571000884203D26420039002900FE0AB480068F7
:10572000AE49884205D20A2003904FF47A70029065
:1057300004E00120039042F210700290A348016837
:105740000298B1FBF0F9A049039809684843B0FBFF
:10575000F9F042F21071081AA1490880A1480088A6
:105760000988884208DA9E4800889E49088003E03C
:1057700042F210709A490880FDF72EFD002500BF07
:1057800000BFFAF7F5FC009000BFFBF747FE00BF33
:105790009548046800BFFBF75BFE00BF0098FAF76E
:1057A000EBFC00BF00BF72E000BF00BF00BFFAF714
:1057B000DFFC009000BFFBF731FE00BF8B48007894
:1057C000401C8A49087008460078012801D1FFF77B
:1057D000BFFD00BFFBF73CFE00BF0098FAF7CCFC12
:1057E00000BF00BF00BF54F89C0F6060002044F869
:1057F0009C0900BF00BF00BFFAF7BAFC009000BFD1
:10580000FBF70CFE00BF79480078401E774908700E
:1058100008460078D0B9FFF7A9FD75480088002830
:105820000BDD00BFFBF714FE00BF0098FAF7A4FCE5
:1058300000BF00BFFFF75EFD11E000BFFBF708FEF1
:1058400000BF0098FAF798FC00BF08E000BFFBF724
:10585000FFFD00BF0098FAF78FFC00BF00BF00BF3C
:10586000D4F8A000054400BF00BFFAF781FC009007
:1058700000BFFBF7D3FD00BFD4F8C04000BFFBF76B
:10588000E7FD00BF0098FAF777FC00BF00BF002CCF
:105890008AD145B34E48854205D242F21070059038
:1058A0004FF0010B1BE04B48854205D24FF47A7054
:1058B00005904FF00A0B12E04748854203D264205E
:1058C000059083460BE04548854204D20A200590A6
:1058D0004FF47A7B03E00120059042F2107BB5FB88
:1058E000FBF0049003E0002005900120049000BF2D
:1058F00000BFFAF73DFC009000BFFBF78FFD00BF33
:105900003948046800BFFBF7A3FD00BF0098FAF711
:1059100033FC00BF00BF2FE0D4F8A0000599484336
:105920000499B0FBF1F086B242F21070864200D9C1
:105930000646A4F88C60B4F88E00B04201DAA4F8F0
:105940008E6001AB04F1AC02111D2046FEF72CF86D
:1059500000BF00BFFAF70CFC009000BFFBF75EFD34
:1059600000BFD4F8C04000BFFBF772FD00BF009835
:10597000FAF702FC00BF00BF002CCDD11D48007813
:10598000012805D100201B49087001A8FDF7F0FA95
:10599000FBF7D2FDA0EB0A0817480068404502D289
:1059A0001548C0F8008001AA00213846FEF750F9DA
:1059B0006FE60000188C00080C030020308C0008F3
:1059C0009C020020000300200803002004030020A4
:1059D000801A060000093D00005A62020084D717B1
:1059E000FC020020FE02002018030020E802002034
:1059F000AC020020FA0200201003002010B58AB08B
:105A0000044600201F4908601F4908601F490860BC
:105A10001F4908701F4908701F48006820B946F6E2
:105A20002B6020800AB010BD1C4800681C49096822
:105A3000884203D246F62C602080F3E719480078AC
:105A40001F2803D346F62A602080EBE703200021BD
:105A50000591CDE907040691084610490968124AE4
:105A600012680D4B1B68CDE90132CDE903100D48DA
:105A7000007800230D4A0EA100901248FDF7B6FBF6
:105A800000BFCFE70003002008030020040300202C
:105A90000C030020FA0200201C8C0008248C000853
:105AA0002C8C0008148C0008208C00084556000837
:105AB00075432F4F532D4949492053746174205425
:105AC00061736B0014C4002038B504460D4685B1DF
:105AD0006B4602222946204600F082FEBDF80000F7
