:020000040800F2
:1000000040C80020450100088F1C00082F19000877
:10001000CD1B0008690F0008C76D00080000000034
:10002000000000000000000000000000FF63000866
:10003000D5120008000000006F04000839310008E4
:100040005F0100085F0100085F0100085F01000810
:100050005F0100085F0100085F0100085F01000800
:10006000991400085F010008D51400085F0100081A
:100070005F0100085F0100085F0100085F010008E0
:100080005F0100085F010008D10400085F0100085B
:100090005F0100085F0100085F01000815150008F6
:1000A0005F010008616600085F0100085F01000849
:1000B0005F010008896600085F0100085F01000811
:1000C0005F0100085F0100085F0100085F01000890
:1000D0005F0100085F010008696A0008BD6A000846
:1000E0005F0100085F0100085F0100085F01000870
:1000F0005F0100085F0100085F0100085F01000860
:100100005F0100085F0100085F0100085F0100084F
:100110005F0100085F0100085F0100085F0100083F
:100120005F0100085F0100085F0100085F0100082F
:10013000DFF80CD000F0DCF800480047C17200087E
:1001400040C800200648804706480047FEE7FEE713
:10015000FEE7FEE7FEE7FEE7FEE7FEE7FEE7FEE777
:10016000E96400083101000872B6704762B6704752
:10017000EFF3108072B6704780F31088704730BF7D
:10018000704720BF7047B0FA80F0704790FAA0F037
:10019000B0FA80F0704790FAA0F07047D2B201E058
:1001A00000F8012B491EFBD270470022F6E710B57C
:1001B00013460A4604461946FFF7F0FF204610BDD5
:1001C00030B505462A460B4612F8010B13F8014BD1
:1001D00008B1A042F8D01CB1002802D06D1CF1E794
:1001E000284630BD70B5064606F000FE0468054698
:1001F0000A220021304600F043F82C6070BD2DE942
:10020000F05F0546002092469B468846064681469A
:1002100040241BE0284641464746224600F020F88D
:1002200053465A46C01A914110D3114618462246E9
:1002300000F070F82D1A67EB01084F4622460120A6
:10024000002100F067F817EB00094E41201EA4F1D1
:100250000104DFDC484631462A464346BDE8F09FAC
:10026000202A04DB203A21FA02F00021704721FA0B
:1002700002F3D040C2F12002914008431946704772
:100280002DE9F04791460F4680460446002614F8B3
:10029000015B2DB100F04EF80068405DC007F6D15B
:1002A0002B2D02D02D2D18D0641E4A4639462046EB
:1002B00000F044F827B13968A14201D1C7F80080A5
:1002C00071054FF002040BD54042002803DD06F013
:1002D0008DFD0460A007BDE8F08746F48066E4E782
:1002E0000028F8DA06F082FD04606FF00040F2E7C3
:1002F000064C074D06E0E06840F0010394E8070073
:1003000098471034AC42F6D3FFF716FFB8750008D3
:10031000D8750008202A04DB203A00FA02F10020F8
:1003200070479140C2F1200320FA03F31943904033
:100330007047000000487047B47500082DE9F05F71
:1003400082460078002715468B460AF10104B9461B
:10035000302801D09DB113E014F8010B0127782853
:1003600003D0582801D045B10AE00DB1102D07D1B6
:100370000027102514F8010B02E0082500E00A25EB
:100380000026B0460EE005FB080005FB06F101273C
:1003900001EB10461FFA80F8B6F5803F00D3B9464E
:1003A00014F8010B294600F018F80028EBDABBF12D
:1003B000000F05D00FB1641E00E05446CBF800409A
:1003C000B9F1000F06D006F011FD02210160C81E30
:1003D000BDE8F09F48EA0640FAE73A2800D23038F4
:1003E00020F02002412A01D3A2F13700884201D334
:1003F0004FF0FF30704770B58C1810F8015B15F0A6
:10040000070301D110F8013B2A1106D110F8012B86
:1004100003E010F8016B01F8016B5B1EF9D12B07AB
:1004200005D40023521E0DD401F8013BFAE710F861
:10043000013BCB1A921C03E013F8015B01F8015B4E
:10044000521EF9D5A142D8D3002070BD18484FF0F4
:10045000FF010170002080F309881648016881F3CC
:10046000088815484FF08051016062B6FEE772B609
:10047000EFF3098028B1203880E8F00F0F490968B0
:10048000086000B50E4880475DF804EB0D480E4942
:100490000A78027009480D490A680260106890E8FD
:1004A000F00F203080F309884EF0040E62B67047DA
:1004B00022ED00E02801002004ED00E020010020F2
:1004C000ED2E0008AE000020AF0000202401002027
:1004D00010B54FF40871084800F030F8012804D135
:1004E000054800F027F8054908804FF408710248D4
:1004F00000F006F810BD0000002801408C3D0020EF
:1005000000220A12D3430360704721B1826842F08F
:100510000102826003E0826822F00102826070477B
:10052000014600208A6802F004020AB1012000E0BE
:10053000002070470146C86C80B2704770B5024613
:100540000020002300240B125568CEB205EA0604F1
:1005500015681D4015B10CB1012000E0002070BDF0
:10056000014600208A6802F008020AB1012000E07A
:100570000020704710B50023CBB21AB144681C4369
:10058000446002E044689C43446010BD30B50246BC
:100590000020002350680F4C20400D790C6844EA7D
:1005A00005242043506090680B4C2040D1E9025450
:1005B0002C434D7944EA450420439060D06A20F4EE
:1005C00070000C7C641EE4B2234340EA0350D06206
:1005D00030BD0000FFFEF0FFFDF7F1FF08B54FF45E
:1005E000C06001F0E5FB12208DF8000001208DF8BD
:1005F00001008DF802008DF80300684601F08AFBC7
:1006000008BDF0B504460D4600200021092D11DD7E
:10061000E068A5F10A0606EB4607072606FA07F189
:100620008843A5F10A0606EB460603FA06F10843DD
:10063000E0600CE0206905EB4507072606FA07F1A4
:10064000884305EB450603FA06F108432061072AB3
:100650000FDA606B561E06EB86071F2606FA07F1B7
:100660008843561E06EB860605FA06F108436063CA
:1006700022E00D2A0FDA206BD61F06EB86071F2615
:1006800006FA07F18843D61F06EB860605FA06F13F
:100690000843206310E0E06AA2F10D0606EB86072E
:1006A0001F2606FA07F18843A2F10D0606EB86061F
:1006B00005FA06F10843E062F0BD816841F00801E7
:1006C0008160704721B1826842F4A002826003E039
:1006D000826822F4A00282607047816841F00401C0
:1006E0008160704708B50121102005F043FD02200C
:1006F000ADF8000000208DF803006946014801F0C4
:1007000035F808BD0010014010B5FFF7EBFF00F011
:1007100003F8FFF763FF10BD00B585B00121880223
:1007200005F028FD002000908DF8040001208DF8D0
:1007300005004FF4602002900020039001208DF806
:10074000100069461748FFF721FF4FF4404005F0BD
:10075000F5FC052301220B211248FFF752FF01226D
:100760004FF408710F48FFF705FF01210D48FFF70F
:10077000CCFE0C48FFF7A1FF00BF0A48FFF7F0FED0
:100780000028FAD10748FFF7A8FF00BF0548FFF788
:10079000C7FE0028FAD101210248FFF793FF05B0F8
:1007A00000BD00000028014010B500F02BF800F05B
:1007B00001F810BD0EB50121C80205F0DBFC40F6C2
:1007C000A970ADF804004720ADF800000020ADF896
:1007D0000600ADF802008DF808006946084806F0EA
:1007E0007DF80121064805F07FFF012211460448EB
:1007F00005F09DFF0021024805F07CFF0EBD0000C2
:10080000002C014008B54FF4E06001F0D1FA192046
:100810008DF8000000208DF8010003208DF8020003
:1008200001208DF80300684601F074FA08BD00004D
:1008300008B50121102005F09DFC4020ADF8000016
:1008400004208DF803006946014800F08FFF08BDC1
:100850000010014010B5FFF7EBFF00F049F800F081
:1008600001F810BD00B587B00121480305F082FCF6
:100870004FF6FE70ADF808004720ADF804000020E8
:10088000ADF80A00ADF806008DF80C0001A9174874
:1008900006F024F80020ADF81000ADF81200012099
:1008A000ADF814000020ADF81600ADF8180004A94A
:1008B0000E4805F0A4FF50210C4805F0DEFF04218E
:1008C0000A4805F0ECFF8021084805F0DFFF01220F
:1008D0000221064805F02BFF0221044805F007FF1E
:1008E0000121024805F006FF07B000BD00340140B9
:1008F00008B54FF4E06001F05BFA2E208DF800009F
:1009000000208DF8010003208DF8020001208DF8F1
:100910000300684601F0FEF908BD000070B58AB01A
:10092000064600F03BF900F021FB00F02FF90446E9
:1009300051480068B4FBF0F5284602F01DFC01F0B8
:1009400051F909A801F068FD00F07EFB09A8032118
:1009500000220592CDE90621089005204FF4007190
:100960003322464BCDE90132CDE9031001200023AB
:10097000434A44A10090464801F0D8FD09A803214C
:1009800000220592CDE90621089005204FF4007160
:100990003322404BCDE90132CDE903100220002380
:1009A0003D4A3EA10090404801F0C0FD09A8032146
:1009B00000220592CDE90621089005204FF4007130
:1009C00033223A4BCDE90132CDE903100320002355
:1009D000374A38A100903A4801F0A8FD09A8032140
:1009E00000220592CDE90621089005204FF4007100
:1009F0003322344BCDE90132CDE90310032000232B
:100A0000314A32A10090344801F090FD09A8032139
:100A100000220592CDE90621089005204FF40071CF
:100A200033222E4BCDE90132CDE903100320002300
:100A30002B4A2CA100902E4801F078FD09A8032133
:100A400000220592CDE90621089005204FF400719F
:100A50003322284BCDE90132CDE9031003200023D6
:100A6000254A26A10090284801F060FD09A92748E1
:100A700001F0B2FE0AB070BD80730008AC0800201F
:100A8000110B0008417070205461736B205F3100BE
:100A9000FC010020AC100020310B000841707020D8
:100AA0005461736B205F3200C4020020AC18002038
:100AB000430B0008417070205461736B205F33005A
:100AC0008C030020AC200020530B000841707020E4
:100AD0005461736B205F340054040020AC28002064
:100AE000650B0008417070205461736B205F350006
:100AF0001C050020AC3000207B0B000841707020EA
:100B00005461736B205F3600E4050020340100203F
:100B100008B509E06A4600214FF4FA6002F038FA9D
:100B20002021024800F0FFFEF4E70000000C014025
:100B300008B505E06A46002141F2883002F028FA43
:100B4000F8E708B504E06A460021C82002F020FA60
:100B5000F9E708B505E06A4600214FF4FA6002F0B3
:100B600017FAF8E708B507E000F0B2F96A46002185
:100B70004FF47A6002F00CFAF6E708B505E06A4631
:100B800000214FF4FA6002F003FAF8E700B585B0EF
:100B9000684605F00FFB019805B000BD10B505F0E3
:100BA000F9FF05F08DFBFFF755FE00F0F5FC00F0B6
:100BB00089FD00F0E7FF00F0C9FE00F08DFBFFF7B4
:100BC000A3FD00F017FB00F0F3FB05F0E2FEFFF7DA
:100BD000EBFD02A006F0FAF810BD0000B3F5CABCA8
:100BE000BBAFCDEAB3C92E2E2E0A000070B5B2B04D
:100BF000002400258B4800783A287DD18948407828
:100C00003028FAD10FE08748005D0DF80400601C21
:100C1000C4B2844890F8C800A04204D100208149A1
:100C200081F8C80000E0EEE700BFC8217D48FFF76B
:100C3000BCFA9DF8190006F01EFB06039DF81A0089
:100C400006F019FB06EB00269DF81B0006F013FBCF
:100C500006EB00169DF81C0006F00DFB30447249AF
:100C600088809DF8590006F006FB06039DF85A009F
:100C700006F001FB06EB00269DF85B0006F0FBFA90
:100C800006EB00169DF85C0006F0F5FA304400EB28
:100C900080004FF6FF7101EA4000634908809DF82B
:100CA0005D0006F0E8FA06039DF85E0006F0E3FA40
:100CB00006EB00269DF85F0006F0DDFA06EB001655
:100CC0009DF8600006F0D7FA304400EB80004FF644
:100CD000FF7101EA4000544948809DF8620006F027
:100CE000CAFA06469DF8610006F0C5FA06EB001048
:100CF00028384D49887100E092E09DF8640006F0C4
:100D0000BAFA06469DF8630006F0B5FA06EB001045
:100D100028384549C8719DF8690006F0ACFA060309
:100D20009DF86A0006F0A7FA06EB00269DF86B0016
:100D300006F0A1FA06EB00169DF86C0006F09BFA8F
:100D40003044394908819DF8730006F094FA06038F
:100D50009DF8740006F08FFA06EB00269DF87500EA
:100D600006F089FA06EB00169DF8760006F083FA85
:100D700030442D4948819DF8770006F07CFA06033F
:100D80009DF8780006F077FA06EB00269DF87900CA
:100D900006F071FA06EB00169DF87A0006F06BFA81
:100DA0003044214988819DF87C0006F064FA0646AB
:100DB0009DF87B0006F05FFA06EB00101A49887375
:100DC0001AA006F003F8184881881CA005F0FEFF61
:100DD000154801881EA005F0F9FF1348418820A09E
:100DE00005F0F4FF1048817921A005F0EFFF0E48CF
:100DF000C17923A005F0EAFF0B48018924A005F082
:100E0000E5FF0948418926A005F0E0FF06488189F1
:100E100027A005F0DBFF0448817B29A005F0D6FF61
:100E200032B070BDC03C0020B03C0020B5E7B3D864
:100E3000D7B4CCACB8FCD0C2A3BA0A00B5A5BDDA11
:100E4000B5E7D1B93AA3BA25646D560A000000008F
:100E5000B3E4B5E7B5E7C1F7A3BA25646D410A006D
:100E6000B7C5B5E7B5E7C1F7A3BA25646D410A0078
:100E7000CEC2B6C831A3BA2564A1E60A00000000BC
:100E8000CEC2B6C832A3BA2564A1E60A00000000AB
:100E9000B9A4D7F7D7B4CCACA3BA25640A00000034
:100EA000B3E4B5E7B4CECAFDA3BA25640A000000D6
:100EB000B7C5B5E7B4CECAFDA3BA25640A000000E1
:100EC000CAA3D3E0B5E7C1BFA3BA256425250A00AC
:100ED0001FB500243A208DF8000030208DF8010065
:100EE0008DF802008DF8030032208DF804003520C3
:100EF0008DF8050030208DF806008DF807008DF87C
:100F000008008DF8090045208DF80A0030208DF882
:100F10000B0033208DF80C007E208DF80D000E2282
:100F200069460A4805F02CFA09A005F04FFF00BFFA
:100F300006E01DF8041009A005F048FF601CC4B2CB
:100F40000E2CF6DB07A005F041FF1FBD004400405A
:100F5000B7A2CBCDCAFDBEDDA3BA00002530325802
:100F6000200000000A00000000BFFEE710B500F0FE
:100F7000FBF800F003F800F0F3F810BD70B50026A0
:100F80000020184908801849088018490860184945
:100F9000086018490860184908601849086000246A
:100FA00000BFFFF7E5F8064600BF00250BE0002074
:100FB0001049086000F074F800F08CF80D480068E3
:100FC0000444681C85B2002DF1D00C480460002058
:100FD000084908600849086000BF3046FFF7CCF8B0
:100FE00000BF70BD380000203A0000203C00002007
:100FF00040000020480000204C0000204400002059
:1010000001460846044A1268904203D9024A12680F
:10101000801A00E0002070474400002070B50025D1
:1010200000BFFFF7A5F8054600BF0648046800BFEB
:101030002846FFF7A1F800BF2046FFF7E1FF06466C
:10104000304670BD4800002070B50025FFF7E6FF70
:10105000044600BFFFF78CF8054600BF0020044996
:10106000086000BF2846FFF787F800BF204670BD24
:101070004800002070B5002500BFFFF779F805464D
:1010800000BF0648046800BF2846FFF775F800BF98
:101090002046FFF7B5FF0646304670BD4C000020E5
:1010A00010B509480088401C074908800748008897
:1010B00018B900F083F80649086004480088401C0D
:1010C0000249088010BD0000380000203A000020CE
:1010D0003C00002010B50F480088401E0D490880D4
:1010E00008460088A0B900F069F80B490860084676
:1010F00000680A490968441A09480068A04201D2F8
:101100000748046007480068A04201D2054804600F
:1011100010BD00003A000020400000203C000020EC
:10112000480000204C00002010B5002400BF00BF84
:10113000FFF71EF8044600BFFFF7B2FF00BF102103
:10114000064800F045FD00BFFFF7C4FF00BF204682
:10115000FFF712F800BF00BF10BD0000E33D002004
:1011600010B5FFF7E1FF10BD10B50020024908607F
:1011700000F00AF810BD00003400002001490860AA
:10118000704700003400002010B50A48006840F0A5
:1011900080700849086000200749486008460068D8
:1011A00040F001000860FFF7F1FC04462046FFF71D
:1011B000E5FF10BDFCED00E0001000E001484068D4
:1011C00070470000001000E008B50121402004F045
:1011D000D1FF4020ADF8000010208DF8030003205F
:1011E0008DF802006946024800F0C0FA08BD000010
:1011F0000018014010B5FFF7E7FF4021034800F059
:1012000094FB00F051F800F023F810BD00180140E5
:1012100008B54020ADF8000048208DF8030069466D
:10122000014800F0A3FA08BD0018014008B54020AD
:10123000ADF8000010208DF8030003208DF80200A7
:101240006946024800F092FA08BD0000001801400B
:1012500010B50024FFF7DCFF04E0601CC4B20120DD
:1012600000F062F840210F4800F054FB08B1642CF4
:10127000F3DB642C01DB012010BD002404E0601CC2
:10128000C4B2012000F050F84021064800F042FBB3
:1012900008B9F02CF3DBF02C01DB0120ECE7002097
:1012A000EAE700000018014010B5FFF7BFFF40213A
:1012B000074800F038FB40F2EE2000F035F84021FE
:1012C000034800F032FB0F2000F02EF810BD0000A4
:1012D00000180140704700000EB50121082004F0FD
:1012E00039FF684605F04CFB0020ADF806001020E1
:1012F000ADF802006320ADF804004720ADF800000F
:101300006946084805F0EAFA00BF06481030008830
:1013100000F001000028F8D04FF6FE7001491031AE
:1013200008800EBD000C00400F4A10800E49243981
:10133000098841F001010C4A243A118000BF0A4992
:101340001439098801F001010029F8D04FF6FE7127
:10135000054A143A118004492439098821F0010111
:10136000014A243A11807047240C004008B501213D
:10137000082004F0FFFE4FF48070ADF8000010204C
:101380008DF8030003208DF802006946074800F03D
:10139000EDF90121082004F0EDFE4FF40070ADF8E6
:1013A00000006946014800F0E1F908BD000C014069
:1013B00010B5FFF7DBFF00F00DF84FF400710448A3
:1013C00000F0B3FA4FF48071014800F0ACFA10BDA0
:1013D000000C014000B585B00121880404F0BAFE7C
:1013E0000121082004F0C6FE4FF48060ADF8100023
:1013F00018208DF8130003208DF8120004A91A4854
:1014000000F0B4F94FF40060ADF8100004208DF83E
:10141000130004A9144800F0A9F94FF4E13000903A
:101420000020ADF80400ADF80600ADF80800ADF8F6
:101430000C000C20ADF80A0069460C4805F04EFC83
:10144000012240F22551094805F023FC012240F217
:101450002441064805F01DFC00F00AF8012103486C
:1014600005F08BFB05B000BD000C014000480040BA
:1014700008B54FF4A06000F09BFC27208DF8000019
:1014800000208DF801008DF8020001208DF8030086
:10149000684600F03FFC08BD10B5042000F068F875
:1014A00098B10120094908730948006820F010002C
:1014B000074908600846006820F004000860002022
:1014C00002498860042000F04DF810BD240000207F
:1014D0000004014010B5102000F04AF8A0B101202E
:1014E0000A4908730A48006820F0040008490860A7
:1014F0000846006820F0100008604FF42A70034985
:101500008860102000F02EF810BD0000240000209C
:101510000004014008B5202000F02AF8A0B10BA07B
:1015200005F054FC6A4600214FF47A7001F030FD5A
:1015300000210A4805F0DEF84FF40071084800F079
:10154000F4F9202000F00EF808BD0000D6D0B6CF88
:10155000B4A5B7A22E2E2E0A000000000004004001
:101560000014014001490860704700001404014064
:10157000014600200022074B1B6803EA0102054BCD
:1015800014331B680B4013B10AB1012000E00020A6
:1015900070470000000401400EB50121212004F035
:1015A000E9FD00F09DFB0420ADF8080028208DF82F
:1015B0000B0002A91C4800F0D9F80221032000F01A
:1015C000B5F80420009000208DF8040008208DF864
:1015D000050001208DF80600684600F029F8042077
:1015E0001149143108601020ADF8080048208DF82A
:1015F0000B0002A90D4800F0B9F80421002000F00A
:1016000095F81020009000208DF804000C208DF833
:10161000050001208DF80600684600F009F810204A
:101620000249103108600EBD00140140000801405D
:10163000002123498279002A3AD00A4612680368B9
:101640009A430B461A600A1D126803689A430B1DE1
:101650001A60027911440A6803681A430A60184A3A
:101660000832126803689A43154B08331A601A1D32
:10167000126803689A43124B0C331A604279102A9D
:101680000ED11A1F126803681A430D4B08331A60F3
:101690001A1D126803681A43094B0C331A600DE0D7
:1016A0000749427911440A6803681A430A6005E051
:1016B000027911440A6803689A430A60704700007F
:1016C000000401400EB50121052004F053FD00F097
:1016D00059FB2020ADF8080028208DF80B0002A946
:1016E0000C4800F043F80521002000F01FF82020EE
:1016F000009000208DF8040008208DF805000120DE
:101700008DF806006846FFF793FF20200149143149
:1017100008600EBD0008014010B50121084604F024
:1017200039FD0021012004F035FD10BD30B5002247
:101730008B071C0F0F2303FA04F20B4B8C1053F88A
:1017400024309343084C8D1044F8253023468C10E8
:1017500053F824308C07240F00FA04F42343024C7E
:101760008D1044F8253030BD080001402DE9F041CE
:10177000024600250026002000230024002791F8BF
:1017800003C00CF00F0591F803C00CF0100CBCF175
:10179000000F03D091F802C04CEA050591F800C093
:1017A000BCF1000F31D0146800202BE04FF0010C89
:1017B0000CFA00F3B1F800C00CEA03069E4220D1F7
:1017C00083004FF00F0C0CFA03F7BC4305FA03FC3F
:1017D0004CEA040491F803C0BCF1280F06D14FF085
:1017E000010C0CFA00FCC2F814C00AE091F803C026
:1017F000BCF1480F05D14FF0010C0CFA00FCC2F807
:1018000010C0401C0828D1D31460B1F800C0BCF14E
:10181000FF0F34DD546800202EE000F1080C4FF07B
:10182000010808FA0CF3B1F800C00CEA03069E4266
:1018300021D183004FF00F0C0CFA03F7BC4305FADB
:1018400003FC4CEA040491F803C0BCF1280F05D155
:1018500000F1080C08FA0CF8C2F8148091F803C0E3
:10186000BCF1480F07D100F1080C4FF0010808FA4D
:101870000CF8C2F81080401C0828CED35460BDE894
:10188000F0810000F0B50A46002300240021002565
:1018900000F00046B6F1004F02D11D4EF16901E0A3
:1018A0001B4E7168C0F3034583B200F44016B6F5D1
:1018B000401F08D121F07061154E766826F07066E1
:1018C000134F7E6012E000F48016B6F5801F06D13B
:1018D000032606FA05F4A14341F0706106E0460DC7
:1018E000360103FA06F6B14341F0706122B1460DAC
:1018F000360103FA06F6314300F00046B6F1004F18
:1019000002D1034EF16101E0014E7160F0BD0000B3
:10191000000001400246002093680B400BB10120FB
:1019200000E000207047416170470161704700BFCF
:10193000FEE721B1028842F00102028004E0028841
:101940004FF6FE731A4002807047000010B500F099
:1019500009F800F0A3F8A0200149088010BD00009C
:101960001400002008B50121480504F0F3FB012113
:10197000082004F0FFFB4020ADF8000003208DF8A4
:1019800002001C208DF8030069460848FFF7EEFEB0
:101990008020ADF8000003208DF802001C208DF897
:1019A000030069460148FFF7E1FE08BD000C014055
:1019B0002DE9F04385B004460D460026B1460427C4
:1019C000DFF8CC80A6884FF6C0700640684604F069
:1019D000F1FBDDF808802F48B8FBF0F01FFA80F922
:1019E00046EA0906A68020884FF6FE71084020804E
:1019F00000262949286888420CD828684000B8FB8E
:101A0000F0F087B2042F00DA04273E4309F1010009
:101A1000208427E0E8884BF6FF71884206D12868C9
:101A200000EB4000B8FBF0F087B209E0286800EB5B
:101A3000C00101EB0010B8FBF0F087B247F480471B
:101A4000C7F30B0008B947F0010747F4004006430D
:101A50004FF4967009FB00F04FF47A7190FBF1F0AF
:101A6000401C2084A683208840F001002080268826
:101A70004FF6F5300640A88869890843064326805A
:101A8000A88929890843208105B0BDE8F0830000BA
:101A900000127A0040420F00A08601001FB500200E
:101AA000ADF804004BF6FF70ADF806000A20ADF863
:101AB00008004FF48060ADF80A000001ADF80C009A
:101AC0000548009069460548FFF772FF0121034869
:101AD000FFF72FFF1FBD0000801A060000540040D2
:101AE00008B50121082004F045FB2020ADF80000D6
:101AF00010208DF8030003208DF8020069461F486E
:101B0000FFF734FE0121082004F034FB0120ADF87A
:101B1000000069461948FFF729FE0121082004F05A
:101B200029FB0220ADF8000069461448FFF71EFEAD
:101B30000121082004F01EFB4FF40050ADF8000016
:101B400069460E48FFF712FE0121082004F012FB3F
:101B50004FF48040ADF8000069460848FFF706FEE4
:101B60000121202004F006FB4FF40070ADF80000C6
:101B700069460348FFF7FAFD08BD0000000C01406C
:101B80000014014010B5FFF7ABFF4FF480410D4842
:101B9000FFF7CBFE20210B48FFF7C7FE01210948C4
:101BA000FFF7C3FE02210748FFF7BFFE4FF40051C5
:101BB0000448FFF7BAFE4FF400710348FFF7B3FE85
:101BC00010BD0000000C01400014014000BFFEE702
:101BD00030B505460C4622460021284600F026F87E
:101BE00030BD00000D480E490160014641600021F2
:101BF0008160C160016141618161C1610162016314
:101C0000C162416207498163C1634FF4D8410164F5
:101C100041640146044A116070470000F43D002011
:101C2000484541503C3E0020500000202DE9F04145
:101C300003460C4617460FB9BDE8F08103B9FBE730
:101C40000025002202E02D022543521C042AFAD36B
:101C5000384603F0030C1946BCF1000F08D0624669
:101C600003E001F8014B401E521C08B1042AF8D3CE
:101C70000E4601E020C6001F0428FBD2314602E0D8
:101C800001F8014B401E0028FAD100BFD4E770478D
:101C900008B54FF4C06000F08BF81D208DF80000EF
:101CA00000208DF8010002208DF8020001208DF83F
:101CB0000300684600F02EF808BD08B54FF4A06098
:101CC00000F076F825208DF8000001208DF8010045
:101CD0008DF802008DF80300684600F01BF808BD7F
:101CE00008B54FF4C06000F063F808208DF80000DC
:101CF00001208DF801008DF802008DF80300684680
:101D000000F008F80A208DF80000684600F002F89C
:101D100008BD000070B5002100230F22C47804B371
:101D2000154C246804F4E064C4F5E064210AC1F1B0
:101D30000403CA40447804FA03F184781440214330
:101D400009010E4C0678A155047804F01F05012402
:101D5000AC4005786D11AD0005F1E025C5F80041F6
:101D600009E0047804F01F050124AC40044D067816
:101D7000761145F8264070BD0CED00E000E400E06F
:101D800080E100E008B54FF4C06000F011F81720C2
:101D90008DF8000001208DF8010002208DF802006E
:101DA00001208DF803006846FFF7B4FF08BD00006E
:101DB00002490143024A1160704700000000FA0521
:101DC0000CED00E07047000010B50348006810B14A
:101DD00001480068804710BD6400002070B50446CB
:101DE00000F0C2F800204849087048490870484986
:101DF00008704849086048490860484908704849DF
:101E000008704849087048490860484908604849CE
:101E1000086048490870484800680A21B0FBF1F0A2
:101E2000464908604648006858B14648056845B1CB
:101E30004348066803E0761E002028602D1D002E12
:101E4000F9D10020404908604049086040490860D5
:101E500040490860404908604049086040490860BE
:101E60004049087002F01AF902F018FA204601F011
:101E700075FA208800B170BD204601F08FFE2088E1
:101E800000B1F8E7204601F095FE208800B1F2E7A6
:101E9000204601F079FF208800B1ECE7204602F0EF
:101EA0002DF9208800B1E6E7204602F07DFB20886E
:101EB00000B1E0E7204602F0E7FE208800B1DAE753
:101EC000204601F0D7FD208800B1D4E7204601F07C
:101ED000E1FB208800B1CEE7204603F03DFF2088DB
:101EE00000B1C8E7204602F013FE208800B1C2E727
:101EF000204603F08DFF208800B1BCE701F054F9C3
:101F0000FFF760FF00BFB6E77800002080000020E8
:101F1000C80000202001002024010020AE00002085
:101F2000AF000020B0000020BC000020C000002056
:101F3000C4000020D000002080730008CC000020E6
:101F4000507300084C730008580000205C0000200B
:101F50006000002064000020680000206C00002069
:101F600070000020FE0000200A4A1168002002E0F4
:101F7000002204C1401C084A12689042F8D3054A66
:101F80001268054B1B6802EB8302121F034B1A6099
:101F9000704700004C7300085073000828010020AF
:101FA00010B500242E480078012800D010BD00BFD5
:101FB000FEF7DEF8044600BF2A48007828B900BFC3
:101FC0002046FEF7D9F800BFF0E726480078401E0B
:101FD0002449087008460078002805DD00BF204627
:101FE000FEF7CAF800BFE1E71F480078002805DDCA
:101FF00000BF2046FEF7C0F800BFD7E702F03AF86E
:102000001A4908700846007800EB4000184951F85A
:102010002000184908600846006817490968884286
:1020200005D100BF2046FEF7A7F800BFBEE7114864
:102030000068D0F89000401C0E490968C1F8900073
:102040000E480068401C0D4908604FF080500C4954
:10205000086000BF2046FEF78FF800BF00BFA5E76D
:102060008000002078000020C8000020AF00002081
:1020700068C000202401002020010020F40000207E
:1020800004ED00E010B5002420480078002800DDB1
:1020900010BD1F480078002800DDF9E700BFFEF7FB
:1020A00067F8044600BF01F0E5FF1A4908700846CA
:1020B000007800EB4000184951F8200017490860EB
:1020C0000846006816490968884205D100BF2046C5
:1020D000FEF752F800BFDBE710480068D0F8900028
:1020E000401C0E490968C1F890000E480068401C69
:1020F0000C4908604FF080500B49086000BF204633
:10210000FEF73AF800BF00BFC2E7000078000020E9
:10211000C8000020AF00002068C00020240100207B
:1021200020010020F400002004ED00E070B504461A
:1021300000251A480078002803DD46F6625020800A
:1021400070BD17480078012803D045F689602080CB
:10215000F6E714480078FA2803DB45F209202080CE
:10216000EEE700BF00BFFEF703F8054600BFFEF72D
:1021700097FF00BF0B480078401C0A49087002F026
:1021800071F900BFFEF7A6FF00BF2846FDF7F4FF78
:1021900000BF00BF0020208000BFD1E778000020F2
:1021A00080000020C800002070B5044600252348A8
:1021B0000078002803DD46F66550208070BD204879
:1021C0000078012803D045F689602080F6E71D4895
:1021D000007818B946F664502080EFE700BF00BFD2
:1021E000FDF7C6FF054600BFFEF75AFF00BF1548C2
:1021F0000078401E134908700846007800280CDD5E
:1022000000BFFEF767FF00BF2846FDF7B5FF00BF20
:1022100000BF46F663502080D0E702F031F900BFDE
:10222000FEF758FF00BF2846FDF7A6FF00BF00BF1E
:10223000FFF728FF0020208000BFBFE778000020C4
:1022400080000020C800002010B504461248007825
:10225000E8B901F00FFF11490870084600781049ED
:1022600008700E48007800EB40000E4951F820003D
:102270000D490860084600680C49086001200649BD
:102280000870FEF7E3F843F69920208002E045F657
:102290008A60208010BD000080000020AF00002078
:1022A000AE00002068C00020240100202001002092
:1022B0002DE9F04107464FF0000800BF00BFFDF7D1
:1022C00057FF804600BFFEF7EBFE00BF00204749E6
:1022D00008604749088047490880474908604749DE
:1022E000086047490860474908604749086047490E
:1022F000088100BFFEF7EEFE00BF4046FDF73CFF41
:1023000000BF00BF00BF00BFFDF732FF804600BF27
:10231000FEF7C6FE00BF3E48046800BFFEF7DAFEC7
:1023200000BF4046FDF728FF00BF00BF26E000BF0A
:1023300000BFFDF71DFF804600BFFEF7B1FE00BFE6
:1023400000207834E063206420602063A061A082D4
:10235000E0826062A062FEF731FF2062783C04F107
:1023600064060020B081D4F8C04000BFFEF7B2FE82
:1023700000BF4046FDF700FF00BF00BF002CD6D1D4
:1023800000BF00BFFDF7F4FE804600BFFEF788FEE9
:1023900000BF2048056800BFFEF79CFE00BF404616
:1023A000FDF7EAFE00BF00BF16E000BF00BFFDF76B
:1023B000DFFE804600BFFEF773FE00BF05F120067A
:1023C0000020B081AD6900BFFEF784FE00BF40462B
:1023D000FDF7D2FE00BF00BF002DE6D103F084FB65
:1023E00003F012FE00203880BDE8F0819400002048
:1023F0008E000020DE000020F000002004010020FC
:10240000100100207C000020C00000205CC00020E3
:10241000F8000020B4000020F8B504460026694604
:10242000364800F033FDBDF8000018B1BDF80000DB
:102430002080F8BD6A460021022000F0A9FDBDF809
:10244000000018B1BDF800002080F2E700BF00BF17
:10245000FDF78EFE064600BFFEF722FE00BF0020FD
:102460002749086000BFFEF735FE00BF3046FDF784
:1024700083FE00BF00BF002522480068224909688A
:10248000884205D91F4800681F490968B0FBF1F56B
:1024900025B91C4800680A21B0FBF1F56A46002105
:1024A000284600F075FD6946144800F0A5FABDF80D
:1024B000000018B1BDF800002080BAE700BF00BFDF
:1024C000FDF756FE064600BFFEF7EAFD00BF0020FE
:1024D0000E4908600A4800680D49086001200D494E
:1024E000087000BFFEF7F6FD00BF3046FDF744FE62
:1024F00000BF00BF0020208000BF9AE778C3002003
:10250000E00000208073000868730008F0000020DD
:10251000E4000020EC00002010B50348006810B172
:1025200001480068804710BD680000202DE9FF4F7A
:1025300087B004469046DDE91BA5DDE91496179F98
:102540000020039095480078002805DD47F24A10E6
:1025500028800BB0BDE8F08F1CB947F2AD10288081
:10256000F7E7B8F1000F03D147F24F102880F0E7EA
:102570001EB946F62F602880EBE78948006887423D
:1025800003D246F630602880E3E71698B84203D3BA
:1025900046F631602880DCE7B9F1200F03D346F21C
:1025A00073202880D5E7B9F1000F06D17D48844219
:1025B00003D046F273202880CBE7B9F11F0F06D174
:1025C0007948844203D046F273202880C1E7204630
:1025D00002F06AFB002028800AF0010090B10AF0A6
:1025E000020078B105960020069008E000210598C9
:1025F00001600598001D05900698401C06900698FD
:10260000B842F3D3169806EB80000490CDE9007A27
:1026100032464046049B0A9900F0D8FB0590C4F866
:1026200028800A98E0620898206284F8379005981C
:1026300020600498A06019986065199818B95B48E3
:102640000068A06501E01998A0651A98606066624C
:10265000A763A4F83CA04FF0000B08E0002104F1B0
:102660007C0040F82B100BF1010000F0FF0BBBF1D8
:10267000000FF3D004F16400189901F0FBFA204632
:1026800000F09EF800BF00BF00BFFDF771FD039092
:1026900000BFFEF705FD00BF45480078401C4449D7
:1026A000087008460078012801D101F0DBFE00BF68
:1026B000FEF710FD00BF0398FDF75EFD00BF00BFF1
:1026C00000BF94F8370001F0F5FC204601F02EFE23
:1026D000204602F09FFA37480088401C35490880A0
:1026E00035480078012837D000BF00BF00BFFDF794
:1026F0003FFD039000BFFEF7D3FC00BF2C480078DD
:10270000401E2B49087008460078D0B901F0B8FE89
:102710002A48008800280BDD00BFFEF7DBFC00BF65
:102720000398FDF729FD00BF00BF01F06DFE11E029
:1027300000BFFEF7CFFC00BF0398FDF71DFD00BFF3
:1027400008E000BFFEF7C6FC00BF0398FDF714FDCC
:1027500000BF00BF00BFFCE600BF00BF00BFFDF729
:1027600007FD039000BFFEF79BFC00BF10480078F8
:10277000401E0F4908700846007808B901F080FE35
:1027800000BFFEF7A7FC00BF0398FDF7F5FC00BFF4
:1027900000BF00BFFFF776FC00BFDAE6780000203C
:1027A0007C73000894BF0020CCBE0020CC00002029
:1027B000C8000020FC000020800000208C000020C9
:1027C00010B504460348006818B12046014909685D
:1027D000884710BD5800002070B504460D460026FD
:1027E00078480078002803DD47F24E10288070BD3D
:1027F0007548844203D147F24C102880F7E77348AC
:10280000844203D147F24D102880F0E79CB900BF05
:1028100000BFFDF7ADFC064600BFFEF741FC00BF60
:102820006B48046800BFFEF755FC00BF3046FDF75B
:10283000A3FC00BF00BF00BF00BF00BFFDF798FCB6
:10284000064600BFFEF72CFC00BF62480078401C23
:102850006049087008460078012801D101F002FEA5
:1028600000BFFEF737FC00BF3046FDF785FC00BF18
:1028700000BF00BF94F8360008282DD2DFE800F032
:1028800004090E10080A0F11204601F08FFD5EE0CA
:102890005DE000BF204603F00BF958E000BF00BF29
:1028A00000BF204603F004F994F83400082810D241
:1028B000DFE800F004070508090A0B0600BF00BFA7
:1028C00008E000BF00BF00BF00BF204601F023FBAF
:1028D00000E000BF00BF3AE000BF00BF00BFFDF74F
:1028E00047FC064600BFFEF7DBFB00BF3948007817
:1028F000401E3849087008460078D0B901F0C0FD84
:102900003548008800280BDD00BFFEF7E3FB00BF61
:102910003046FDF731FC00BF00BF01F075FD11E04E
:1029200000BFFEF7D7FB00BF3046FDF725FC00BF18
:1029300008E000BFFEF7CEFB00BF3046FDF71CFCF1
:1029400000BF00BF00BF46F62D6028804FE700BFE4
:1029500004F1640001F06CF9204600F041F82046D3
:1029600002F070F91D480088401E1C49088020466E
:1029700002F09AF9FF2084F8360000BF00BF00BFC4
:10298000FDF7F6FB064600BFFEF78AFB00BF1148C5
:102990000078401E0F4908700846007808B901F019
:1029A0006FFD00BFFEF796FB00BF3046FDF7E4FB6E
:1029B00000BF00BF00BF00202880FFF763FB00BFFF
:1029C00015E7000078000020CCBE002094BF002056
:1029D00020010020C80000208C000020FC00002006
:1029E00010B504460348006818B12046014909683B
:1029F000884710BD5C0000207FB504460D460026C8
:102A000000BF00BFFDF7B4FB064600BFFEF748FB62
:102A100000BF1CB11748006884420CD100BFFEF70C
:102A200059FB00BF3046FDF7A7FB00BF00BF47F2D0
:102A3000571028807FBD00BFFEF74CFB00BF30461B
:102A4000FDF79AFB00BF00BF0B48007800280BDDA4
:102A5000002000900190034602462146CDE9020580
:102A6000064800F04FFEE5E72946204602F0C8FA86
:102A700000BFDFE7200100207800002054524553BA
:102A800010B504460348006818B12046014909689A
:102A9000884710BD600000202DE9F04780460E46B3
:102AA00014461D464FF000098C480078002805DDCB
:102AB00046F2AE1028800020BDE8F0871EB1B6F5C2
:102AC000004F02D100E000BF04E045F625602880F9
:102AD0000020F1E700BF0CB10020206000BF00BF64
:102AE000FDF746FB814600BFFEF7DAFA00BF7C48DF
:102AF0000068406CB8B37A480068406C401E784962
:102B00000968486476480068476C1CB174480068DE
:102B1000006C2060FEF752FB71490968096C401A8D
:102B20006F490968C1F8A4006D480068D0F8A80092
:102B30006B490968D1F8A410884207D26848006838
:102B4000D0F8A40066490968C1F8A80000BFFEF7E4
:102B5000C1FA00BF4846FDF70FFB00BF00BF0020D1
:102B600028803846A8E7FFE706F4004068B100BFB8
:102B7000FEF7B0FA00BF4846FDF7FEFA00BF00BFFF
:102B800046F2B0102880002096E7564800780028CA
:102B90000DDD00BFFEF79EFA00BF4846FDF7ECFAD8
:102BA00000BF00BF46F663502880002084E700BFC6
:102BB0004C480078401C4B490870084600780128B2
:102BC00001D101F04FFC00BFFEF784FA00BF484678
:102BD000FDF7D2FA00BF00BF00BF43460722002125
:102BE000084601F0DDF800BF00BF00BFFDF7C0FAE6
:102BF000814600BFFEF754FA00BF3A480078401EF5
:102C0000384908700846007808B901F039FC00BF5F
:102C1000FEF760FA00BF4846FDF7AEFA00BF00BFFE
:102C200000BFFFF72FFA00BF00BFFDF7A1FA8146F2
:102C300000BFFEF735FA00BF2948006890F835005C
:102C400020B1012826D0032834D12CE0FCB124483F
:102C50000068006C2060FEF7B1FA21490968096C30
:102C6000401A1F490968C1F8A4001D480068D0F83F
:102C7000A8001B490968D1F8A410884207D2184857
:102C80000068D0F8A40016490968C1F8A80000201F
:102C9000288013E01CB112480068006C206046F2E6
:102CA000A91028800AE00CB10020206047F2D9204A
:102CB000288003E046F62E60288000BF00BF084849
:102CC0000068476C00BFFEF705FA00BF4846FDF7F5
:102CD00053FA00BF00BF3846EEE60000780000203F
:102CE00020010020C80000202DE9F04705460E46CF
:102CF00017461C464FF0000A32480078002804DDD1
:102D000047F259102080BDE8F0871EB946F2D52061
:102D10002080F8E71FB946F2D5202080F3E700BFF6
:102D200000BFFDF725FA824600BFFEF7B9F900BFE4
:102D30000DB925480568286878B900BFFEF7CAF9BB
:102D400000BF5046FDF718FA00BF00BF00203060FA
:102D5000386047F252102080D5E795F83C0000F02B
:102D6000010078B900BFFEF7B5F900BF5046FDF786
:102D700003FA00BF00BF00203060386047F25410F3
:102D80002080C0E700BFFEF7A5F900BF5046FDF761
:102D9000F3F900BF00BF4FF00008D5F8249003E01E
:102DA00009F1040908F10108D9F800000028F7D05A
:102DB000C6F80080A86BA0EB0800386000202080D7
:102DC00000BFA0E77800002020010020F0B50446F5
:102DD000DDE9055602EB85004FF0807C071F384681
:102DE000C7F800C0071F38463C60DFF89CC0071FCB
:102DF0003846C7F800C04FF0123C071F3846C7F8E6
:102E000000C04FF0033C071F3846C7F800C04FF022
:102E1000023C071F3846C7F800C0071F38463B6012
:102E2000071F384639604FF0113C071F3846C7F876
:102E300000C04FF0103C071F3846C7F800C04FF0E5
:102E4000093C071F3846C7F800C04FF0083C071F71
:102E50003846C7F800C04FF0073C071F3846C7F890
:102E600000C04FF0063C071F3846C7F800C04FF0BF
:102E7000053C071F3846C7F800C04FF0043C071F49
:102E80003846C7F800C0F0BD7D5100087FB5054643
:102E90000C461248854203D147F25B1020807FBD6B
:102EA0000F48854203D147F25C102080F7E70D48B8
:102EB000007800280BDD00200090019003460246B8
:102EC0002946CDE90204084800F01CFCE7E721464A
:102ED000284602F033FC00BFE1E70000CCBE002032
:102EE00094BF0020780000205453555370B52448F7
:102EF000006810B1224800688047FEF75FF9044679
:102F00002048006820490968884215D01D4800689B
:102F1000D0F89800201A1B490968C1F89400194894
:102F20000068D0F89C0017490968D1F8941008444B
:102F300014490968C1F89C0013480068C0F898401B
:102F4000FEF782F805460F480068D0F8B400A842A2
:102F500003D20C480068C0F8B4500A480068D0F8A2
:102F6000B8000A490968884205D20848006805493E
:102F70000968C1F8B80000200449086070BD00006D
:102F80006C0000202001002024010020C40000204B
:102F90002DE9F04105460E46144600274D480078BD
:102FA000002804DD47F275202080BDE8F0814A4802
:102FB0000078002803DD46F663502080F5E736B13F
:102FC000022E05D0042E0AD0082E09D101E000BF40
:102FD00000BF1DB947F27E202080E6E704E003E051
:102FE00045F625602080E0E700BF00BF00BF00BFBE
:102FF000FDF7BEF8074600BFFEF752F800BF36489F
:103000000078401C3449087008460078012801D136
:1030100001F028FA00BFFEF75DF800BF3846FDF763
:10302000ABF800BF00BF00BF01202C49096881F840
:1030300036002346324629462848006802F05AFCEA
:103040002088F0B100BF00BF00BFFDF791F8074630
:1030500000BFFEF725F800BF1F480078401E1E493C
:1030600008700846007808B901F00AFA00BFFEF7B8
:1030700031F800BF3846FDF77FF800BF00BF00BF42
:1030800093E71648006801F091F900BF00BF00BF48
:10309000FDF76EF8074600BFFEF702F800BF0E48C6
:1030A0000078401E0C4908700846007808B901F005
:1030B000E7F900BFFEF70EF800BF3846FDF75CF8F1
:1030C00000BF00BF00BFFEF7DDFF0020208000BF73
:1030D0006BE7000078000020C800002020010020DD
:1030E00010B586B000F01EF8FEF768F8044605A893
:1030F00000210091CDE9011403900748007800EB0E
:103100004000064A02EB800100231A46044800F002
:10311000F9FA06B010BD0000AE00002068C0002023
:103120005449434B10B50348006810B1014800688A
:10313000804710BD7000002010B5002400BF00BF04
:10314000FDF716F8044600BFFDF7AAFF00BF0948C7
:103150000078401C0749087000BFFDF7BBFF00BFA7
:103160002046FDF709F800BF00BFFFF7B9FFFEF7E3
:1031700017FF10BD7800002001464A1E4FF0E023E3
:103180005A61084A106820F07F4000BF10601A465C
:10319000126942F005021A611A46126942F00202EF
:1031A0001A61704720ED00E0254A2649264A274A41
:1031B0002749284A2848294A294A2A4A2A4A2B487C
:1031C0002B482C482C4A2D482D4A2E482E4A2F4851
:1031D0002F4830483048314A314A324A3248334A1F
:1031E000334A3448344835483548364836483748F5
:1031F000374A384A384A394A39483A483A483B4ABD
:103200003B4A3C4A3C483D483D483E493E483F4A8F
:103210003F4A404A404A414A414A424A4248434A58
:10322000434A44484448454A454A4648464A474A2C
:1032300047484848484800BF00BF00BF70470000EB
:10324000C47300082C750008C5730008C673000815
:10325000C8730008CC730008D0730008CD73000851
:10326000F8730008F9730008FA730008FC7300088B
:10327000FE7300080074000802740008047400085B
:103280002474000826740008287400082A740008B2
:103290002C7400082E740008307400085C74000858
:1032A0005D7400085E7400086074000862740008B1
:1032B0006374000864740008667400086874000889
:1032C0006A7400086C7400086E740008707400085A
:1032D000A0740008A1740008A2740008A374000878
:1032E000A4740008A6740008A8740008D07400082C
:1032F000D1740008D2740008D3740008D474000894
:10330000D6740008D8740008DC740008DD74000866
:10331000DE740008DF740008E0740008E17400083F
:10332000E2740008E3740008E4740008E67400081E
:10333000E7740008E8740008EA740008EC740008F8
:10334000ED740008F0740008247500082575000865
:1033500026750008287500082A7500080021034A10
:103360001160034A1180018070470000980000201E
:103370009C0000202DE9F04F85B004468946924616
:103380009B46DDF838800020009000BF00BFFCF7AE
:10339000EFFE009000BFFDF783FE00BFBAF1000F03
:1033A0000AD0BAF1010F0DD0BAF5004F05D06FF475
:1033B0000040504460B906E000BF206A40EA0900BE
:1033C000206216E000BF206A20EA0900206210E0B7
:1033D00000BFFDF77FFE00BF0098FCF7CDFE00BFE9
:1033E00000BF45F62560A8F80000002005B0BDE844
:1033F000F08F00BFC4F824B004F1080001900198D8
:10340000008968B900BFFDF765FE00BF0098FCF7B2
:10341000B3FE00BF00BF0020A8F80000206AE5E767
:1034200000BF71480078401C6F490870084600785A
:10343000012801D101F016F800BFFDF74BFE00BFD7
:103440000098FCF799FE00BF00BF00BF0198076815
:10345000BD6889E07868029095F8880000F00F0058
:1034600003900398012821D002282ED0042802D0EE
:10347000082836D10EE0206AD5F8801000EA01064F
:10348000D5F88000B04204D15A463146284600F0B3
:10349000AFF863E0206AD5F8801000EA010626B193
:1034A0005A463146284600F0A3F857E0D5F8800088
:1034B000216A20EA0106D5F88000B04204D15A46BC
:1034C0003146284600F094F848E0D5F88000216A9B
:1034D00020EA010626B15A463146284600F088F80F
:1034E0003CE000BF00BF00BFFCF742FE009000BF01
:1034F000FDF7D6FD00BF3C480078401E3A490870F1
:1035000008460078D0B900F0BBFF38480088002892
:103510000BDD00BFFDF7DEFD00BF0098FCF72CFEC1
:1035200000BF00BF00F070FF11E000BFFDF7D2FD4B
:1035300000BF0098FCF720FE00BF08E000BFFDF7C9
:10354000C9FD00BF0098FCF717FE00BF00BF00BF19
:1035500043F6FF20A8F80000002047E700BF029FC5
:103560000FB1BD6800E00025002D7FF473AF00BFF0
:1035700000BF00BFFCF7FCFD009000BFFDF790FD11
:1035800000BF19480078401E1749087008460078A7
:1035900008B900F075FF00BFFDF79CFD00BF009863
:1035A000FCF7EAFD00BF00BF00BF0AF4004008B905
:1035B000FEF768FD00BF00BFFCF7DAFD009000BF1A
:1035C000FDF76EFD00BF206A049000BFFDF782FD8D
:1035D00000BF0098FCF7D0FD00BF00BF0020A8F896
:1035E0000000049802E70000C80000208C000020C2
:1035F00070B504460E4615463434266500206070CA
:103600002070E560A078343C082816D2DFE800F08E
:10361000040508090706101100BF00BF00BF0DE038
:1036200000BF204601F0DEFC002084F8360005E0F3
:1036300000BF042084F8360000E000BF00BF204631
:1036400000F069FC70BD0000002400BF1DE000BF59
:1036500000BFFCF78DFD044600BFFDF721FD00BF54
:103660000A480068401C0949086009480068401C75
:103670000749086000BFFDF72DFD00BF2046FCF79D
:103680007BFD00BF00BFFEF79FFBE0E7740000205A
:10369000E000002010B58AB0044600200E49086002
:1036A0000B2000210591CDE90704069108460B493E
:1036B00009680B4A12680B4B1B68CDE90132CDE952
:1036C00003101F200023084A08A100900C48FEF7B1
:1036D0002DFF0AB010BD0000740000202873000800
:1036E00024730008207300084936000875432F4FE3
:1036F000532D4949492049646C65205461736B001E
:10370000CCBE00202DE9F84F04460D4616461F4654
:10371000DDE90BABDDF82890DDF834800020009067
:1037200000BF00BFFCF724FD009000BFFDF7B8FC10
:1037300000BF2C4800882C49098888423EDA294875
:103740000088401C2749088028480088098888424A
:1037500003DA244800882549088025480068046069
:1037600023480068856022480068C66020480068D9
:1037700007821F480068C0F814901D480068A0F830
:1037800018A01B480068C0F81CB0194800684068C1
:1037900017490860012017490881174808604860E8
:1037A000002000F087FC1548007818B11348007815
:1037B000134908700020A8F8000008E011480088AC
:1037C000401C1049088044F25360A8F8000000BF74
:1037D000FDF780FC00BF0098FCF7CEFC00BF00BFE7
:1037E000BDE8F88F8C000020347300088E000020A4
:1037F0008400002068C0002094BF0020AE0000209C
:10380000B0000020900000203EB5594800680068D4
:10381000584A811A904279D00FDC57490844002851
:103820003ED056490844A8B155490844002860D004
:103830005449084400286AD13FE05348084400280E
:1038400050D052490844002862D051490844002809
:10385000F1D110E002A8464D00902D68EB69444D6F
:103860002D682A8B424D2D686969414D2D68A868E5
:10387000FFF780FD7AE002A93D480068C0693C4D31
:10388000CDE900012D682B8B394D2D682A8A384DE2
:103890002D68E968364D2D68A86800F03BFC65E0AE
:1038A000334B1B68DA69324B1B68198B304B1B6832
:1038B000986802AB00F084FE58E002A92C4800682A
:1038C000C0692B4DCDE900012D682B8B284D2D684B
:1038D0002A8A274D2D68E968254D2D68A86801F0D2
:1038E0004BFA43E022490968886802A901F088FB85
:1038F0003CE01F4B1B68DA691D4B1B68198B1C4B86
:103900001B68986802AB01F045FC2FE007E02CE053
:1039100017490968886802A901F010FF26E01D49CF
:10392000097801EB41011C4A02EB810000F0C6FD61
:103930000F48006802AB0021C269184801F02AFC58
:1039400017480068401E164908600846006858B9C4
:10395000144800680860FDF731FC044602AB2246BB
:103960000021114801F016FC00E000BF00BF3EBD81
:10397000880000205449434BADBAB2BE0DF90BFA92
:10398000F2F8F7FF0006F6FF00F7FDF700FFEFFF84
:1039900003FE0FFEB000002068C00020B0C200206F
:1039A0001C0100201801002078C30020002700BF60
:1039B00056E0002652E000BF00BFFCF7D9FB0746E7
:1039C00000BFFDF76DFB00BF2648008898B90020B6
:1039D000254908810860486000F07EFB00BFFDF7C4
:1039E00079FB00BF3846FCF7C7FB00BF00BFFEF7FE
:1039F00049FB012632E000BFFDF76CFB00BF3846F3
:103A0000FCF7BAFB00BF00BFFDF7D8FB0546FFF788
:103A1000FBFEFDF7D3FB441B14480068A04201D213
:103A20001248046000BF00BFFCF7A2FB074600BFBE
:103A3000FDF736FB00BF0E48006840680C4908607F
:103A400008480088401E0749088000BFFDF742FB78
:103A500000BF3846FCF790FB00BF00BF002EAAD085
:103A6000A7E700008C00002068C000209400002020
:103A700088000020F0B589B0054600203149088053
:103A80003148006820B944F25260288009B0F0BD86
:103A90002E480088022803DA44F254602880F5E7B3
:103AA00000202B4908602848046826462036002755
:103AB0000CE0284820600020A060E0602082606167
:103AC0002083666020342036781C87B21F48008827
:103AD0008742EEDB203C1C48066866601E48066094
:103AE0001E48066000201E4908801E4908801E48A6
:103AF000006818B944F255602880C7E71B48006881
:103B00001B490968884203D244F256602880BDE709
:103B1000032000210591CDE90705069113480068AF
:103B2000144A1268104B1B68CDE90301CDE901323C
:103B300000910B46104A11A11748FEF7F7FC00BF91
:103B4000A4E70000900000203073000834730008E0
:103B5000940000204E4F4E45840000208800002035
:103B60008C0000208E0000203C7300084473000885
:103B70007C73000840730008AD39000875432F4F6F
:103B8000532D494949204953522051756575652087
:103B90005461736B0000000094BF00200021034AB1
:103BA0001160034A1180018070470000A0000020CE
:103BB000A400002070B501461A4D2D681DB945F2CC
:103BC0001E750D8070BD184D2D881DB945F21D75EF
:103BD0000D80F7E7134D28682A681032124D2D88A2
:103BE0006D1EACB2002308E002600025456005812F
:103BF000C560103010325D1CABB2A342F4DB00256F
:103C0000056045600581C560064D2D68074E35602D
:103C1000054D2D88B5800025F58035810D8000BFCC
:103C2000D0E7000060730008587300085CC00020F3
:103C300010B5014648894B89002B17DD0A680C4BEB
:103C40001B6813600A4C4B6823602346DB884C8951
:103C50001B1B074CE38023469B884C892344044C60
:103C6000A38000234B818B810B604B6010BD000053
:103C70005CC000200181002242818281026042609A
:103C8000704700002DE9F0410D46DDE90674B0F8FB
:103C90000AC0B0F80880C44505DB46F2935CA4F87E
:103CA00000C0BDE8F081DFF8DCC0BCF804C0BCF1A6
:103CB000000F04D145F21D7CA4F800C0F1E7DFF845
:103CC000C4C0DCF80010DFF8BC80D1F800C0C8F830
:103CD00000C0C446BCF804C0ACF1010CA8F804C094
:103CE000C446BCF806C00CF1010CA8F806C0C446D6
:103CF000BCF808C0B8F80680C44507DADFF884C00D
:103D0000BCF806C0DFF87C80A8F808C0B0F80AC08C
:103D1000BCF1000F0AD1016041604FF0010CA0F826
:103D20000AC04FF0000CC1F800C017E003F0100CFF
:103D3000BCF1000F07D10668316001604FF0000C44
:103D4000C1F800C004E0D0F804C0C1F800C0416070
:103D5000B0F80AC00CF1010CA0F80AC0B0F80CC011
:103D6000B0F80A80C44503DAB0F80AC0A0F80CC065
:103D70004D600A81CF604FF0000CA4F800C000BF76
:103D80008FE700005CC000200021034A1160034A55
:103D90001180018070470000A8000020AC000020C6
:103DA0002DE9F04105460C4616461F4615480068A9
:103DB00080F8346000201349096881F835003946DD
:103DC0001048006800F00AFF6CB104F10808EC60CC
:103DD000012229460B48006800F016F829464046A3
:103DE00000F066F806E0002006490968C887054922
:103DF0000968086303480168204600F019F8BDE827
:103E0000F08100002001002010B5C287016300236B
:103E10000AE000244C600C600C614C610C83CC61A6
:103E2000886020315C1CA3B29342F2DB10BD00001D
:103E300030B548B14568C1F8C45000F108042268A3
:103E400093681D6AC56113E091F83450022D02D0C9
:103E5000072D08D103E007A5C1F8C45007E007A566
:103E6000C1F8C45003E008A5C1F8C45000BF00BFAA
:103E700030BD00005461736B205100005461736BBE
:103E80002053656D000000002000000030B507A53C
:103E9000C1F8C45000F1080422681AB193681D6A81
:103EA000C56101E001A5C56130BD00002000000032
:103EB000F0B58E6896F8375007893FB9012707811A
:103EC00000274F600F600160416023E007897F1C7D
:103ED0000781026806E0946894F83770AF4200DD0D
:103EE00002E05268002AF6D100BF32B900274F60C5
:103EF00043680B60596041600CE017682FB911608E
:103F000000270F604A60016004E013680B604A609C
:103F100059601160F0BD2DE9F0410446256BE68F34
:103F20000AE0D5F80C8008F108072946384600F069
:103F30000AF82035701E86B2002EF2DC0020E087E1
:103F40002063BDE8F08110B50489012C03D1002461
:103F50000460446011E00C6824B94A6800241460CD
:103F600002600AE04C6824B90B6800245C6043607E
:103F700003E00B684A685A6013600489641E048178
:103F800000244C600C6010BD2DE9F84306460C4639
:103F900017469846089D94F83600082850D2DFE866
:103FA00000F00405080906072B2C00BF00BF00BF66
:103FB00047E000BF94F83400032807D143463A464F
:103FC00021463046009500F03FF803E0E765A4F88D
:103FD0006080256436B12046FFF79DFF21463046BC
:103FE000FFF754FF204600F0FDFF00203434A0709E
:103FF000607004F8340924E000BF94F8340003280A
:1040000007D143463A4621463046009500F01CF859
:1040100003E0E765A4F860802564204601F048FDD0
:1040200036B12046FFF777FF21463046FFF72EFFD7
:1040300004203434A0700020607004F8340900E0DB
:1040400000BF00BFBDE8F883F0B50446059E086BCD
:10405000CD8F0AE0C768A74204D10461426103839F
:10406000C66104E020306F1EBDB2002DF2DC00BF3F
:10407000F0BD000070B50025074C03E005F12000FD
:10408000C5B2241D20680028F8D02068FCF77BF812
:104090002844C5B2284670BD54000020002004E02A
:1040A0000021034A42F82010401C0028F8D0704735
:1040B0005400002030B5420900F01F030121C3F174
:1040C0001F04A140034C54F822400C43014D45F815
:1040D000224030BD5400002030B5420900F01F03DB
:1040E0000121C3F11F04A140034C54F822408C432A
:1040F000014D45F8224030BD540000200021034A04
:104100001160034A1180018070470000B400002054
:10411000B80000202DE9F04F85B007468A46934647
:104120001C460020029000BF00BF00BFFCF720F833
:10413000029000BFFCF7B4FF00BF56480078401C57
:104140005449087008460078012801D100F08AF926
:1041500000BFFCF7BFFF00BF0298FCF70DF800BFDF
:1041600000BF00BF07F10806308900284CD104F0D9
:10417000100010B94FF0000801E04FF01008DDE921
:104180000E0143465A46CDE90001514607F1200091
:10419000FFF778FD00BF00BF00BFFBF7E9FF02900B
:1041A00000BFFCF77DFF00BF3A480078401E394948
:1041B000087008460078D0B900F062F936480088E7
:1041C00000280BDD00BFFCF785FF00BF0298FBF75E
:1041D000D3FF00BF00BF00F017F911E000BFFCF7EC
:1041E00079FF00BF0298FBF7C7FF00BF08E000BFE0
:1041F000FCF770FF00BF0298FBF7BEFF00BF00BFD7
:1042000000BF05B0BDE8F08F04F4007008B1358937
:1042100000E00125D6F8009011E0D9F808000390DD
:10422000D9F8040004900E985B4652460090384638
:104230000399FFF7A9FEDDF81090681E85B2002DE6
:10424000EBD100BF00BF00BFFBF792FF029000BFA1
:10425000FCF726FF00BF0F480078401E0D4908708C
:104260000846007808B900F00BF900BFFCF732FFF0
:1042700000BF0298FBF780FF00BF00BF00BF04F43F
:10428000004008B9FDF7FEFE00210F98018000BF35
:10429000B7E70000C80000208C00002000210AE0E1
:1042A00001EB4102054B03EB820000220281026018
:1042B00042604A1CD1B22029F2D3704768C0002066
:1042C00010B5044694F83700FFF7F4FE94F8370071
:1042D00005490978884203D1204600F027F802E01A
:1042E000204600F003F810BDAE00002010B590F895
:1042F000373003EB43030C4C04EB83010B893BB9D0
:1043000001230B810023C36003610860486009E05A
:104310000B895B1C0B810B68C360002303610A6877
:104320001061086010BD000068C0002010B590F852
:10433000373003EB43030B4C04EB83010B893BB990
:1043400001230B810023C36003610860486008E01B
:104350000B895B1C0B810023C3604A680261D0603B
:10436000486010BD68C0002010B501460C8924B11A
:10437000012C03D0022C0CD101E000BF14E008682E
:104380004A6802610024C4601461D0600A60486019
:104390000AE008684A68C36800241C61C4600261BE
:1043A000D0600B60486000BF00BF10BD2DE9F04138
:1043B000054695F8370000EB4000124901EB8004F8
:1043C0002F69EE6887B946B90020208120606060BF
:1043D00095F83700FFF780FE0EE02089401E20810F
:1043E00000203061266007E02089401E2081FE60A9
:1043F0000EB9676000E0376100202861E860BDE821
:10440000F081000068C0002010B5002400BFFBF759
:10441000AFFE044600BF00200D4908700D480E494C
:10442000086008460068D0F89000401C0968C1F890
:1044300090000A480068401C084908604FF080500E
:104440000749086000BF2046FBF796FE00BF10BD7D
:10445000AF00002094BF002024010020F4000020C1
:1044600004ED00E010B504480078012803D1FCF702
:10447000A5FE0249086010BDC8000020BC00002055
:1044800010B50A48007880B9FCF798FE0849096819
:10449000441A08480068A04201D206480460064851
:1044A0000068A04201D20448046010BDC80000208A
:1044B000BC000020C0000020C400002070B50546EC
:1044C000002635480078012800D070BD00BF00BF2D
:1044D000FBF74EFE064600BFFCF7E2FD00BF2C686E
:1044E0004CB900BFFCF7F6FD00BF3046FBF744FEB9
:1044F00000BF00BFE9E72948844209D100BFFCF7AB
:10450000E9FD00BF3046FBF737FE00BF00BFDCE728
:10451000A06D10B1A06D401EA065A06D48B100BF98
:10452000FCF7D8FD00BF3046FBF726FE00BF00BFFA
:10453000CBE72889022809DA00BFFCF7CBFD00BFD2
:104540003046FBF719FE00BF00BFBEE714480078F5
:10455000002809DD00BFFCF7BDFD00BF3046FBF7BA
:104560000BFE00BF00BFB0E72846FFF7FDFE2C683A
:10457000606D18B90B480068A06501E0606DA0652A
:1045800000BFFCF7A7FD00BF3046FBF7F5FD00BFFD
:1045900000BF00BF99E70000D0000020CCBE002083
:1045A000C8000020CC0000200021034A1160034A0B
:1045B0001180018070470000D4000020D800002046
:1045C0002DE9FF5F0446884691461D460020019074
:1045D00000BF00BFFBF7CCFD019000BFFCF760FD02
:1045E00000BF04F108073889002857D104200128AA
:1045F00004D0022816D004283AD127E0206AFF28E8
:104600000FD100BFFCF766FD00BF0198FBF7B4FDBA
:1046100000BF00BF46F6C5502880002004B0BDE8AA
:10462000F09F26E04FF6FF71206A88420DD100BF4F
:10463000FCF750FD00BF0198FBF79EFD00BF00BFD7
:1046400046F6C55028800020E8E712E0206A401CAA
:1046500068B900BFFCF73EFD00BF0198FBF78CFD79
:1046600000BF00BF46F6C55028800020D6E700E016
:1046700000BF00BF206A401C2062D4F820A0C4F80C
:10468000249000BFFCF726FD00BF0198FBF774FDE6
:1046900000BF00BF002028805046BFE700BF2D4864
:1046A0000078401C2B49087008460078012801D189
:1046B000FFF7D8FE00BFFCF70DFD00BF0198FBF728
:1046C0005BFD00BF00BF00BF08F4007008B13E8969
:1046D00000E00126D7F800B011E0DBF808000290F6
:1046E000DBF80400039000231A46CDF80090204622
:1046F0000299FFF749FCDDF80CB0701E86B2002E5F
:10470000EBD1D4F820A000BF00BF00BFFBF730FD05
:10471000019000BFFCF7C4FC00BF0E480078401EAB
:104720000C4908700846007808B9FFF7A9FE00BFD9
:10473000FCF7D0FC00BF0198FBF71EFD00BF00BFD7
:1047400000BF08F4004008B9FDF79CFC0020288059
:10475000504663E7C800002086B00020009000BFEC
:1047600006E0D9490968480001AA0021FEF710FCBB
:10477000D64800780128F4D101A8FDF799FD00275B
:10478000D3480068D0490968884205D9D0480068F4
:10479000CD490968B0FBF1F727B9CD4800680A2177
:1047A000B0FBF1F78EE1FCF709FD8246FCF762FCF5
:1047B000C849086000BF00BFFBF7DAFC009000BFEB
:1047C000FCF76EFC00BFC4480068C44908600020C4
:1047D000C149086000BFFCF77DFC00BF0098FBF7F3
:1047E000CBFC00BF00BFBE480068BC4909688842D6
:1047F00048D9BB480068BB49884205D242F21070D4
:1048000003900120029023E0B5480068B649884231
:1048100005D24FF47A7003900A20029018E0B04855
:104820000068B249884203D26420039002900FE0EE
:10483000AB480068AE49884205D20A2003904FF485
:104840007A70029004E00120039042F2107002900E
:10485000A34801680298B1FBF0F9A04903980968E0
:104860004843B0FBF9F042F21071081AA1490880E0
:10487000A14800880988884208DA9E4800889E4935
:10488000088003E042F210709A490880FDF744FE68
:10489000002500BF00BFFBF76BFC009000BFFCF7DA
:1048A000FFFB00BF9548046800BFFCF713FC00BF86
:1048B0000098FBF761FC00BF00BF72E000BF00BFC3
:1048C00000BFFBF755FC009000BFFCF7E9FB00BF01
:1048D0008B480078401C8A490870084600780128F7
:1048E00001D1FFF7BFFD00BFFCF7F4FB00BF00984C
:1048F000FBF742FC00BF00BF00BF54F89C0F606094
:10490000002044F89C0900BF00BF00BFFBF730FC4B
:10491000009000BFFCF7C4FB00BF79480078401E40
:104920007749087008460078D0B9FFF7A9FD7548A7
:10493000008800280BDD00BFFCF7CCFB00BF00980F
:10494000FBF71AFC00BF00BFFFF75EFD11E000BFE0
:10495000FCF7C0FB00BF0098FBF70EFC00BF08E0AF
:1049600000BFFCF7B7FB00BF0098FBF705FC00BFDA
:1049700000BF00BFD4F8A000054400BF00BFFBF794
:10498000F7FB009000BFFCF78BFB00BFD4F8C040E2
:1049900000BFFCF79FFB00BF0098FBF7EDFB00BFDB
:1049A00000BF002C8AD145B34E48854205D242F261
:1049B000107005904FF0010B1BE04B48854205D26B
:1049C0004FF47A7005904FF00A0B12E04748854289
:1049D00003D26420059083460BE04548854204D20B
:1049E0000A2005904FF47A7B03E00120059042F203
:1049F000107BB5FBFBF0049003E000200590012044
:104A0000049000BF00BFFBF7B3FB009000BFFCF7B2
:104A100047FB00BF3948046800BFFCF75BFB00BFE1
:104A20000098FBF7A9FB00BF00BF2FE0D4F8A0005F
:104A3000059948430499B0FBF1F086B242F2107038
:104A4000864200D90646A4F88C60B4F88E00B042C5
:104A500001DAA4F88E6001AB04F1AC02111D20460E
:104A6000FEF742F900BF00BFFBF782FB009000BFDA
:104A7000FCF716FB00BFD4F8C04000BFFCF72AFBD0
:104A800000BF0098FBF778FB00BF00BF002CCDD122
:104A90001D480078012805D100201B49087001A895
:104AA000FDF706FCFCF78AFBA0EB0A081748006834
:104AB000404502D21548C0F8008001AA00213846BE
:104AC000FEF766FA6FE6000068730008EC0000204D
:104AD000807300087C000020E0000020E800002037
:104AE000E4000020801A060000093D00005A62021E
:104AF0000084D717DC000020DE000020F800002032
:104B0000C80000208C000020DA000020F000002007
:104B100010B58AB0044600201F4908601F4908608C
:104B20001F4908601F4908701F4908701F48006826
:104B300020B946F62B6020800AB010BD1C480068E2
:104B40001C490968884203D246F62C602080F3E7AE
:104B5000194800781F2803D346F62A602080EBE727
:104B6000032000210591CDE907040691084610496C
:104B70000968124A12680D4B1B68CDE90132CDE974
:104B800003100D48007800230D4A0EA10090124832
:104B9000FDF7CCFC00BFCFE7E0000020E8000020DC
:104BA000E4000020EC000020DA0000206C73000814
:104BB000747300087C730008647300087073000845
:104BC0005947000875432F4F532D494949205374C5
:104BD0006174205461736B00E8C1002038B504464D
:104BE0000D4685B16B4602222946204600F082FE22
:104BF000BDF8000018B9032084F8360006E0022052
:104C000084F8360002E0022084F836002046FFF7E0
:104C1000CDFB38BD0021C0F8BC100949096819B99D
:104C20000021C0F8C01007E005490968C0F8C010AD
:104C300003490968C1F8BC000149086070470000D9
:104C4000F8000020D0F8BC20D0F8C0104AB90D4BB5
:104C5000196011B10023C1F8BC300023C0F8C03086
:104C60000FE029B90023C2F8C030C0F8BC3008E01A
:104C7000C2F8C010C1F8BC200023C0F8C030C0F892
:104C8000BC307047F80000200021044A1160044A3B
:104C90001180044A1160018070470000F800002074
:104CA000FC000020F400002070B5044600202060C5
:104CB000A0606060E06020616061A061E0612BA0A5
:104CC000206200206062A062E0622063E0872064CE
:104CD000E065A4F86000002104F16400FEF7CAFF5B
:104CE000002044F8740F6060E060A0822061743C92
:104CF000002506E0002104F17C0040F82510681C26
:104D0000C5B2002DF6D000203434206120676067E2
:104D1000606084F85600E067A06720814FF0004093
:104D200060610020A061E06120626062A4F8580028
:104D3000A4F85A00E0652066FCF740FA064666666D
:104D40000020A066C4F88000C4F884002070607061
:104D5000A0702020E0700020C4F88800C4F88C0007
:104D600004A0C4F89000343C70BD00003F5461734F
:104D70006B000000200000002DE9FC4704460F46B0
:104D800090469946DDE90A654FF0000A00BF00BF72
:104D900000BFFBF7EDF9824600BFFCF781F900BFC9
:104DA0008D480078401C8C4908700846007801281E
:104DB00001D1FFF757FB00BFFCF78CF900BF50464D
:104DC000FBF7DAF900BF00BF00BF0CB983480468E5
:104DD0000020288094F8360008287CD2DFE800F014
:104DE0000405484906074A4B00BF00BF00BF4B46B9
:104DF0004246394604F16400CDE90065FEF742FF02
:104E000000BF00BF00BFFBF7B3F9824600BFFCF74D
:104E100047F900BF70480078401E6F490870084687
:104E20000078D0B9FFF72CFB6D48008800280BDD17
:104E300000BFFCF74FF900BF5046FBF79DF900BFDC
:104E400000BFFFF7E1FA11E000BFFCF743F900BF34
:104E50005046FBF791F900BF08E000BFFCF73AF9B4
:104E600000BF5046FBF788F900BF00BF00BFAFE0AE
:104E700000BF00BF00BF94F8340002282CD1434685
:104E80003A46214600200096FFF77EF800BF00BF9B
:104E900000BFFBF76DF9824600BFFCF701F900BFC8
:104EA0004D480078401E4C4908700846007808B903
:104EB000FFF7E6FA00BFFCF70DF900BF5046FBF71D
:104EC0005BF900BF00BF00BF09F40040002843D1D8
:104ED000FDF7D8F840E040E04B464246394604F141
:104EE0006400CDE90065FEF7CDFE00BF00BF00BF46
:104EF000FBF73EF9824600BFFCF7D2F800BF364808
:104F00000078401E3449087008460078D0B9FFF791
:104F1000B7FA3348008800280BDD00BFFCF7DAF849
:104F200000BF5046FBF728F900BF00BFFFF76CFA3F
:104F300011E000BFFCF7CEF800BF5046FBF71CF9AC
:104F400000BF08E000BFFCF7C5F800BF5046FBF704
:104F500013F900BF00BF00BF3AE000BF00BF00BFB1
:104F6000FBF706F9824600BFFCF79AF800BF1A4823
:104F70000078401E1849087008460078D0B9FFF73D
:104F80007FFA1748008800280BDD00BFFCF7A2F865
:104F900000BF5046FBF7F0F800BF00BFFFF734FA40
:104FA00011E000BFFCF796F800BF5046FBF7E4F8AD
:104FB00000BF08E000BFFCF78DF800BF5046FBF7CC
:104FC000DBF800BF00BF00BF46F62D60288000BFA1
:104FD00000BFBDE8FC870000C800002020010020C1
:104FE0008C00002010B50446204600F061FD94F8C6
:104FF000360000F0040010B92046FFF761F910BD3B
:1050000070B504460D46002600BF00BFFBF7B0F8A0
:10501000064600BFFCF744F800BF0020288094F843
:10502000360008287ED2DFE800F004050607145693
:105030006A8000BF00BF00BF00BFFCF74BF800BF95
:105040003046FBF799F800BF00BF47F253102880A5
:105050008CE000BF48480078401C4749087008466B
:105060000078012801D1FFF7FDF900BFFCF732F805
:1050700000BF3046FBF780F800BF00BF00BF14F848
:105080008A0F401E207014F88A0928B9002084F87D
:1050900036002046FFF7A6FF00BF00BF00BFFBF7AA
:1050A00067F8064600BFFBF7FBFF00BF32480078F9
:1050B000401E314908700846007808B9FFF7E0F94A
:1050C00000BFFCF707F800BF3046FBF755F800BFFC
:1050D00000BF00BF4AE014F88A0F401E207014F889
:1050E0008A0910B9012084F8360000BFFBF7F2FFEF
:1050F00000BF3046FBF740F800BF00BF36E014F8B1
:105100008A0F401E207014F88A0910B9022084F812
:10511000360000BFFBF7DEFF00BF3046FBF72CF880
:1051200000BF00E015E000BF20E014F88A0F401E29
:10513000207014F88A0910B9032084F8360000BFE3
:10514000FBF7C8FF00BF3046FBF716F800BF00BFF3
:105150000CE000BFFBF7BEFF00BF3046FBF70CF8CA
:1051600000BF00BF46F62D60288070BD00BFFCF771
:1051700089FF00BFF9E70000C800002008B5044817
:105180000068FDF77DFC69460020FDF725FB08BDA2
:10519000200100202DE9F8430446884617461D46A5
:1051A0004FF0000900BF00BF00BFFAF7E1FF8146E2
:1051B00000BFFBF775FF00BFFB480078401CFA49B1
:1051C000087008460078012801D1FFF74BF900BFAD
:1051D000FBF780FF00BF4846FAF7CEFF00BF00BFD5
:1051E00000BF0CB9F148046827640020288094F8B7
:1051F000360008287AD2DFE800F00405FEFD060735
:10520000FCFB00BF00BF00BF0420012804D002281F
:1052100043D004286BD184E0606CFF283CD100BFF0
:1052200000BF00BFFAF7A4FF814600BFFBF738FFBD
:1052300000BFDD480078401EDB4908700846007852
:10524000D0B9FFF71DF9DA48008800280BDD00BF50
:10525000FBF740FF00BF4846FAF78EFF00BF00BFD4
:10526000FFF7D2F811E000BFFBF734FF00BF48465C
:10527000FAF782FF00BF08E000BFFBF72BFF00BF7B
:105280004846FAF779FF00BF00BF00BF46F6C55099
:1052900028800020BDE8F88385E04FF6FF71606C40
:1052A00088423DD100BF00BF00BFFAF761FF8146D1
:1052B00000BFFBF7F5FE00BFBB480078401EBA49AF
:1052C000087008460078E0B9FFF7DAF8B8480088B7
:1052D00000280DDD00BFFBF7FDFE00BF4846FAF7D2
:1052E0004BFF00BF00BFFFF78FF813E0E2E159E08A
:1052F00000BFFBF7EFFE00BF4846FAF73DFF00BFD7
:1053000008E000BFFBF7E6FE00BF4846FAF734FFAF
:1053100000BF00BF00BF46F6C55028800020B9E797
:1053200041E0606C401CD8BB00BF00BF00BFFAF773
:105330001FFF814600BFFBF7B3FE00BF9A4800780D
:10534000401E9949087008460078D0B9FFF798F8D0
:105350009748008800280BDD00BFFBF7BBFE00BFAD
:105360004846FAF709FF00BF00BFFFF74DF811E00C
:1053700000BFFBF7AFFE00BF4846FAF7FDFE00BFD7
:1053800008E000BFFBF7A6FE00BF4846FAF7F4FEB0
:1053900000BF00BF00BF46F6C5502880002079E757
:1053A000FFE700E000BF00BF606C401C6064666CFB
:1053B00000BF00BF00BFFAF7DBFE814600BFFBF76E
:1053C0006FFE00BF78480078401E77490870084695
:1053D0000078F8B9FFF754F875480088002810DD08
:1053E00000BFFBF777FE00BF4846FAF7C5FE03E0B3
:1053F0001EE01CE01AE018E000BF00BFFFF704F851
:1054000011E000BFFBF766FE00BF4846FAF7B4FEA6
:1054100000BF08E000BFFBF75DFE00BF4846FAF79B
:10542000ABFE00BF00BF00BF80E100BF00BF00BFF8
:1054300094F8340007282CD100231A462146184638
:105440000097FEF7A1FD666C00BF00BF00BFFAF732
:105450008FFE814600BFFBF723FE00BF5248007855
:10546000401E514908700846007808B9FFF708F84F
:1054700000BFFBF72FFE00BF4846FAF77DFE00BFD6
:1054800000BF00BF08F40040002801D1FCF7FAFD7E
:105490000FE10420012804D0022842D0042872D150
:1054A00089E0606CFF283BD100BF00BF00BFFAF766
:1054B0005FFE814600BFFBF7F3FD00BF3A4800786E
:1054C000401E3949087008460078D0B9FEF7D8FF69
:1054D0003748008800280BDD00BFFBF7FBFD00BF4D
:1054E0004846FAF749FE00BF00BFFEF78DFF11E006
:1054F00000BFFBF7EFFD00BF4846FAF73DFE00BFD7
:1055000008E000BFFBF7E6FD00BF4846FAF734FEAF
:1055100000BF00BF00BF46F6C55028800020B9E696
:105520008BE04FF6FF71606C884243D100BF00BF33
:1055300000BFFAF71DFE814600BFFBF7B1FD00BFBB
:1055400019480078401E1849087008460078D8B9F4
:10555000FEF796FF1648008800280BDD00BFFBF71A
:10556000B9FD00BF4846FAF707FE00BF00BFFEF7CF
:105570004BFF12E000BFFBF7ADFD00BF4846FAF756
:10558000FBFD00BF09E057E000BFFBF7A3FD00BF34
:105590004846FAF7F1FD00BF00BF00BF46F6C55010
:1055A0002880002076E60000C800002020010020AE
:1055B0008C00002041E0606C401CD8BB00BF00BFE5
:1055C00000BFFAF7D5FD814600BFFBF769FD00BFBC
:1055D00058480078401E5749087008460078D0B9EE
:1055E000FEF74EFF5448008800280BDD00BFFBF794
:1055F00071FD00BF4846FAF7BFFD00BF00BFFEF7D0
:1056000003FF11E000BFFBF765FD00BF4846FAF756
:10561000B3FD00BF08E000BFFBF75CFD00BF4846DC
:10562000FAF7AAFD00BF00BF00BF46F6C5502880AC
:1056300000202FE6FFE700E000BF00BF606C401CC9
:105640006064666C00BF00BF00BFFAF791FD814641
:1056500000BFFBF725FD00BF36480078401E3549E6
:10566000087008460078D0B9FEF70AFF3248008873
:1056700000280BDD00BFFBF72DFD00BF4846FAF701
:105680007BFD00BF00BFFEF7BFFE11E000BFFBF7D0
:1056900021FD00BF4846FAF76FFD00BF08E000BFDC
:1056A000FBF718FD00BF4846FAF766FD00BF00BFD4
:1056B00000BF3BE000BF00BF00BFFAF759FD8146C5
:1056C00000BFFBF7EDFC00BF1A480078401E1949E7
:1056D000087008460078D0B9FEF7D2FE1648008858
:1056E00000280BDD00BFFBF7F5FC00BF4846FAF7CA
:1056F00043FD00BF00BFFEF787FE11E000BFFBF7D0
:10570000E9FC00BF4846FAF737FD00BF08E000BFDC
:10571000FBF7E0FC00BF4846FAF72EFD00BF00BFD4
:1057200000BF46F62D602880002600BF00BF30462F
:10573000B0E50000C80000208C00002070B50446D1
:105740000D46002600BF00BFFAF712FD064600BF57
:10575000FBF7A6FC00BF0CB95A480468594800681A
:10576000844210D15848007800280CDD00BFFBF7B8
:10577000B1FC00BF3046FAF7FFFC00BF00BF46F6A1
:105780006350288070BD0020288094F836000828D7
:1057900073D2DFE800F0044252627374757600BF82
:1057A00049480078401C484908700846007801289C
:1057B00001D1FEF757FE00BFFBF78CFC00BF30465F
:1057C000FAF7DAFC00BF00BF00BF042084F83600FF
:1057D000012084F88A002046FEF7E8FD00BF00BFE4
:1057E00000BFFAF7C5FC064600BFFBF759FC00BF37
:1057F00035480078401E344908700846007808B9DA
:10580000FEF73EFE00BFFBF765FC00BF3046FAF72F
:10581000B3FC00BF00BF00BF4FE0052084F8360096
:10582000012084F88A0000BFFBF754FC00BF30461B
:10583000FAF7A2FC00BF00BF3FE0062084F8360064
:10584000012084F88A0000BFFBF744FC00BF30460B
:10585000FAF792FC00BF00BF2FE0072084F8360063
:10586000012084F88A0000BFFBF734FC00BF3046FB
:10587000FAF782FC00BF00BF1FE011E000BF00BFCD
:1058800000BF94F88A00401C84F88A0000BFFBF730
:1058900021FC00BF3046FAF76FFC00BF00BF0CE0F0
:1058A00000BFFBF717FC00BF3046FAF765FC00BFEE
:1058B00000BF46F62D60288064E700BFFCF7E2FBDE
:1058C00000BF5FE720010020C8000020002108E0A1
:1058D000064A02EBC100002202608280C2804A1C9C
:1058E00091B2034A12889142F2DB7047BCBB0020A0
:1058F000987300082DE9F04F0C4616461D46042EFD
:105900001ED1DFF8A091D9F80090A4EB0909A9F104
:10591000010313F5803F0DD94FF00009C0F84C90FA
:10592000C0F85090C0F81C9047F27E29A5F800906E
:10593000BDE8F08FC46403F10109C0F850903FE066
:1059400084B3082E25D1D0F8489009EB0407DFF87E
:105950005491D9F80090A7EB0909A9F10103A342DA
:1059600001D2C76406E0DFF83C91D9F80090A14469
:10597000C0F84C90DFF82CA1D0F84C90DAF800A0D9
:10598000A9EB0A09C0F85090D0F84C90C0F84890A4
:1059900016E0DFF81091D9F80090A144C0F84C90BF
:1059A00004650DE0FFE74FF00009C0F84C90C0F827
:1059B0005090C0F81C9047F27E29A5F80090B7E7F8
:1059C000DFF8E4A0BAF800A0D0F84C90B9FBFAFBDD
:1059D0000AFB1B991FFA89F8DFF8D09009EBC8027F
:1059E000B2F80490B9F1000F0BD14FF00009C0F8E4
:1059F0001490C0F8189010604FF00109A2F80490BC
:105A00003EE0116834E0DFF89CA0D1F84C90DAF861
:105A100000A0A9EB0A09C1F85090D0F85090D1F835
:105A200050A0D1450ED9D1F81490B9F1000F01D092
:105A300049691DE04FF00009C0F814908161486188
:105A4000002115E0D1F81890B9F1000F07D14FF0FF
:105A50000009C0F8189041618861106007E0D1F832
:105A600018C0C0F818C04161CCF81400886100214A
:105A70000029C8D1B2F8049009F10109A2F80490F4
:105A8000B2F80690B2F804A0D14503DAB2F8049057
:105A9000A2F80690C2614FF00009A5F8009000BF7F
:105AA00046E700000001002098730008BCBB0020FE
:105AB00010B5C269BAB1002404651468844205D1E6
:105AC0004169116039B100248C6104E08169436946
:105AD0004B6103B19961002444618461C461C46471
